{"abi":[{"inputs":[{"internalType":"uint256","name":"minimun","type":"uint256"},{"internalType":"address payable","name":"creator","type":"address"},{"internalType":"string","name":"name","type":"string"},{"internalType":"string","name":"description","type":"string"},{"internalType":"string","name":"image","type":"string"},{"internalType":"uint256","name":"target","type":"uint256"}],"stateMutability":"nonpayable","type":"constructor"},{"inputs":[],"name":"CampaignDescription","outputs":[{"internalType":"string","name":"","type":"string"}],"stateMutability":"view","type":"function"},{"inputs":[],"name":"CampaignName","outputs":[{"internalType":"string","name":"","type":"string"}],"stateMutability":"view","type":"function"},{"inputs":[{"internalType":"uint256","name":"index","type":"uint256"}],"name":"approveRequest","outputs":[],"stateMutability":"nonpayable","type":"function"},{"inputs":[{"internalType":"address","name":"","type":"address"}],"name":"approvers","outputs":[{"internalType":"bool","name":"","type":"bool"}],"stateMutability":"view","type":"function"},{"inputs":[],"name":"approversCount","outputs":[{"internalType":"uint256","name":"","type":"uint256"}],"stateMutability":"view","type":"function"},{"inputs":[],"name":"contibute","outputs":[],"stateMutability":"payable","type":"function"},{"inputs":[{"internalType":"uint256","name":"","type":"uint256"}],"name":"contributers","outputs":[{"internalType":"address","name":"","type":"address"}],"stateMutability":"view","type":"function"},{"inputs":[{"internalType":"string","name":"description","type":"string"},{"internalType":"uint256","name":"value","type":"uint256"},{"internalType":"address payable","name":"recipient","type":"address"}],"name":"createRequest","outputs":[],"stateMutability":"nonpayable","type":"function"},{"inputs":[{"internalType":"uint256","name":"index","type":"uint256"}],"name":"finalizeRequest","outputs":[],"stateMutability":"nonpayable","type":"function"},{"inputs":[],"name":"getRequestsCount","outputs":[{"internalType":"uint256","name":"","type":"uint256"}],"stateMutability":"view","type":"function"},{"inputs":[],"name":"getSummary","outputs":[{"internalType":"uint256","name":"","type":"uint256"},{"internalType":"uint256","name":"","type":"uint256"},{"internalType":"uint256","name":"","type":"uint256"},{"internalType":"uint256","name":"","type":"uint256"},{"internalType":"address","name":"","type":"address"},{"internalType":"string","name":"","type":"string"},{"internalType":"string","name":"","type":"string"},{"internalType":"string","name":"","type":"string"},{"internalType":"uint256","name":"","type":"uint256"}],"stateMutability":"view","type":"function"},{"inputs":[],"name":"imageUrl","outputs":[{"internalType":"string","name":"","type":"string"}],"stateMutability":"view","type":"function"},{"inputs":[],"name":"manager","outputs":[{"internalType":"address","name":"","type":"address"}],"stateMutability":"view","type":"function"},{"inputs":[],"name":"minimunContribution","outputs":[{"internalType":"uint256","name":"","type":"uint256"}],"stateMutability":"view","type":"function"},{"inputs":[{"internalType":"uint256","name":"","type":"uint256"}],"name":"requests","outputs":[{"internalType":"string","name":"description","type":"string"},{"internalType":"uint256","name":"value","type":"uint256"},{"internalType":"address","name":"recipient","type":"address"},{"internalType":"bool","name":"complete","type":"bool"},{"internalType":"uint256","name":"approvalCount","type":"uint256"}],"stateMutability":"view","type":"function"},{"inputs":[],"name":"targetToAchieve","outputs":[{"internalType":"uint256","name":"","type":"uint256"}],"stateMutability":"view","type":"function"}],"devdoc":{"kind":"dev","methods":{},"version":1},"evm":{"assembly":"    /* \"Campaigns.sol\":731:3646  contract Campaign {... */\n  mstore(0x40, 0x80)\n    /* \"Campaigns.sol\":1397:1794  constructor(... */\n  callvalue\n  dup1\n  iszero\n  tag_1\n  jumpi\n  0x00\n  dup1\n  revert\ntag_1:\n  pop\n  mload(0x40)\n  sub(codesize, bytecodeSize)\n  dup1\n  bytecodeSize\n  dup4\n  codecopy\n  dup2\n  dup2\n  add\n  0x40\n  mstore\n  dup2\n  add\n  swap1\n  tag_2\n  swap2\n  swap1\n  tag_3\n  jump\t// in\ntag_2:\n    /* \"Campaigns.sol\":1609:1616  creator */\n  dup5\n    /* \"Campaigns.sol\":1599:1606  manager */\n  0x01\n  0x00\n    /* \"Campaigns.sol\":1599:1616  manager = creator */\n  0x0100\n  exp\n  dup2\n  sload\n  dup2\n  0xffffffffffffffffffffffffffffffffffffffff\n  mul\n  not\n  and\n  swap1\n  dup4\n  0xffffffffffffffffffffffffffffffffffffffff\n  and\n  mul\n  or\n  swap1\n  sstore\n  pop\n    /* \"Campaigns.sol\":1648:1655  minimun */\n  dup6\n    /* \"Campaigns.sol\":1626:1645  minimunContribution */\n  0x02\n    /* \"Campaigns.sol\":1626:1655  minimunContribution = minimun */\n  dup2\n  swap1\n  sstore\n  pop\n    /* \"Campaigns.sol\":1680:1684  name */\n  dup4\n    /* \"Campaigns.sol\":1665:1677  CampaignName */\n  0x03\n    /* \"Campaigns.sol\":1665:1684  CampaignName = name */\n  swap1\n  dup2\n  tag_6\n  swap2\n  swap1\n  tag_7\n  jump\t// in\ntag_6:\n  pop\n    /* \"Campaigns.sol\":1716:1727  description */\n  dup3\n    /* \"Campaigns.sol\":1694:1713  CampaignDescription */\n  0x04\n    /* \"Campaigns.sol\":1694:1727  CampaignDescription = description */\n  swap1\n  dup2\n  tag_8\n  swap2\n  swap1\n  tag_7\n  jump\t// in\ntag_8:\n  pop\n    /* \"Campaigns.sol\":1748:1753  image */\n  dup2\n    /* \"Campaigns.sol\":1737:1745  imageUrl */\n  0x05\n    /* \"Campaigns.sol\":1737:1753  imageUrl = image */\n  swap1\n  dup2\n  tag_9\n  swap2\n  swap1\n  tag_7\n  jump\t// in\ntag_9:\n  pop\n    /* \"Campaigns.sol\":1781:1787  target */\n  dup1\n    /* \"Campaigns.sol\":1763:1778  targetToAchieve */\n  0x06\n    /* \"Campaigns.sol\":1763:1787  targetToAchieve = target */\n  dup2\n  swap1\n  sstore\n  pop\n    /* \"Campaigns.sol\":1397:1794  constructor(... */\n  pop\n  pop\n  pop\n  pop\n  pop\n  pop\n    /* \"Campaigns.sol\":731:3646  contract Campaign {... */\n  jump(tag_10)\n    /* \"#utility.yul\":7:82   */\ntag_11:\n    /* \"#utility.yul\":40:46   */\n  0x00\n    /* \"#utility.yul\":73:75   */\n  0x40\n    /* \"#utility.yul\":67:76   */\n  mload\n    /* \"#utility.yul\":57:76   */\n  swap1\n  pop\n    /* \"#utility.yul\":7:82   */\n  swap1\n  jump\t// out\n    /* \"#utility.yul\":88:205   */\ntag_12:\n    /* \"#utility.yul\":197:198   */\n  0x00\n    /* \"#utility.yul\":194:195   */\n  dup1\n    /* \"#utility.yul\":187:199   */\n  revert\n    /* \"#utility.yul\":211:328   */\ntag_13:\n    /* \"#utility.yul\":320:321   */\n  0x00\n    /* \"#utility.yul\":317:318   */\n  dup1\n    /* \"#utility.yul\":310:322   */\n  revert\n    /* \"#utility.yul\":334:411   */\ntag_14:\n    /* \"#utility.yul\":371:378   */\n  0x00\n    /* \"#utility.yul\":400:405   */\n  dup2\n    /* \"#utility.yul\":389:405   */\n  swap1\n  pop\n    /* \"#utility.yul\":334:411   */\n  swap2\n  swap1\n  pop\n  jump\t// out\n    /* \"#utility.yul\":417:539   */\ntag_15:\n    /* \"#utility.yul\":490:514   */\n  tag_55\n    /* \"#utility.yul\":508:513   */\n  dup2\n    /* \"#utility.yul\":490:514   */\n  tag_14\n  jump\t// in\ntag_55:\n    /* \"#utility.yul\":483:488   */\n  dup2\n    /* \"#utility.yul\":480:515   */\n  eq\n    /* \"#utility.yul\":470:533   */\n  tag_56\n  jumpi\n    /* \"#utility.yul\":529:530   */\n  0x00\n    /* \"#utility.yul\":526:527   */\n  dup1\n    /* \"#utility.yul\":519:531   */\n  revert\n    /* \"#utility.yul\":470:533   */\ntag_56:\n    /* \"#utility.yul\":417:539   */\n  pop\n  jump\t// out\n    /* \"#utility.yul\":545:688   */\ntag_16:\n    /* \"#utility.yul\":602:607   */\n  0x00\n    /* \"#utility.yul\":633:639   */\n  dup2\n    /* \"#utility.yul\":627:640   */\n  mload\n    /* \"#utility.yul\":618:640   */\n  swap1\n  pop\n    /* \"#utility.yul\":649:682   */\n  tag_58\n    /* \"#utility.yul\":676:681   */\n  dup2\n    /* \"#utility.yul\":649:682   */\n  tag_15\n  jump\t// in\ntag_58:\n    /* \"#utility.yul\":545:688   */\n  swap3\n  swap2\n  pop\n  pop\n  jump\t// out\n    /* \"#utility.yul\":694:820   */\ntag_17:\n    /* \"#utility.yul\":731:738   */\n  0x00\n    /* \"#utility.yul\":771:813   */\n  0xffffffffffffffffffffffffffffffffffffffff\n    /* \"#utility.yul\":764:769   */\n  dup3\n    /* \"#utility.yul\":760:814   */\n  and\n    /* \"#utility.yul\":749:814   */\n  swap1\n  pop\n    /* \"#utility.yul\":694:820   */\n  swap2\n  swap1\n  pop\n  jump\t// out\n    /* \"#utility.yul\":826:930   */\ntag_18:\n    /* \"#utility.yul\":871:878   */\n  0x00\n    /* \"#utility.yul\":900:924   */\n  tag_61\n    /* \"#utility.yul\":918:923   */\n  dup3\n    /* \"#utility.yul\":900:924   */\n  tag_17\n  jump\t// in\ntag_61:\n    /* \"#utility.yul\":889:924   */\n  swap1\n  pop\n    /* \"#utility.yul\":826:930   */\n  swap2\n  swap1\n  pop\n  jump\t// out\n    /* \"#utility.yul\":936:1074   */\ntag_19:\n    /* \"#utility.yul\":1017:1049   */\n  tag_63\n    /* \"#utility.yul\":1043:1048   */\n  dup2\n    /* \"#utility.yul\":1017:1049   */\n  tag_18\n  jump\t// in\ntag_63:\n    /* \"#utility.yul\":1010:1015   */\n  dup2\n    /* \"#utility.yul\":1007:1050   */\n  eq\n    /* \"#utility.yul\":997:1068   */\n  tag_64\n  jumpi\n    /* \"#utility.yul\":1064:1065   */\n  0x00\n    /* \"#utility.yul\":1061:1062   */\n  dup1\n    /* \"#utility.yul\":1054:1066   */\n  revert\n    /* \"#utility.yul\":997:1068   */\ntag_64:\n    /* \"#utility.yul\":936:1074   */\n  pop\n  jump\t// out\n    /* \"#utility.yul\":1080:1239   */\ntag_20:\n    /* \"#utility.yul\":1145:1150   */\n  0x00\n    /* \"#utility.yul\":1176:1182   */\n  dup2\n    /* \"#utility.yul\":1170:1183   */\n  mload\n    /* \"#utility.yul\":1161:1183   */\n  swap1\n  pop\n    /* \"#utility.yul\":1192:1233   */\n  tag_66\n    /* \"#utility.yul\":1227:1232   */\n  dup2\n    /* \"#utility.yul\":1192:1233   */\n  tag_19\n  jump\t// in\ntag_66:\n    /* \"#utility.yul\":1080:1239   */\n  swap3\n  swap2\n  pop\n  pop\n  jump\t// out\n    /* \"#utility.yul\":1245:1362   */\ntag_21:\n    /* \"#utility.yul\":1354:1355   */\n  0x00\n    /* \"#utility.yul\":1351:1352   */\n  dup1\n    /* \"#utility.yul\":1344:1356   */\n  revert\n    /* \"#utility.yul\":1368:1485   */\ntag_22:\n    /* \"#utility.yul\":1477:1478   */\n  0x00\n    /* \"#utility.yul\":1474:1475   */\n  dup1\n    /* \"#utility.yul\":1467:1479   */\n  revert\n    /* \"#utility.yul\":1491:1593   */\ntag_23:\n    /* \"#utility.yul\":1532:1538   */\n  0x00\n    /* \"#utility.yul\":1583:1585   */\n  0x1f\n    /* \"#utility.yul\":1579:1586   */\n  not\n    /* \"#utility.yul\":1574:1576   */\n  0x1f\n    /* \"#utility.yul\":1567:1572   */\n  dup4\n    /* \"#utility.yul\":1563:1577   */\n  add\n    /* \"#utility.yul\":1559:1587   */\n  and\n    /* \"#utility.yul\":1549:1587   */\n  swap1\n  pop\n    /* \"#utility.yul\":1491:1593   */\n  swap2\n  swap1\n  pop\n  jump\t// out\n    /* \"#utility.yul\":1599:1779   */\ntag_24:\n    /* \"#utility.yul\":1647:1724   */\n  0x4e487b7100000000000000000000000000000000000000000000000000000000\n    /* \"#utility.yul\":1644:1645   */\n  0x00\n    /* \"#utility.yul\":1637:1725   */\n  mstore\n    /* \"#utility.yul\":1744:1748   */\n  0x41\n    /* \"#utility.yul\":1741:1742   */\n  0x04\n    /* \"#utility.yul\":1734:1749   */\n  mstore\n    /* \"#utility.yul\":1768:1772   */\n  0x24\n    /* \"#utility.yul\":1765:1766   */\n  0x00\n    /* \"#utility.yul\":1758:1773   */\n  revert\n    /* \"#utility.yul\":1785:2066   */\ntag_25:\n    /* \"#utility.yul\":1868:1895   */\n  tag_72\n    /* \"#utility.yul\":1890:1894   */\n  dup3\n    /* \"#utility.yul\":1868:1895   */\n  tag_23\n  jump\t// in\ntag_72:\n    /* \"#utility.yul\":1860:1866   */\n  dup2\n    /* \"#utility.yul\":1856:1896   */\n  add\n    /* \"#utility.yul\":1998:2004   */\n  dup2\n    /* \"#utility.yul\":1986:1996   */\n  dup2\n    /* \"#utility.yul\":1983:2005   */\n  lt\n    /* \"#utility.yul\":1962:1980   */\n  0xffffffffffffffff\n    /* \"#utility.yul\":1950:1960   */\n  dup3\n    /* \"#utility.yul\":1947:1981   */\n  gt\n    /* \"#utility.yul\":1944:2006   */\n  or\n    /* \"#utility.yul\":1941:2029   */\n  iszero\n  tag_73\n  jumpi\n    /* \"#utility.yul\":2009:2027   */\n  tag_74\n  tag_24\n  jump\t// in\ntag_74:\n    /* \"#utility.yul\":1941:2029   */\ntag_73:\n    /* \"#utility.yul\":2049:2059   */\n  dup1\n    /* \"#utility.yul\":2045:2047   */\n  0x40\n    /* \"#utility.yul\":2038:2060   */\n  mstore\n    /* \"#utility.yul\":1828:2066   */\n  pop\n    /* \"#utility.yul\":1785:2066   */\n  pop\n  pop\n  jump\t// out\n    /* \"#utility.yul\":2072:2201   */\ntag_26:\n    /* \"#utility.yul\":2106:2112   */\n  0x00\n    /* \"#utility.yul\":2133:2153   */\n  tag_76\n  tag_11\n  jump\t// in\ntag_76:\n    /* \"#utility.yul\":2123:2153   */\n  swap1\n  pop\n    /* \"#utility.yul\":2162:2195   */\n  tag_77\n    /* \"#utility.yul\":2190:2194   */\n  dup3\n    /* \"#utility.yul\":2182:2188   */\n  dup3\n    /* \"#utility.yul\":2162:2195   */\n  tag_25\n  jump\t// in\ntag_77:\n    /* \"#utility.yul\":2072:2201   */\n  swap2\n  swap1\n  pop\n  jump\t// out\n    /* \"#utility.yul\":2207:2515   */\ntag_27:\n    /* \"#utility.yul\":2269:2273   */\n  0x00\n    /* \"#utility.yul\":2359:2377   */\n  0xffffffffffffffff\n    /* \"#utility.yul\":2351:2357   */\n  dup3\n    /* \"#utility.yul\":2348:2378   */\n  gt\n    /* \"#utility.yul\":2345:2401   */\n  iszero\n  tag_79\n  jumpi\n    /* \"#utility.yul\":2381:2399   */\n  tag_80\n  tag_24\n  jump\t// in\ntag_80:\n    /* \"#utility.yul\":2345:2401   */\ntag_79:\n    /* \"#utility.yul\":2419:2448   */\n  tag_81\n    /* \"#utility.yul\":2441:2447   */\n  dup3\n    /* \"#utility.yul\":2419:2448   */\n  tag_23\n  jump\t// in\ntag_81:\n    /* \"#utility.yul\":2411:2448   */\n  swap1\n  pop\n    /* \"#utility.yul\":2503:2507   */\n  0x20\n    /* \"#utility.yul\":2497:2501   */\n  dup2\n    /* \"#utility.yul\":2493:2508   */\n  add\n    /* \"#utility.yul\":2485:2508   */\n  swap1\n  pop\n    /* \"#utility.yul\":2207:2515   */\n  swap2\n  swap1\n  pop\n  jump\t// out\n    /* \"#utility.yul\":2521:2767   */\ntag_28:\n    /* \"#utility.yul\":2602:2603   */\n  0x00\n    /* \"#utility.yul\":2612:2725   */\ntag_83:\n    /* \"#utility.yul\":2626:2632   */\n  dup4\n    /* \"#utility.yul\":2623:2624   */\n  dup2\n    /* \"#utility.yul\":2620:2633   */\n  lt\n    /* \"#utility.yul\":2612:2725   */\n  iszero\n  tag_85\n  jumpi\n    /* \"#utility.yul\":2711:2712   */\n  dup1\n    /* \"#utility.yul\":2706:2709   */\n  dup3\n    /* \"#utility.yul\":2702:2713   */\n  add\n    /* \"#utility.yul\":2696:2714   */\n  mload\n    /* \"#utility.yul\":2692:2693   */\n  dup2\n    /* \"#utility.yul\":2687:2690   */\n  dup5\n    /* \"#utility.yul\":2683:2694   */\n  add\n    /* \"#utility.yul\":2676:2715   */\n  mstore\n    /* \"#utility.yul\":2648:2650   */\n  0x20\n    /* \"#utility.yul\":2645:2646   */\n  dup2\n    /* \"#utility.yul\":2641:2651   */\n  add\n    /* \"#utility.yul\":2636:2651   */\n  swap1\n  pop\n    /* \"#utility.yul\":2612:2725   */\n  jump(tag_83)\ntag_85:\n    /* \"#utility.yul\":2759:2760   */\n  0x00\n    /* \"#utility.yul\":2750:2756   */\n  dup5\n    /* \"#utility.yul\":2745:2748   */\n  dup5\n    /* \"#utility.yul\":2741:2757   */\n  add\n    /* \"#utility.yul\":2734:2761   */\n  mstore\n    /* \"#utility.yul\":2583:2767   */\n  pop\n    /* \"#utility.yul\":2521:2767   */\n  pop\n  pop\n  pop\n  jump\t// out\n    /* \"#utility.yul\":2773:3207   */\ntag_29:\n    /* \"#utility.yul\":2862:2867   */\n  0x00\n    /* \"#utility.yul\":2887:2953   */\n  tag_87\n    /* \"#utility.yul\":2903:2952   */\n  tag_88\n    /* \"#utility.yul\":2945:2951   */\n  dup5\n    /* \"#utility.yul\":2903:2952   */\n  tag_27\n  jump\t// in\ntag_88:\n    /* \"#utility.yul\":2887:2953   */\n  tag_26\n  jump\t// in\ntag_87:\n    /* \"#utility.yul\":2878:2953   */\n  swap1\n  pop\n    /* \"#utility.yul\":2976:2982   */\n  dup3\n    /* \"#utility.yul\":2969:2974   */\n  dup2\n    /* \"#utility.yul\":2962:2983   */\n  mstore\n    /* \"#utility.yul\":3014:3018   */\n  0x20\n    /* \"#utility.yul\":3007:3012   */\n  dup2\n    /* \"#utility.yul\":3003:3019   */\n  add\n    /* \"#utility.yul\":3052:3055   */\n  dup5\n    /* \"#utility.yul\":3043:3049   */\n  dup5\n    /* \"#utility.yul\":3038:3041   */\n  dup5\n    /* \"#utility.yul\":3034:3050   */\n  add\n    /* \"#utility.yul\":3031:3056   */\n  gt\n    /* \"#utility.yul\":3028:3140   */\n  iszero\n  tag_89\n  jumpi\n    /* \"#utility.yul\":3059:3138   */\n  tag_90\n  tag_22\n  jump\t// in\ntag_90:\n    /* \"#utility.yul\":3028:3140   */\ntag_89:\n    /* \"#utility.yul\":3149:3201   */\n  tag_91\n    /* \"#utility.yul\":3194:3200   */\n  dup5\n    /* \"#utility.yul\":3189:3192   */\n  dup3\n    /* \"#utility.yul\":3184:3187   */\n  dup6\n    /* \"#utility.yul\":3149:3201   */\n  tag_28\n  jump\t// in\ntag_91:\n    /* \"#utility.yul\":2868:3207   */\n  pop\n    /* \"#utility.yul\":2773:3207   */\n  swap4\n  swap3\n  pop\n  pop\n  pop\n  jump\t// out\n    /* \"#utility.yul\":3227:3582   */\ntag_30:\n    /* \"#utility.yul\":3294:3299   */\n  0x00\n    /* \"#utility.yul\":3343:3346   */\n  dup3\n    /* \"#utility.yul\":3336:3340   */\n  0x1f\n    /* \"#utility.yul\":3328:3334   */\n  dup4\n    /* \"#utility.yul\":3324:3341   */\n  add\n    /* \"#utility.yul\":3320:3347   */\n  slt\n    /* \"#utility.yul\":3310:3432   */\n  tag_93\n  jumpi\n    /* \"#utility.yul\":3351:3430   */\n  tag_94\n  tag_21\n  jump\t// in\ntag_94:\n    /* \"#utility.yul\":3310:3432   */\ntag_93:\n    /* \"#utility.yul\":3461:3467   */\n  dup2\n    /* \"#utility.yul\":3455:3468   */\n  mload\n    /* \"#utility.yul\":3486:3576   */\n  tag_95\n    /* \"#utility.yul\":3572:3575   */\n  dup5\n    /* \"#utility.yul\":3564:3570   */\n  dup3\n    /* \"#utility.yul\":3557:3561   */\n  0x20\n    /* \"#utility.yul\":3549:3555   */\n  dup7\n    /* \"#utility.yul\":3545:3562   */\n  add\n    /* \"#utility.yul\":3486:3576   */\n  tag_29\n  jump\t// in\ntag_95:\n    /* \"#utility.yul\":3477:3576   */\n  swap2\n  pop\n    /* \"#utility.yul\":3300:3582   */\n  pop\n    /* \"#utility.yul\":3227:3582   */\n  swap3\n  swap2\n  pop\n  pop\n  jump\t// out\n    /* \"#utility.yul\":3588:5257   */\ntag_3:\n    /* \"#utility.yul\":3741:3747   */\n  0x00\n    /* \"#utility.yul\":3749:3755   */\n  dup1\n    /* \"#utility.yul\":3757:3763   */\n  0x00\n    /* \"#utility.yul\":3765:3771   */\n  dup1\n    /* \"#utility.yul\":3773:3779   */\n  0x00\n    /* \"#utility.yul\":3781:3787   */\n  dup1\n    /* \"#utility.yul\":3830:3833   */\n  0xc0\n    /* \"#utility.yul\":3818:3827   */\n  dup8\n    /* \"#utility.yul\":3809:3816   */\n  dup10\n    /* \"#utility.yul\":3805:3828   */\n  sub\n    /* \"#utility.yul\":3801:3834   */\n  slt\n    /* \"#utility.yul\":3798:3918   */\n  iszero\n  tag_97\n  jumpi\n    /* \"#utility.yul\":3837:3916   */\n  tag_98\n  tag_12\n  jump\t// in\ntag_98:\n    /* \"#utility.yul\":3798:3918   */\ntag_97:\n    /* \"#utility.yul\":3957:3958   */\n  0x00\n    /* \"#utility.yul\":3982:4046   */\n  tag_99\n    /* \"#utility.yul\":4038:4045   */\n  dup10\n    /* \"#utility.yul\":4029:4035   */\n  dup3\n    /* \"#utility.yul\":4018:4027   */\n  dup11\n    /* \"#utility.yul\":4014:4036   */\n  add\n    /* \"#utility.yul\":3982:4046   */\n  tag_16\n  jump\t// in\ntag_99:\n    /* \"#utility.yul\":3972:4046   */\n  swap7\n  pop\n    /* \"#utility.yul\":3928:4056   */\n  pop\n    /* \"#utility.yul\":4095:4097   */\n  0x20\n    /* \"#utility.yul\":4121:4193   */\n  tag_100\n    /* \"#utility.yul\":4185:4192   */\n  dup10\n    /* \"#utility.yul\":4176:4182   */\n  dup3\n    /* \"#utility.yul\":4165:4174   */\n  dup11\n    /* \"#utility.yul\":4161:4183   */\n  add\n    /* \"#utility.yul\":4121:4193   */\n  tag_20\n  jump\t// in\ntag_100:\n    /* \"#utility.yul\":4111:4193   */\n  swap6\n  pop\n    /* \"#utility.yul\":4066:4203   */\n  pop\n    /* \"#utility.yul\":4263:4265   */\n  0x40\n    /* \"#utility.yul\":4252:4261   */\n  dup8\n    /* \"#utility.yul\":4248:4266   */\n  add\n    /* \"#utility.yul\":4242:4267   */\n  mload\n    /* \"#utility.yul\":4294:4312   */\n  0xffffffffffffffff\n    /* \"#utility.yul\":4286:4292   */\n  dup2\n    /* \"#utility.yul\":4283:4313   */\n  gt\n    /* \"#utility.yul\":4280:4397   */\n  iszero\n  tag_101\n  jumpi\n    /* \"#utility.yul\":4316:4395   */\n  tag_102\n  tag_13\n  jump\t// in\ntag_102:\n    /* \"#utility.yul\":4280:4397   */\ntag_101:\n    /* \"#utility.yul\":4421:4495   */\n  tag_103\n    /* \"#utility.yul\":4487:4494   */\n  dup10\n    /* \"#utility.yul\":4478:4484   */\n  dup3\n    /* \"#utility.yul\":4467:4476   */\n  dup11\n    /* \"#utility.yul\":4463:4485   */\n  add\n    /* \"#utility.yul\":4421:4495   */\n  tag_30\n  jump\t// in\ntag_103:\n    /* \"#utility.yul\":4411:4495   */\n  swap5\n  pop\n    /* \"#utility.yul\":4213:4505   */\n  pop\n    /* \"#utility.yul\":4565:4567   */\n  0x60\n    /* \"#utility.yul\":4554:4563   */\n  dup8\n    /* \"#utility.yul\":4550:4568   */\n  add\n    /* \"#utility.yul\":4544:4569   */\n  mload\n    /* \"#utility.yul\":4596:4614   */\n  0xffffffffffffffff\n    /* \"#utility.yul\":4588:4594   */\n  dup2\n    /* \"#utility.yul\":4585:4615   */\n  gt\n    /* \"#utility.yul\":4582:4699   */\n  iszero\n  tag_104\n  jumpi\n    /* \"#utility.yul\":4618:4697   */\n  tag_105\n  tag_13\n  jump\t// in\ntag_105:\n    /* \"#utility.yul\":4582:4699   */\ntag_104:\n    /* \"#utility.yul\":4723:4797   */\n  tag_106\n    /* \"#utility.yul\":4789:4796   */\n  dup10\n    /* \"#utility.yul\":4780:4786   */\n  dup3\n    /* \"#utility.yul\":4769:4778   */\n  dup11\n    /* \"#utility.yul\":4765:4787   */\n  add\n    /* \"#utility.yul\":4723:4797   */\n  tag_30\n  jump\t// in\ntag_106:\n    /* \"#utility.yul\":4713:4797   */\n  swap4\n  pop\n    /* \"#utility.yul\":4515:4807   */\n  pop\n    /* \"#utility.yul\":4867:4870   */\n  0x80\n    /* \"#utility.yul\":4856:4865   */\n  dup8\n    /* \"#utility.yul\":4852:4871   */\n  add\n    /* \"#utility.yul\":4846:4872   */\n  mload\n    /* \"#utility.yul\":4899:4917   */\n  0xffffffffffffffff\n    /* \"#utility.yul\":4891:4897   */\n  dup2\n    /* \"#utility.yul\":4888:4918   */\n  gt\n    /* \"#utility.yul\":4885:5002   */\n  iszero\n  tag_107\n  jumpi\n    /* \"#utility.yul\":4921:5000   */\n  tag_108\n  tag_13\n  jump\t// in\ntag_108:\n    /* \"#utility.yul\":4885:5002   */\ntag_107:\n    /* \"#utility.yul\":5026:5100   */\n  tag_109\n    /* \"#utility.yul\":5092:5099   */\n  dup10\n    /* \"#utility.yul\":5083:5089   */\n  dup3\n    /* \"#utility.yul\":5072:5081   */\n  dup11\n    /* \"#utility.yul\":5068:5090   */\n  add\n    /* \"#utility.yul\":5026:5100   */\n  tag_30\n  jump\t// in\ntag_109:\n    /* \"#utility.yul\":5016:5100   */\n  swap3\n  pop\n    /* \"#utility.yul\":4817:5110   */\n  pop\n    /* \"#utility.yul\":5149:5152   */\n  0xa0\n    /* \"#utility.yul\":5176:5240   */\n  tag_110\n    /* \"#utility.yul\":5232:5239   */\n  dup10\n    /* \"#utility.yul\":5223:5229   */\n  dup3\n    /* \"#utility.yul\":5212:5221   */\n  dup11\n    /* \"#utility.yul\":5208:5230   */\n  add\n    /* \"#utility.yul\":5176:5240   */\n  tag_16\n  jump\t// in\ntag_110:\n    /* \"#utility.yul\":5166:5240   */\n  swap2\n  pop\n    /* \"#utility.yul\":5120:5250   */\n  pop\n    /* \"#utility.yul\":3588:5257   */\n  swap3\n  swap6\n  pop\n  swap3\n  swap6\n  pop\n  swap3\n  swap6\n  jump\t// out\n    /* \"#utility.yul\":5263:5362   */\ntag_31:\n    /* \"#utility.yul\":5315:5321   */\n  0x00\n    /* \"#utility.yul\":5349:5354   */\n  dup2\n    /* \"#utility.yul\":5343:5355   */\n  mload\n    /* \"#utility.yul\":5333:5355   */\n  swap1\n  pop\n    /* \"#utility.yul\":5263:5362   */\n  swap2\n  swap1\n  pop\n  jump\t// out\n    /* \"#utility.yul\":5368:5548   */\ntag_32:\n    /* \"#utility.yul\":5416:5493   */\n  0x4e487b7100000000000000000000000000000000000000000000000000000000\n    /* \"#utility.yul\":5413:5414   */\n  0x00\n    /* \"#utility.yul\":5406:5494   */\n  mstore\n    /* \"#utility.yul\":5513:5517   */\n  0x22\n    /* \"#utility.yul\":5510:5511   */\n  0x04\n    /* \"#utility.yul\":5503:5518   */\n  mstore\n    /* \"#utility.yul\":5537:5541   */\n  0x24\n    /* \"#utility.yul\":5534:5535   */\n  0x00\n    /* \"#utility.yul\":5527:5542   */\n  revert\n    /* \"#utility.yul\":5554:5874   */\ntag_33:\n    /* \"#utility.yul\":5598:5604   */\n  0x00\n    /* \"#utility.yul\":5635:5636   */\n  0x02\n    /* \"#utility.yul\":5629:5633   */\n  dup3\n    /* \"#utility.yul\":5625:5637   */\n  div\n    /* \"#utility.yul\":5615:5637   */\n  swap1\n  pop\n    /* \"#utility.yul\":5682:5683   */\n  0x01\n    /* \"#utility.yul\":5676:5680   */\n  dup3\n    /* \"#utility.yul\":5672:5684   */\n  and\n    /* \"#utility.yul\":5703:5721   */\n  dup1\n    /* \"#utility.yul\":5693:5774   */\n  tag_114\n  jumpi\n    /* \"#utility.yul\":5759:5763   */\n  0x7f\n    /* \"#utility.yul\":5751:5757   */\n  dup3\n    /* \"#utility.yul\":5747:5764   */\n  and\n    /* \"#utility.yul\":5737:5764   */\n  swap2\n  pop\n    /* \"#utility.yul\":5693:5774   */\ntag_114:\n    /* \"#utility.yul\":5821:5823   */\n  0x20\n    /* \"#utility.yul\":5813:5819   */\n  dup3\n    /* \"#utility.yul\":5810:5824   */\n  lt\n    /* \"#utility.yul\":5790:5808   */\n  dup2\n    /* \"#utility.yul\":5787:5825   */\n  sub\n    /* \"#utility.yul\":5784:5868   */\n  tag_115\n  jumpi\n    /* \"#utility.yul\":5840:5858   */\n  tag_116\n  tag_32\n  jump\t// in\ntag_116:\n    /* \"#utility.yul\":5784:5868   */\ntag_115:\n    /* \"#utility.yul\":5605:5874   */\n  pop\n    /* \"#utility.yul\":5554:5874   */\n  swap2\n  swap1\n  pop\n  jump\t// out\n    /* \"#utility.yul\":5880:6021   */\ntag_34:\n    /* \"#utility.yul\":5929:5933   */\n  0x00\n    /* \"#utility.yul\":5952:5955   */\n  dup2\n    /* \"#utility.yul\":5944:5955   */\n  swap1\n  pop\n    /* \"#utility.yul\":5975:5978   */\n  dup2\n    /* \"#utility.yul\":5972:5973   */\n  0x00\n    /* \"#utility.yul\":5965:5979   */\n  mstore\n    /* \"#utility.yul\":6009:6013   */\n  0x20\n    /* \"#utility.yul\":6006:6007   */\n  0x00\n    /* \"#utility.yul\":5996:6014   */\n  keccak256\n    /* \"#utility.yul\":5988:6014   */\n  swap1\n  pop\n    /* \"#utility.yul\":5880:6021   */\n  swap2\n  swap1\n  pop\n  jump\t// out\n    /* \"#utility.yul\":6027:6120   */\ntag_35:\n    /* \"#utility.yul\":6064:6070   */\n  0x00\n    /* \"#utility.yul\":6111:6113   */\n  0x20\n    /* \"#utility.yul\":6106:6108   */\n  0x1f\n    /* \"#utility.yul\":6099:6104   */\n  dup4\n    /* \"#utility.yul\":6095:6109   */\n  add\n    /* \"#utility.yul\":6091:6114   */\n  div\n    /* \"#utility.yul\":6081:6114   */\n  swap1\n  pop\n    /* \"#utility.yul\":6027:6120   */\n  swap2\n  swap1\n  pop\n  jump\t// out\n    /* \"#utility.yul\":6126:6233   */\ntag_36:\n    /* \"#utility.yul\":6170:6178   */\n  0x00\n    /* \"#utility.yul\":6220:6225   */\n  dup3\n    /* \"#utility.yul\":6214:6218   */\n  dup3\n    /* \"#utility.yul\":6210:6226   */\n  shl\n    /* \"#utility.yul\":6189:6226   */\n  swap1\n  pop\n    /* \"#utility.yul\":6126:6233   */\n  swap3\n  swap2\n  pop\n  pop\n  jump\t// out\n    /* \"#utility.yul\":6239:6632   */\ntag_37:\n    /* \"#utility.yul\":6308:6314   */\n  0x00\n    /* \"#utility.yul\":6358:6359   */\n  0x08\n    /* \"#utility.yul\":6346:6356   */\n  dup4\n    /* \"#utility.yul\":6342:6360   */\n  mul\n    /* \"#utility.yul\":6381:6478   */\n  tag_121\n    /* \"#utility.yul\":6411:6477   */\n  0xffffffffffffffffffffffffffffffffffffffffffffffffffffffffffffffff\n    /* \"#utility.yul\":6400:6409   */\n  dup3\n    /* \"#utility.yul\":6381:6478   */\n  tag_36\n  jump\t// in\ntag_121:\n    /* \"#utility.yul\":6499:6538   */\n  tag_122\n    /* \"#utility.yul\":6529:6537   */\n  dup7\n    /* \"#utility.yul\":6518:6527   */\n  dup4\n    /* \"#utility.yul\":6499:6538   */\n  tag_36\n  jump\t// in\ntag_122:\n    /* \"#utility.yul\":6487:6538   */\n  swap6\n  pop\n    /* \"#utility.yul\":6571:6575   */\n  dup1\n    /* \"#utility.yul\":6567:6576   */\n  not\n    /* \"#utility.yul\":6560:6565   */\n  dup5\n    /* \"#utility.yul\":6556:6577   */\n  and\n    /* \"#utility.yul\":6547:6577   */\n  swap4\n  pop\n    /* \"#utility.yul\":6620:6624   */\n  dup1\n    /* \"#utility.yul\":6610:6618   */\n  dup7\n    /* \"#utility.yul\":6606:6625   */\n  and\n    /* \"#utility.yul\":6599:6604   */\n  dup5\n    /* \"#utility.yul\":6596:6626   */\n  or\n    /* \"#utility.yul\":6586:6626   */\n  swap3\n  pop\n    /* \"#utility.yul\":6315:6632   */\n  pop\n  pop\n    /* \"#utility.yul\":6239:6632   */\n  swap4\n  swap3\n  pop\n  pop\n  pop\n  jump\t// out\n    /* \"#utility.yul\":6638:6698   */\ntag_38:\n    /* \"#utility.yul\":6666:6669   */\n  0x00\n    /* \"#utility.yul\":6687:6692   */\n  dup2\n    /* \"#utility.yul\":6680:6692   */\n  swap1\n  pop\n    /* \"#utility.yul\":6638:6698   */\n  swap2\n  swap1\n  pop\n  jump\t// out\n    /* \"#utility.yul\":6704:6846   */\ntag_39:\n    /* \"#utility.yul\":6754:6763   */\n  0x00\n    /* \"#utility.yul\":6787:6840   */\n  tag_125\n    /* \"#utility.yul\":6805:6839   */\n  tag_126\n    /* \"#utility.yul\":6814:6838   */\n  tag_127\n    /* \"#utility.yul\":6832:6837   */\n  dup5\n    /* \"#utility.yul\":6814:6838   */\n  tag_14\n  jump\t// in\ntag_127:\n    /* \"#utility.yul\":6805:6839   */\n  tag_38\n  jump\t// in\ntag_126:\n    /* \"#utility.yul\":6787:6840   */\n  tag_14\n  jump\t// in\ntag_125:\n    /* \"#utility.yul\":6774:6840   */\n  swap1\n  pop\n    /* \"#utility.yul\":6704:6846   */\n  swap2\n  swap1\n  pop\n  jump\t// out\n    /* \"#utility.yul\":6852:6927   */\ntag_40:\n    /* \"#utility.yul\":6895:6898   */\n  0x00\n    /* \"#utility.yul\":6916:6921   */\n  dup2\n    /* \"#utility.yul\":6909:6921   */\n  swap1\n  pop\n    /* \"#utility.yul\":6852:6927   */\n  swap2\n  swap1\n  pop\n  jump\t// out\n    /* \"#utility.yul\":6933:7202   */\ntag_41:\n    /* \"#utility.yul\":7043:7082   */\n  tag_130\n    /* \"#utility.yul\":7074:7081   */\n  dup4\n    /* \"#utility.yul\":7043:7082   */\n  tag_39\n  jump\t// in\ntag_130:\n    /* \"#utility.yul\":7104:7195   */\n  tag_131\n    /* \"#utility.yul\":7153:7194   */\n  tag_132\n    /* \"#utility.yul\":7177:7193   */\n  dup3\n    /* \"#utility.yul\":7153:7194   */\n  tag_40\n  jump\t// in\ntag_132:\n    /* \"#utility.yul\":7145:7151   */\n  dup5\n    /* \"#utility.yul\":7138:7142   */\n  dup5\n    /* \"#utility.yul\":7132:7143   */\n  sload\n    /* \"#utility.yul\":7104:7195   */\n  tag_37\n  jump\t// in\ntag_131:\n    /* \"#utility.yul\":7098:7102   */\n  dup3\n    /* \"#utility.yul\":7091:7196   */\n  sstore\n    /* \"#utility.yul\":7009:7202   */\n  pop\n    /* \"#utility.yul\":6933:7202   */\n  pop\n  pop\n  pop\n  jump\t// out\n    /* \"#utility.yul\":7208:7281   */\ntag_42:\n    /* \"#utility.yul\":7253:7256   */\n  0x00\n    /* \"#utility.yul\":7208:7281   */\n  swap1\n  jump\t// out\n    /* \"#utility.yul\":7287:7476   */\ntag_43:\n    /* \"#utility.yul\":7364:7396   */\n  tag_135\n  tag_42\n  jump\t// in\ntag_135:\n    /* \"#utility.yul\":7405:7470   */\n  tag_136\n    /* \"#utility.yul\":7463:7469   */\n  dup2\n    /* \"#utility.yul\":7455:7461   */\n  dup5\n    /* \"#utility.yul\":7449:7453   */\n  dup5\n    /* \"#utility.yul\":7405:7470   */\n  tag_41\n  jump\t// in\ntag_136:\n    /* \"#utility.yul\":7340:7476   */\n  pop\n    /* \"#utility.yul\":7287:7476   */\n  pop\n  pop\n  jump\t// out\n    /* \"#utility.yul\":7482:7668   */\ntag_44:\n    /* \"#utility.yul\":7542:7662   */\ntag_138:\n    /* \"#utility.yul\":7559:7562   */\n  dup2\n    /* \"#utility.yul\":7552:7557   */\n  dup2\n    /* \"#utility.yul\":7549:7563   */\n  lt\n    /* \"#utility.yul\":7542:7662   */\n  iszero\n  tag_140\n  jumpi\n    /* \"#utility.yul\":7613:7652   */\n  tag_141\n    /* \"#utility.yul\":7650:7651   */\n  0x00\n    /* \"#utility.yul\":7643:7648   */\n  dup3\n    /* \"#utility.yul\":7613:7652   */\n  tag_43\n  jump\t// in\ntag_141:\n    /* \"#utility.yul\":7586:7587   */\n  0x01\n    /* \"#utility.yul\":7579:7584   */\n  dup2\n    /* \"#utility.yul\":7575:7588   */\n  add\n    /* \"#utility.yul\":7566:7588   */\n  swap1\n  pop\n    /* \"#utility.yul\":7542:7662   */\n  jump(tag_138)\ntag_140:\n    /* \"#utility.yul\":7482:7668   */\n  pop\n  pop\n  jump\t// out\n    /* \"#utility.yul\":7674:8217   */\ntag_45:\n    /* \"#utility.yul\":7775:7777   */\n  0x1f\n    /* \"#utility.yul\":7770:7773   */\n  dup3\n    /* \"#utility.yul\":7767:7778   */\n  gt\n    /* \"#utility.yul\":7764:8210   */\n  iszero\n  tag_143\n  jumpi\n    /* \"#utility.yul\":7809:7847   */\n  tag_144\n    /* \"#utility.yul\":7841:7846   */\n  dup2\n    /* \"#utility.yul\":7809:7847   */\n  tag_34\n  jump\t// in\ntag_144:\n    /* \"#utility.yul\":7893:7922   */\n  tag_145\n    /* \"#utility.yul\":7911:7921   */\n  dup5\n    /* \"#utility.yul\":7893:7922   */\n  tag_35\n  jump\t// in\ntag_145:\n    /* \"#utility.yul\":7883:7891   */\n  dup2\n    /* \"#utility.yul\":7879:7923   */\n  add\n    /* \"#utility.yul\":8076:8078   */\n  0x20\n    /* \"#utility.yul\":8064:8074   */\n  dup6\n    /* \"#utility.yul\":8061:8079   */\n  lt\n    /* \"#utility.yul\":8058:8107   */\n  iszero\n  tag_146\n  jumpi\n    /* \"#utility.yul\":8097:8105   */\n  dup2\n    /* \"#utility.yul\":8082:8105   */\n  swap1\n  pop\n    /* \"#utility.yul\":8058:8107   */\ntag_146:\n    /* \"#utility.yul\":8120:8200   */\n  tag_147\n    /* \"#utility.yul\":8176:8198   */\n  tag_148\n    /* \"#utility.yul\":8194:8197   */\n  dup6\n    /* \"#utility.yul\":8176:8198   */\n  tag_35\n  jump\t// in\ntag_148:\n    /* \"#utility.yul\":8166:8174   */\n  dup4\n    /* \"#utility.yul\":8162:8199   */\n  add\n    /* \"#utility.yul\":8149:8160   */\n  dup3\n    /* \"#utility.yul\":8120:8200   */\n  tag_44\n  jump\t// in\ntag_147:\n    /* \"#utility.yul\":7779:8210   */\n  pop\n  pop\n    /* \"#utility.yul\":7764:8210   */\ntag_143:\n    /* \"#utility.yul\":7674:8217   */\n  pop\n  pop\n  pop\n  jump\t// out\n    /* \"#utility.yul\":8223:8340   */\ntag_46:\n    /* \"#utility.yul\":8277:8285   */\n  0x00\n    /* \"#utility.yul\":8327:8332   */\n  dup3\n    /* \"#utility.yul\":8321:8325   */\n  dup3\n    /* \"#utility.yul\":8317:8333   */\n  shr\n    /* \"#utility.yul\":8296:8333   */\n  swap1\n  pop\n    /* \"#utility.yul\":8223:8340   */\n  swap3\n  swap2\n  pop\n  pop\n  jump\t// out\n    /* \"#utility.yul\":8346:8515   */\ntag_47:\n    /* \"#utility.yul\":8390:8396   */\n  0x00\n    /* \"#utility.yul\":8423:8474   */\n  tag_151\n    /* \"#utility.yul\":8471:8472   */\n  0x00\n    /* \"#utility.yul\":8467:8473   */\n  not\n    /* \"#utility.yul\":8459:8464   */\n  dup5\n    /* \"#utility.yul\":8456:8457   */\n  0x08\n    /* \"#utility.yul\":8452:8465   */\n  mul\n    /* \"#utility.yul\":8423:8474   */\n  tag_46\n  jump\t// in\ntag_151:\n    /* \"#utility.yul\":8419:8475   */\n  not\n    /* \"#utility.yul\":8504:8508   */\n  dup1\n    /* \"#utility.yul\":8498:8502   */\n  dup4\n    /* \"#utility.yul\":8494:8509   */\n  and\n    /* \"#utility.yul\":8484:8509   */\n  swap2\n  pop\n    /* \"#utility.yul\":8397:8515   */\n  pop\n    /* \"#utility.yul\":8346:8515   */\n  swap3\n  swap2\n  pop\n  pop\n  jump\t// out\n    /* \"#utility.yul\":8520:8815   */\ntag_48:\n    /* \"#utility.yul\":8596:8600   */\n  0x00\n    /* \"#utility.yul\":8742:8771   */\n  tag_153\n    /* \"#utility.yul\":8767:8770   */\n  dup4\n    /* \"#utility.yul\":8761:8765   */\n  dup4\n    /* \"#utility.yul\":8742:8771   */\n  tag_47\n  jump\t// in\ntag_153:\n    /* \"#utility.yul\":8734:8771   */\n  swap2\n  pop\n    /* \"#utility.yul\":8804:8807   */\n  dup3\n    /* \"#utility.yul\":8801:8802   */\n  0x02\n    /* \"#utility.yul\":8797:8808   */\n  mul\n    /* \"#utility.yul\":8791:8795   */\n  dup3\n    /* \"#utility.yul\":8788:8809   */\n  or\n    /* \"#utility.yul\":8780:8809   */\n  swap1\n  pop\n    /* \"#utility.yul\":8520:8815   */\n  swap3\n  swap2\n  pop\n  pop\n  jump\t// out\n    /* \"#utility.yul\":8820:10215   */\ntag_7:\n    /* \"#utility.yul\":8937:8974   */\n  tag_155\n    /* \"#utility.yul\":8970:8973   */\n  dup3\n    /* \"#utility.yul\":8937:8974   */\n  tag_31\n  jump\t// in\ntag_155:\n    /* \"#utility.yul\":9039:9057   */\n  0xffffffffffffffff\n    /* \"#utility.yul\":9031:9037   */\n  dup2\n    /* \"#utility.yul\":9028:9058   */\n  gt\n    /* \"#utility.yul\":9025:9081   */\n  iszero\n  tag_156\n  jumpi\n    /* \"#utility.yul\":9061:9079   */\n  tag_157\n  tag_24\n  jump\t// in\ntag_157:\n    /* \"#utility.yul\":9025:9081   */\ntag_156:\n    /* \"#utility.yul\":9105:9143   */\n  tag_158\n    /* \"#utility.yul\":9137:9141   */\n  dup3\n    /* \"#utility.yul\":9131:9142   */\n  sload\n    /* \"#utility.yul\":9105:9143   */\n  tag_33\n  jump\t// in\ntag_158:\n    /* \"#utility.yul\":9190:9257   */\n  tag_159\n    /* \"#utility.yul\":9250:9256   */\n  dup3\n    /* \"#utility.yul\":9242:9248   */\n  dup3\n    /* \"#utility.yul\":9236:9240   */\n  dup6\n    /* \"#utility.yul\":9190:9257   */\n  tag_45\n  jump\t// in\ntag_159:\n    /* \"#utility.yul\":9284:9285   */\n  0x00\n    /* \"#utility.yul\":9308:9312   */\n  0x20\n    /* \"#utility.yul\":9295:9312   */\n  swap1\n  pop\n    /* \"#utility.yul\":9340:9342   */\n  0x1f\n    /* \"#utility.yul\":9332:9338   */\n  dup4\n    /* \"#utility.yul\":9329:9343   */\n  gt\n    /* \"#utility.yul\":9357:9358   */\n  0x01\n    /* \"#utility.yul\":9352:9970   */\n  dup2\n  eq\n  tag_161\n  jumpi\n    /* \"#utility.yul\":10014:10015   */\n  0x00\n    /* \"#utility.yul\":10031:10037   */\n  dup5\n    /* \"#utility.yul\":10028:10105   */\n  iszero\n  tag_162\n  jumpi\n    /* \"#utility.yul\":10080:10089   */\n  dup3\n    /* \"#utility.yul\":10075:10078   */\n  dup8\n    /* \"#utility.yul\":10071:10090   */\n  add\n    /* \"#utility.yul\":10065:10091   */\n  mload\n    /* \"#utility.yul\":10056:10091   */\n  swap1\n  pop\n    /* \"#utility.yul\":10028:10105   */\ntag_162:\n    /* \"#utility.yul\":10131:10198   */\n  tag_163\n    /* \"#utility.yul\":10191:10197   */\n  dup6\n    /* \"#utility.yul\":10184:10189   */\n  dup3\n    /* \"#utility.yul\":10131:10198   */\n  tag_48\n  jump\t// in\ntag_163:\n    /* \"#utility.yul\":10125:10129   */\n  dup7\n    /* \"#utility.yul\":10118:10199   */\n  sstore\n    /* \"#utility.yul\":9987:10209   */\n  pop\n    /* \"#utility.yul\":9322:10209   */\n  jump(tag_160)\n    /* \"#utility.yul\":9352:9970   */\ntag_161:\n    /* \"#utility.yul\":9404:9408   */\n  0x1f\n    /* \"#utility.yul\":9400:9409   */\n  not\n    /* \"#utility.yul\":9392:9398   */\n  dup5\n    /* \"#utility.yul\":9388:9410   */\n  and\n    /* \"#utility.yul\":9438:9475   */\n  tag_164\n    /* \"#utility.yul\":9470:9474   */\n  dup7\n    /* \"#utility.yul\":9438:9475   */\n  tag_34\n  jump\t// in\ntag_164:\n    /* \"#utility.yul\":9497:9498   */\n  0x00\n    /* \"#utility.yul\":9511:9719   */\ntag_165:\n    /* \"#utility.yul\":9525:9532   */\n  dup3\n    /* \"#utility.yul\":9522:9523   */\n  dup2\n    /* \"#utility.yul\":9519:9533   */\n  lt\n    /* \"#utility.yul\":9511:9719   */\n  iszero\n  tag_167\n  jumpi\n    /* \"#utility.yul\":9604:9613   */\n  dup5\n    /* \"#utility.yul\":9599:9602   */\n  dup10\n    /* \"#utility.yul\":9595:9614   */\n  add\n    /* \"#utility.yul\":9589:9615   */\n  mload\n    /* \"#utility.yul\":9581:9587   */\n  dup3\n    /* \"#utility.yul\":9574:9616   */\n  sstore\n    /* \"#utility.yul\":9655:9656   */\n  0x01\n    /* \"#utility.yul\":9647:9653   */\n  dup3\n    /* \"#utility.yul\":9643:9657   */\n  add\n    /* \"#utility.yul\":9633:9657   */\n  swap2\n  pop\n    /* \"#utility.yul\":9702:9704   */\n  0x20\n    /* \"#utility.yul\":9691:9700   */\n  dup6\n    /* \"#utility.yul\":9687:9705   */\n  add\n    /* \"#utility.yul\":9674:9705   */\n  swap5\n  pop\n    /* \"#utility.yul\":9548:9552   */\n  0x20\n    /* \"#utility.yul\":9545:9546   */\n  dup2\n    /* \"#utility.yul\":9541:9553   */\n  add\n    /* \"#utility.yul\":9536:9553   */\n  swap1\n  pop\n    /* \"#utility.yul\":9511:9719   */\n  jump(tag_165)\ntag_167:\n    /* \"#utility.yul\":9747:9753   */\n  dup7\n    /* \"#utility.yul\":9738:9745   */\n  dup4\n    /* \"#utility.yul\":9735:9754   */\n  lt\n    /* \"#utility.yul\":9732:9911   */\n  iszero\n  tag_168\n  jumpi\n    /* \"#utility.yul\":9805:9814   */\n  dup5\n    /* \"#utility.yul\":9800:9803   */\n  dup10\n    /* \"#utility.yul\":9796:9815   */\n  add\n    /* \"#utility.yul\":9790:9816   */\n  mload\n    /* \"#utility.yul\":9848:9896   */\n  tag_169\n    /* \"#utility.yul\":9890:9894   */\n  0x1f\n    /* \"#utility.yul\":9882:9888   */\n  dup10\n    /* \"#utility.yul\":9878:9895   */\n  and\n    /* \"#utility.yul\":9867:9876   */\n  dup3\n    /* \"#utility.yul\":9848:9896   */\n  tag_47\n  jump\t// in\ntag_169:\n    /* \"#utility.yul\":9840:9846   */\n  dup4\n    /* \"#utility.yul\":9833:9897   */\n  sstore\n    /* \"#utility.yul\":9755:9911   */\n  pop\n    /* \"#utility.yul\":9732:9911   */\ntag_168:\n    /* \"#utility.yul\":9957:9958   */\n  0x01\n    /* \"#utility.yul\":9953:9954   */\n  0x02\n    /* \"#utility.yul\":9945:9951   */\n  dup9\n    /* \"#utility.yul\":9941:9955   */\n  mul\n    /* \"#utility.yul\":9937:9959   */\n  add\n    /* \"#utility.yul\":9931:9935   */\n  dup9\n    /* \"#utility.yul\":9924:9960   */\n  sstore\n    /* \"#utility.yul\":9359:9970   */\n  pop\n  pop\n  pop\n    /* \"#utility.yul\":9322:10209   */\ntag_160:\n  pop\n    /* \"#utility.yul\":8912:10215   */\n  pop\n  pop\n  pop\n    /* \"#utility.yul\":8820:10215   */\n  pop\n  pop\n  jump\t// out\n    /* \"Campaigns.sol\":731:3646  contract Campaign {... */\ntag_10:\n  dataSize(sub_0)\n  dup1\n  dataOffset(sub_0)\n  0x00\n  codecopy\n  0x00\n  return\nstop\n\nsub_0: assembly {\n        /* \"Campaigns.sol\":731:3646  contract Campaign {... */\n      mstore(0x40, 0x80)\n      jumpi(tag_1, lt(calldatasize, 0x04))\n      shr(0xe0, calldataload(0x00))\n      dup1\n      0x82fde093\n      gt\n      tag_18\n      jumpi\n      dup1\n      0xaba83150\n      gt\n      tag_19\n      jumpi\n      dup1\n      0xaba83150\n      eq\n      tag_14\n      jumpi\n      dup1\n      0xb2a87fc3\n      eq\n      tag_15\n      jumpi\n      dup1\n      0xd7d1bbdb\n      eq\n      tag_16\n      jumpi\n      dup1\n      0xea25213f\n      eq\n      tag_17\n      jumpi\n      jump(tag_1)\n    tag_19:\n      dup1\n      0x82fde093\n      eq\n      tag_10\n      jumpi\n      dup1\n      0x8a9cfd55\n      eq\n      tag_11\n      jumpi\n      dup1\n      0x97654a8c\n      eq\n      tag_12\n      jumpi\n      dup1\n      0xa7f33715\n      eq\n      tag_13\n      jumpi\n      jump(tag_1)\n    tag_18:\n      dup1\n      0x4051ddac\n      gt\n      tag_20\n      jumpi\n      dup1\n      0x4051ddac\n      eq\n      tag_6\n      jumpi\n      dup1\n      0x481c6a75\n      eq\n      tag_7\n      jumpi\n      dup1\n      0x7e7cd1b3\n      eq\n      tag_8\n      jumpi\n      dup1\n      0x81d12c58\n      eq\n      tag_9\n      jumpi\n      jump(tag_1)\n    tag_20:\n      dup1\n      0x03441006\n      eq\n      tag_2\n      jumpi\n      dup1\n      0x0a144391\n      eq\n      tag_3\n      jumpi\n      dup1\n      0x1fbed579\n      eq\n      tag_4\n      jumpi\n      dup1\n      0x3410452a\n      eq\n      tag_5\n      jumpi\n    tag_1:\n      0x00\n      dup1\n      revert\n        /* \"Campaigns.sol\":2659:2957  function finalizeRequest(uint256 index) public restricted {... */\n    tag_2:\n      callvalue\n      dup1\n      iszero\n      tag_21\n      jumpi\n      0x00\n      dup1\n      revert\n    tag_21:\n      pop\n      tag_22\n      0x04\n      dup1\n      calldatasize\n      sub\n      dup2\n      add\n      swap1\n      tag_23\n      swap2\n      swap1\n      tag_24\n      jump\t// in\n    tag_23:\n      tag_25\n      jump\t// in\n    tag_22:\n      stop\n        /* \"Campaigns.sol\":1228:1269  mapping(address => bool) public approvers */\n    tag_3:\n      callvalue\n      dup1\n      iszero\n      tag_26\n      jumpi\n      0x00\n      dup1\n      revert\n    tag_26:\n      pop\n      tag_27\n      0x04\n      dup1\n      calldatasize\n      sub\n      dup2\n      add\n      swap1\n      tag_28\n      swap2\n      swap1\n      tag_29\n      jump\t// in\n    tag_28:\n      tag_30\n      jump\t// in\n    tag_27:\n      mload(0x40)\n      tag_31\n      swap2\n      swap1\n      tag_32\n      jump\t// in\n    tag_31:\n      mload(0x40)\n      dup1\n      swap2\n      sub\n      swap1\n      return\n        /* \"Campaigns.sol\":1193:1222  address[] public contributers */\n    tag_4:\n      callvalue\n      dup1\n      iszero\n      tag_33\n      jumpi\n      0x00\n      dup1\n      revert\n    tag_33:\n      pop\n      tag_34\n      0x04\n      dup1\n      calldatasize\n      sub\n      dup2\n      add\n      swap1\n      tag_35\n      swap2\n      swap1\n      tag_24\n      jump\t// in\n    tag_35:\n      tag_36\n      jump\t// in\n    tag_34:\n      mload(0x40)\n      tag_37\n      swap2\n      swap1\n      tag_38\n      jump\t// in\n    tag_37:\n      mload(0x40)\n      dup1\n      swap2\n      sub\n      swap1\n      return\n        /* \"Campaigns.sol\":3547:3644  function getRequestsCount() public view returns (uint256) {... */\n    tag_5:\n      callvalue\n      dup1\n      iszero\n      tag_39\n      jumpi\n      0x00\n      dup1\n      revert\n    tag_39:\n      pop\n      tag_40\n      tag_41\n      jump\t// in\n    tag_40:\n      mload(0x40)\n      tag_42\n      swap2\n      swap1\n      tag_43\n      jump\t// in\n    tag_42:\n      mload(0x40)\n      dup1\n      swap2\n      sub\n      swap1\n      return\n        /* \"Campaigns.sol\":2963:3541  function getSummary()... */\n    tag_6:\n      callvalue\n      dup1\n      iszero\n      tag_44\n      jumpi\n      0x00\n      dup1\n      revert\n    tag_44:\n      pop\n      tag_45\n      tag_46\n      jump\t// in\n    tag_45:\n      mload(0x40)\n      tag_47\n      swap10\n      swap9\n      swap8\n      swap7\n      swap6\n      swap5\n      swap4\n      swap3\n      swap2\n      swap1\n      tag_48\n      jump\t// in\n    tag_47:\n      mload(0x40)\n      dup1\n      swap2\n      sub\n      swap1\n      return\n        /* \"Campaigns.sol\":990:1012  address public manager */\n    tag_7:\n      callvalue\n      dup1\n      iszero\n      tag_49\n      jumpi\n      0x00\n      dup1\n      revert\n    tag_49:\n      pop\n      tag_50\n      tag_51\n      jump\t// in\n    tag_50:\n      mload(0x40)\n      tag_52\n      swap2\n      swap1\n      tag_38\n      jump\t// in\n    tag_52:\n      mload(0x40)\n      dup1\n      swap2\n      sub\n      swap1\n      return\n        /* \"Campaigns.sol\":1058:1084  string public CampaignName */\n    tag_8:\n      callvalue\n      dup1\n      iszero\n      tag_53\n      jumpi\n      0x00\n      dup1\n      revert\n    tag_53:\n      pop\n      tag_54\n      tag_55\n      jump\t// in\n    tag_54:\n      mload(0x40)\n      tag_56\n      swap2\n      swap1\n      tag_57\n      jump\t// in\n    tag_56:\n      mload(0x40)\n      dup1\n      swap2\n      sub\n      swap1\n      return\n        /* \"Campaigns.sol\":959:984  Request[] public requests */\n    tag_9:\n      callvalue\n      dup1\n      iszero\n      tag_58\n      jumpi\n      0x00\n      dup1\n      revert\n    tag_58:\n      pop\n      tag_59\n      0x04\n      dup1\n      calldatasize\n      sub\n      dup2\n      add\n      swap1\n      tag_60\n      swap2\n      swap1\n      tag_24\n      jump\t// in\n    tag_60:\n      tag_61\n      jump\t// in\n    tag_59:\n      mload(0x40)\n      tag_62\n      swap6\n      swap5\n      swap4\n      swap3\n      swap2\n      swap1\n      tag_63\n      jump\t// in\n    tag_62:\n      mload(0x40)\n      dup1\n      swap2\n      sub\n      swap1\n      return\n        /* \"Campaigns.sol\":1275:1304  uint256 public approversCount */\n    tag_10:\n      callvalue\n      dup1\n      iszero\n      tag_64\n      jumpi\n      0x00\n      dup1\n      revert\n    tag_64:\n      pop\n      tag_65\n      tag_66\n      jump\t// in\n    tag_65:\n      mload(0x40)\n      tag_67\n      swap2\n      swap1\n      tag_43\n      jump\t// in\n    tag_67:\n      mload(0x40)\n      dup1\n      swap2\n      sub\n      swap1\n      return\n        /* \"Campaigns.sol\":2003:2401  function createRequest(... */\n    tag_11:\n      callvalue\n      dup1\n      iszero\n      tag_68\n      jumpi\n      0x00\n      dup1\n      revert\n    tag_68:\n      pop\n      tag_69\n      0x04\n      dup1\n      calldatasize\n      sub\n      dup2\n      add\n      swap1\n      tag_70\n      swap2\n      swap1\n      tag_71\n      jump\t// in\n    tag_70:\n      tag_72\n      jump\t// in\n    tag_69:\n      stop\n        /* \"Campaigns.sol\":1090:1123  string public CampaignDescription */\n    tag_12:\n      callvalue\n      dup1\n      iszero\n      tag_73\n      jumpi\n      0x00\n      dup1\n      revert\n    tag_73:\n      pop\n      tag_74\n      tag_75\n      jump\t// in\n    tag_74:\n      mload(0x40)\n      tag_76\n      swap2\n      swap1\n      tag_57\n      jump\t// in\n    tag_76:\n      mload(0x40)\n      dup1\n      swap2\n      sub\n      swap1\n      return\n        /* \"Campaigns.sol\":1018:1052  uint256 public minimunContribution */\n    tag_13:\n      callvalue\n      dup1\n      iszero\n      tag_77\n      jumpi\n      0x00\n      dup1\n      revert\n    tag_77:\n      pop\n      tag_78\n      tag_79\n      jump\t// in\n    tag_78:\n      mload(0x40)\n      tag_80\n      swap2\n      swap1\n      tag_43\n      jump\t// in\n    tag_80:\n      mload(0x40)\n      dup1\n      swap2\n      sub\n      swap1\n      return\n        /* \"Campaigns.sol\":1129:1151  string public imageUrl */\n    tag_14:\n      callvalue\n      dup1\n      iszero\n      tag_81\n      jumpi\n      0x00\n      dup1\n      revert\n    tag_81:\n      pop\n      tag_82\n      tag_83\n      jump\t// in\n    tag_82:\n      mload(0x40)\n      tag_84\n      swap2\n      swap1\n      tag_57\n      jump\t// in\n    tag_84:\n      mload(0x40)\n      dup1\n      swap2\n      sub\n      swap1\n      return\n        /* \"Campaigns.sol\":1157:1187  uint256 public targetToAchieve */\n    tag_15:\n      callvalue\n      dup1\n      iszero\n      tag_85\n      jumpi\n      0x00\n      dup1\n      revert\n    tag_85:\n      pop\n      tag_86\n      tag_87\n      jump\t// in\n    tag_86:\n      mload(0x40)\n      tag_88\n      swap2\n      swap1\n      tag_43\n      jump\t// in\n    tag_88:\n      mload(0x40)\n      dup1\n      swap2\n      sub\n      swap1\n      return\n        /* \"Campaigns.sol\":2407:2653  function approveRequest(uint256 index) public {... */\n    tag_16:\n      callvalue\n      dup1\n      iszero\n      tag_89\n      jumpi\n      0x00\n      dup1\n      revert\n    tag_89:\n      pop\n      tag_90\n      0x04\n      dup1\n      calldatasize\n      sub\n      dup2\n      add\n      swap1\n      tag_91\n      swap2\n      swap1\n      tag_24\n      jump\t// in\n    tag_91:\n      tag_92\n      jump\t// in\n    tag_90:\n      stop\n        /* \"Campaigns.sol\":1800:1997  function contibute() public payable {... */\n    tag_17:\n      tag_93\n      tag_94\n      jump\t// in\n    tag_93:\n      stop\n        /* \"Campaigns.sol\":2659:2957  function finalizeRequest(uint256 index) public restricted {... */\n    tag_25:\n        /* \"Campaigns.sol\":1365:1372  manager */\n      0x01\n      0x00\n      swap1\n      sload\n      swap1\n      0x0100\n      exp\n      swap1\n      div\n      0xffffffffffffffffffffffffffffffffffffffff\n      and\n        /* \"Campaigns.sol\":1351:1372  msg.sender == manager */\n      0xffffffffffffffffffffffffffffffffffffffff\n      and\n        /* \"Campaigns.sol\":1351:1361  msg.sender */\n      caller\n        /* \"Campaigns.sol\":1351:1372  msg.sender == manager */\n      0xffffffffffffffffffffffffffffffffffffffff\n      and\n      eq\n        /* \"Campaigns.sol\":1343:1373  require(msg.sender == manager) */\n      tag_96\n      jumpi\n      0x00\n      dup1\n      revert\n    tag_96:\n        /* \"Campaigns.sol\":2785:2786  2 */\n      0x02\n        /* \"Campaigns.sol\":2768:2782  approversCount */\n      sload(0x09)\n        /* \"Campaigns.sol\":2768:2786  approversCount / 2 */\n      tag_98\n      swap2\n      swap1\n      tag_99\n      jump\t// in\n    tag_98:\n        /* \"Campaigns.sol\":2735:2743  requests */\n      0x00\n        /* \"Campaigns.sol\":2744:2749  index */\n      dup3\n        /* \"Campaigns.sol\":2735:2750  requests[index] */\n      dup2\n      sload\n      dup2\n      lt\n      tag_100\n      jumpi\n      tag_101\n      tag_102\n      jump\t// in\n    tag_101:\n    tag_100:\n      swap1\n      0x00\n      mstore\n      keccak256(0x00, 0x20)\n      swap1\n      0x05\n      mul\n      add\n        /* \"Campaigns.sol\":2735:2764  requests[index].approvalCount */\n      0x03\n      add\n      sload\n        /* \"Campaigns.sol\":2735:2787  requests[index].approvalCount > (approversCount / 2) */\n      gt\n        /* \"Campaigns.sol\":2727:2788  require(requests[index].approvalCount > (approversCount / 2)) */\n      tag_104\n      jumpi\n      0x00\n      dup1\n      revert\n    tag_104:\n        /* \"Campaigns.sol\":2807:2815  requests */\n      0x00\n        /* \"Campaigns.sol\":2816:2821  index */\n      dup2\n        /* \"Campaigns.sol\":2807:2822  requests[index] */\n      dup2\n      sload\n      dup2\n      lt\n      tag_105\n      jumpi\n      tag_106\n      tag_102\n      jump\t// in\n    tag_106:\n    tag_105:\n      swap1\n      0x00\n      mstore\n      keccak256(0x00, 0x20)\n      swap1\n      0x05\n      mul\n      add\n        /* \"Campaigns.sol\":2807:2831  requests[index].complete */\n      0x02\n      add\n      0x14\n      swap1\n      sload\n      swap1\n      0x0100\n      exp\n      swap1\n      div\n      0xff\n      and\n        /* \"Campaigns.sol\":2806:2831  !requests[index].complete */\n      iszero\n        /* \"Campaigns.sol\":2798:2832  require(!requests[index].complete) */\n      tag_108\n      jumpi\n      0x00\n      dup1\n      revert\n    tag_108:\n        /* \"Campaigns.sol\":2851:2859  requests */\n      0x00\n        /* \"Campaigns.sol\":2860:2865  index */\n      dup2\n        /* \"Campaigns.sol\":2851:2866  requests[index] */\n      dup2\n      sload\n      dup2\n      lt\n      tag_109\n      jumpi\n      tag_110\n      tag_102\n      jump\t// in\n    tag_110:\n    tag_109:\n      swap1\n      0x00\n      mstore\n      keccak256(0x00, 0x20)\n      swap1\n      0x05\n      mul\n      add\n        /* \"Campaigns.sol\":2851:2876  requests[index].recipient */\n      0x02\n      add\n      0x00\n      swap1\n      sload\n      swap1\n      0x0100\n      exp\n      swap1\n      div\n      0xffffffffffffffffffffffffffffffffffffffff\n      and\n        /* \"Campaigns.sol\":2843:2886  payable(requests[index].recipient).transfer */\n      0xffffffffffffffffffffffffffffffffffffffff\n      and\n        /* \"Campaigns.sol\":2843:2909  payable(requests[index].recipient).transfer(requests[index].value) */\n      0x08fc\n        /* \"Campaigns.sol\":2887:2895  requests */\n      0x00\n        /* \"Campaigns.sol\":2896:2901  index */\n      dup4\n        /* \"Campaigns.sol\":2887:2902  requests[index] */\n      dup2\n      sload\n      dup2\n      lt\n      tag_112\n      jumpi\n      tag_113\n      tag_102\n      jump\t// in\n    tag_113:\n    tag_112:\n      swap1\n      0x00\n      mstore\n      keccak256(0x00, 0x20)\n      swap1\n      0x05\n      mul\n      add\n        /* \"Campaigns.sol\":2887:2908  requests[index].value */\n      0x01\n      add\n      sload\n        /* \"Campaigns.sol\":2843:2909  payable(requests[index].recipient).transfer(requests[index].value) */\n      swap1\n      dup2\n      iszero\n      mul\n      swap1\n      mload(0x40)\n      0x00\n      mload(0x40)\n      dup1\n      dup4\n      sub\n      dup2\n      dup6\n      dup9\n      dup9\n      call\n      swap4\n      pop\n      pop\n      pop\n      pop\n      iszero\n      dup1\n      iszero\n      tag_116\n      jumpi\n      returndatasize\n      0x00\n      dup1\n      returndatacopy\n      revert(0x00, returndatasize)\n    tag_116:\n      pop\n        /* \"Campaigns.sol\":2946:2950  true */\n      0x01\n        /* \"Campaigns.sol\":2919:2927  requests */\n      0x00\n        /* \"Campaigns.sol\":2928:2933  index */\n      dup3\n        /* \"Campaigns.sol\":2919:2934  requests[index] */\n      dup2\n      sload\n      dup2\n      lt\n      tag_117\n      jumpi\n      tag_118\n      tag_102\n      jump\t// in\n    tag_118:\n    tag_117:\n      swap1\n      0x00\n      mstore\n      keccak256(0x00, 0x20)\n      swap1\n      0x05\n      mul\n      add\n        /* \"Campaigns.sol\":2919:2943  requests[index].complete */\n      0x02\n      add\n      0x14\n        /* \"Campaigns.sol\":2919:2950  requests[index].complete = true */\n      0x0100\n      exp\n      dup2\n      sload\n      dup2\n      0xff\n      mul\n      not\n      and\n      swap1\n      dup4\n      iszero\n      iszero\n      mul\n      or\n      swap1\n      sstore\n      pop\n        /* \"Campaigns.sol\":2659:2957  function finalizeRequest(uint256 index) public restricted {... */\n      pop\n      jump\t// out\n        /* \"Campaigns.sol\":1228:1269  mapping(address => bool) public approvers */\n    tag_30:\n      mstore(0x20, 0x08)\n      dup1\n      0x00\n      mstore\n      keccak256(0x00, 0x40)\n      0x00\n      swap2\n      pop\n      sload\n      swap1\n      0x0100\n      exp\n      swap1\n      div\n      0xff\n      and\n      dup2\n      jump\t// out\n        /* \"Campaigns.sol\":1193:1222  address[] public contributers */\n    tag_36:\n      0x07\n      dup2\n      dup2\n      sload\n      dup2\n      lt\n      tag_120\n      jumpi\n      0x00\n      dup1\n      revert\n    tag_120:\n      swap1\n      0x00\n      mstore\n      keccak256(0x00, 0x20)\n      add\n      0x00\n      swap2\n      pop\n      sload\n      swap1\n      0x0100\n      exp\n      swap1\n      div\n      0xffffffffffffffffffffffffffffffffffffffff\n      and\n      dup2\n      jump\t// out\n        /* \"Campaigns.sol\":3547:3644  function getRequestsCount() public view returns (uint256) {... */\n    tag_41:\n        /* \"Campaigns.sol\":3596:3603  uint256 */\n      0x00\n        /* \"Campaigns.sol\":3622:3630  requests */\n      dup1\n        /* \"Campaigns.sol\":3622:3637  requests.length */\n      dup1\n      sload\n      swap1\n      pop\n        /* \"Campaigns.sol\":3615:3637  return requests.length */\n      swap1\n      pop\n        /* \"Campaigns.sol\":3547:3644  function getRequestsCount() public view returns (uint256) {... */\n      swap1\n      jump\t// out\n        /* \"Campaigns.sol\":2963:3541  function getSummary()... */\n    tag_46:\n        /* \"Campaigns.sol\":3043:3050  uint256 */\n      0x00\n        /* \"Campaigns.sol\":3064:3071  uint256 */\n      dup1\n        /* \"Campaigns.sol\":3085:3092  uint256 */\n      0x00\n        /* \"Campaigns.sol\":3106:3113  uint256 */\n      dup1\n        /* \"Campaigns.sol\":3127:3134  address */\n      0x00\n        /* \"Campaigns.sol\":3148:3161  string memory */\n      0x60\n        /* \"Campaigns.sol\":3175:3188  string memory */\n      dup1\n        /* \"Campaigns.sol\":3202:3215  string memory */\n      0x60\n        /* \"Campaigns.sol\":3229:3236  uint256 */\n      0x00\n        /* \"Campaigns.sol\":3282:3301  minimunContribution */\n      sload(0x02)\n        /* \"Campaigns.sol\":3315:3336  address(this).balance */\n      selfbalance\n        /* \"Campaigns.sol\":3350:3358  requests */\n      0x00\n        /* \"Campaigns.sol\":3350:3365  requests.length */\n      dup1\n      sload\n      swap1\n      pop\n        /* \"Campaigns.sol\":3379:3393  approversCount */\n      sload(0x09)\n        /* \"Campaigns.sol\":3407:3414  manager */\n      0x01\n      0x00\n      swap1\n      sload\n      swap1\n      0x0100\n      exp\n      swap1\n      div\n      0xffffffffffffffffffffffffffffffffffffffff\n      and\n        /* \"Campaigns.sol\":3428:3440  CampaignName */\n      0x03\n        /* \"Campaigns.sol\":3454:3473  CampaignDescription */\n      0x04\n        /* \"Campaigns.sol\":3487:3495  imageUrl */\n      0x05\n        /* \"Campaigns.sol\":3509:3524  targetToAchieve */\n      sload(0x06)\n        /* \"Campaigns.sol\":3261:3534  return (... */\n      dup4\n      dup1\n      sload\n      tag_124\n      swap1\n      tag_125\n      jump\t// in\n    tag_124:\n      dup1\n      0x1f\n      add\n      0x20\n      dup1\n      swap2\n      div\n      mul\n      0x20\n      add\n      mload(0x40)\n      swap1\n      dup2\n      add\n      0x40\n      mstore\n      dup1\n      swap3\n      swap2\n      swap1\n      dup2\n      dup2\n      mstore\n      0x20\n      add\n      dup3\n      dup1\n      sload\n      tag_126\n      swap1\n      tag_125\n      jump\t// in\n    tag_126:\n      dup1\n      iszero\n      tag_127\n      jumpi\n      dup1\n      0x1f\n      lt\n      tag_128\n      jumpi\n      0x0100\n      dup1\n      dup4\n      sload\n      div\n      mul\n      dup4\n      mstore\n      swap2\n      0x20\n      add\n      swap2\n      jump(tag_127)\n    tag_128:\n      dup3\n      add\n      swap2\n      swap1\n      0x00\n      mstore\n      keccak256(0x00, 0x20)\n      swap1\n    tag_129:\n      dup2\n      sload\n      dup2\n      mstore\n      swap1\n      0x01\n      add\n      swap1\n      0x20\n      add\n      dup1\n      dup4\n      gt\n      tag_129\n      jumpi\n      dup3\n      swap1\n      sub\n      0x1f\n      and\n      dup3\n      add\n      swap2\n    tag_127:\n      pop\n      pop\n      pop\n      pop\n      pop\n      swap4\n      pop\n      dup3\n      dup1\n      sload\n      tag_130\n      swap1\n      tag_125\n      jump\t// in\n    tag_130:\n      dup1\n      0x1f\n      add\n      0x20\n      dup1\n      swap2\n      div\n      mul\n      0x20\n      add\n      mload(0x40)\n      swap1\n      dup2\n      add\n      0x40\n      mstore\n      dup1\n      swap3\n      swap2\n      swap1\n      dup2\n      dup2\n      mstore\n      0x20\n      add\n      dup3\n      dup1\n      sload\n      tag_131\n      swap1\n      tag_125\n      jump\t// in\n    tag_131:\n      dup1\n      iszero\n      tag_132\n      jumpi\n      dup1\n      0x1f\n      lt\n      tag_133\n      jumpi\n      0x0100\n      dup1\n      dup4\n      sload\n      div\n      mul\n      dup4\n      mstore\n      swap2\n      0x20\n      add\n      swap2\n      jump(tag_132)\n    tag_133:\n      dup3\n      add\n      swap2\n      swap1\n      0x00\n      mstore\n      keccak256(0x00, 0x20)\n      swap1\n    tag_134:\n      dup2\n      sload\n      dup2\n      mstore\n      swap1\n      0x01\n      add\n      swap1\n      0x20\n      add\n      dup1\n      dup4\n      gt\n      tag_134\n      jumpi\n      dup3\n      swap1\n      sub\n      0x1f\n      and\n      dup3\n      add\n      swap2\n    tag_132:\n      pop\n      pop\n      pop\n      pop\n      pop\n      swap3\n      pop\n      dup2\n      dup1\n      sload\n      tag_135\n      swap1\n      tag_125\n      jump\t// in\n    tag_135:\n      dup1\n      0x1f\n      add\n      0x20\n      dup1\n      swap2\n      div\n      mul\n      0x20\n      add\n      mload(0x40)\n      swap1\n      dup2\n      add\n      0x40\n      mstore\n      dup1\n      swap3\n      swap2\n      swap1\n      dup2\n      dup2\n      mstore\n      0x20\n      add\n      dup3\n      dup1\n      sload\n      tag_136\n      swap1\n      tag_125\n      jump\t// in\n    tag_136:\n      dup1\n      iszero\n      tag_137\n      jumpi\n      dup1\n      0x1f\n      lt\n      tag_138\n      jumpi\n      0x0100\n      dup1\n      dup4\n      sload\n      div\n      mul\n      dup4\n      mstore\n      swap2\n      0x20\n      add\n      swap2\n      jump(tag_137)\n    tag_138:\n      dup3\n      add\n      swap2\n      swap1\n      0x00\n      mstore\n      keccak256(0x00, 0x20)\n      swap1\n    tag_139:\n      dup2\n      sload\n      dup2\n      mstore\n      swap1\n      0x01\n      add\n      swap1\n      0x20\n      add\n      dup1\n      dup4\n      gt\n      tag_139\n      jumpi\n      dup3\n      swap1\n      sub\n      0x1f\n      and\n      dup3\n      add\n      swap2\n    tag_137:\n      pop\n      pop\n      pop\n      pop\n      pop\n      swap2\n      pop\n      swap9\n      pop\n      swap9\n      pop\n      swap9\n      pop\n      swap9\n      pop\n      swap9\n      pop\n      swap9\n      pop\n      swap9\n      pop\n      swap9\n      pop\n      swap9\n      pop\n        /* \"Campaigns.sol\":2963:3541  function getSummary()... */\n      swap1\n      swap2\n      swap3\n      swap4\n      swap5\n      swap6\n      swap7\n      swap8\n      swap9\n      jump\t// out\n        /* \"Campaigns.sol\":990:1012  address public manager */\n    tag_51:\n      0x01\n      0x00\n      swap1\n      sload\n      swap1\n      0x0100\n      exp\n      swap1\n      div\n      0xffffffffffffffffffffffffffffffffffffffff\n      and\n      dup2\n      jump\t// out\n        /* \"Campaigns.sol\":1058:1084  string public CampaignName */\n    tag_55:\n      0x03\n      dup1\n      sload\n      tag_140\n      swap1\n      tag_125\n      jump\t// in\n    tag_140:\n      dup1\n      0x1f\n      add\n      0x20\n      dup1\n      swap2\n      div\n      mul\n      0x20\n      add\n      mload(0x40)\n      swap1\n      dup2\n      add\n      0x40\n      mstore\n      dup1\n      swap3\n      swap2\n      swap1\n      dup2\n      dup2\n      mstore\n      0x20\n      add\n      dup3\n      dup1\n      sload\n      tag_141\n      swap1\n      tag_125\n      jump\t// in\n    tag_141:\n      dup1\n      iszero\n      tag_142\n      jumpi\n      dup1\n      0x1f\n      lt\n      tag_143\n      jumpi\n      0x0100\n      dup1\n      dup4\n      sload\n      div\n      mul\n      dup4\n      mstore\n      swap2\n      0x20\n      add\n      swap2\n      jump(tag_142)\n    tag_143:\n      dup3\n      add\n      swap2\n      swap1\n      0x00\n      mstore\n      keccak256(0x00, 0x20)\n      swap1\n    tag_144:\n      dup2\n      sload\n      dup2\n      mstore\n      swap1\n      0x01\n      add\n      swap1\n      0x20\n      add\n      dup1\n      dup4\n      gt\n      tag_144\n      jumpi\n      dup3\n      swap1\n      sub\n      0x1f\n      and\n      dup3\n      add\n      swap2\n    tag_142:\n      pop\n      pop\n      pop\n      pop\n      pop\n      dup2\n      jump\t// out\n        /* \"Campaigns.sol\":959:984  Request[] public requests */\n    tag_61:\n      0x00\n      dup2\n      dup2\n      sload\n      dup2\n      lt\n      tag_145\n      jumpi\n      0x00\n      dup1\n      revert\n    tag_145:\n      swap1\n      0x00\n      mstore\n      keccak256(0x00, 0x20)\n      swap1\n      0x05\n      mul\n      add\n      0x00\n      swap2\n      pop\n      swap1\n      pop\n      dup1\n      0x00\n      add\n      dup1\n      sload\n      tag_147\n      swap1\n      tag_125\n      jump\t// in\n    tag_147:\n      dup1\n      0x1f\n      add\n      0x20\n      dup1\n      swap2\n      div\n      mul\n      0x20\n      add\n      mload(0x40)\n      swap1\n      dup2\n      add\n      0x40\n      mstore\n      dup1\n      swap3\n      swap2\n      swap1\n      dup2\n      dup2\n      mstore\n      0x20\n      add\n      dup3\n      dup1\n      sload\n      tag_148\n      swap1\n      tag_125\n      jump\t// in\n    tag_148:\n      dup1\n      iszero\n      tag_149\n      jumpi\n      dup1\n      0x1f\n      lt\n      tag_150\n      jumpi\n      0x0100\n      dup1\n      dup4\n      sload\n      div\n      mul\n      dup4\n      mstore\n      swap2\n      0x20\n      add\n      swap2\n      jump(tag_149)\n    tag_150:\n      dup3\n      add\n      swap2\n      swap1\n      0x00\n      mstore\n      keccak256(0x00, 0x20)\n      swap1\n    tag_151:\n      dup2\n      sload\n      dup2\n      mstore\n      swap1\n      0x01\n      add\n      swap1\n      0x20\n      add\n      dup1\n      dup4\n      gt\n      tag_151\n      jumpi\n      dup3\n      swap1\n      sub\n      0x1f\n      and\n      dup3\n      add\n      swap2\n    tag_149:\n      pop\n      pop\n      pop\n      pop\n      pop\n      swap1\n      dup1\n      0x01\n      add\n      sload\n      swap1\n      dup1\n      0x02\n      add\n      0x00\n      swap1\n      sload\n      swap1\n      0x0100\n      exp\n      swap1\n      div\n      0xffffffffffffffffffffffffffffffffffffffff\n      and\n      swap1\n      dup1\n      0x02\n      add\n      0x14\n      swap1\n      sload\n      swap1\n      0x0100\n      exp\n      swap1\n      div\n      0xff\n      and\n      swap1\n      dup1\n      0x03\n      add\n      sload\n      swap1\n      pop\n      dup6\n      jump\t// out\n        /* \"Campaigns.sol\":1275:1304  uint256 public approversCount */\n    tag_66:\n      sload(0x09)\n      dup2\n      jump\t// out\n        /* \"Campaigns.sol\":2003:2401  function createRequest(... */\n    tag_72:\n        /* \"Campaigns.sol\":1365:1372  manager */\n      0x01\n      0x00\n      swap1\n      sload\n      swap1\n      0x0100\n      exp\n      swap1\n      div\n      0xffffffffffffffffffffffffffffffffffffffff\n      and\n        /* \"Campaigns.sol\":1351:1372  msg.sender == manager */\n      0xffffffffffffffffffffffffffffffffffffffff\n      and\n        /* \"Campaigns.sol\":1351:1361  msg.sender */\n      caller\n        /* \"Campaigns.sol\":1351:1372  msg.sender == manager */\n      0xffffffffffffffffffffffffffffffffffffffff\n      and\n      eq\n        /* \"Campaigns.sol\":1343:1373  require(msg.sender == manager) */\n      tag_153\n      jumpi\n      0x00\n      dup1\n      revert\n    tag_153:\n        /* \"Campaigns.sol\":2153:2179  Request storage newRequest */\n      0x00\n        /* \"Campaigns.sol\":2182:2190  requests */\n      dup1\n        /* \"Campaigns.sol\":2182:2197  requests.push() */\n      0x01\n      dup2\n      0x01\n      dup2\n      sload\n      add\n      dup1\n      dup3\n      sstore\n      dup1\n      swap2\n      pop\n      pop\n      sub\n      swap1\n      0x00\n      mstore\n      keccak256(0x00, 0x20)\n      swap1\n      0x05\n      mul\n      add\n        /* \"Campaigns.sol\":2153:2197  Request storage newRequest = requests.push() */\n      swap1\n      pop\n        /* \"Campaigns.sol\":2232:2243  description */\n      dup4\n        /* \"Campaigns.sol\":2207:2217  newRequest */\n      dup2\n        /* \"Campaigns.sol\":2207:2229  newRequest.description */\n      0x00\n      add\n        /* \"Campaigns.sol\":2207:2243  newRequest.description = description */\n      swap1\n      dup2\n      tag_156\n      swap2\n      swap1\n      tag_157\n      jump\t// in\n    tag_156:\n      pop\n        /* \"Campaigns.sol\":2272:2277  value */\n      dup3\n        /* \"Campaigns.sol\":2253:2263  newRequest */\n      dup2\n        /* \"Campaigns.sol\":2253:2269  newRequest.value */\n      0x01\n      add\n        /* \"Campaigns.sol\":2253:2277  newRequest.value = value */\n      dup2\n      swap1\n      sstore\n      pop\n        /* \"Campaigns.sol\":2310:2319  recipient */\n      dup2\n        /* \"Campaigns.sol\":2287:2297  newRequest */\n      dup2\n        /* \"Campaigns.sol\":2287:2307  newRequest.recipient */\n      0x02\n      add\n      0x00\n        /* \"Campaigns.sol\":2287:2319  newRequest.recipient = recipient */\n      0x0100\n      exp\n      dup2\n      sload\n      dup2\n      0xffffffffffffffffffffffffffffffffffffffff\n      mul\n      not\n      and\n      swap1\n      dup4\n      0xffffffffffffffffffffffffffffffffffffffff\n      and\n      mul\n      or\n      swap1\n      sstore\n      pop\n        /* \"Campaigns.sol\":2351:2356  false */\n      0x00\n        /* \"Campaigns.sol\":2329:2339  newRequest */\n      dup2\n        /* \"Campaigns.sol\":2329:2348  newRequest.complete */\n      0x02\n      add\n      0x14\n        /* \"Campaigns.sol\":2329:2356  newRequest.complete = false */\n      0x0100\n      exp\n      dup2\n      sload\n      dup2\n      0xff\n      mul\n      not\n      and\n      swap1\n      dup4\n      iszero\n      iszero\n      mul\n      or\n      swap1\n      sstore\n      pop\n        /* \"Campaigns.sol\":2393:2394  0 */\n      0x00\n        /* \"Campaigns.sol\":2366:2376  newRequest */\n      dup2\n        /* \"Campaigns.sol\":2366:2390  newRequest.approvalCount */\n      0x03\n      add\n        /* \"Campaigns.sol\":2366:2394  newRequest.approvalCount = 0 */\n      dup2\n      swap1\n      sstore\n      pop\n        /* \"Campaigns.sol\":2143:2401  {... */\n      pop\n        /* \"Campaigns.sol\":2003:2401  function createRequest(... */\n      pop\n      pop\n      pop\n      jump\t// out\n        /* \"Campaigns.sol\":1090:1123  string public CampaignDescription */\n    tag_75:\n      0x04\n      dup1\n      sload\n      tag_158\n      swap1\n      tag_125\n      jump\t// in\n    tag_158:\n      dup1\n      0x1f\n      add\n      0x20\n      dup1\n      swap2\n      div\n      mul\n      0x20\n      add\n      mload(0x40)\n      swap1\n      dup2\n      add\n      0x40\n      mstore\n      dup1\n      swap3\n      swap2\n      swap1\n      dup2\n      dup2\n      mstore\n      0x20\n      add\n      dup3\n      dup1\n      sload\n      tag_159\n      swap1\n      tag_125\n      jump\t// in\n    tag_159:\n      dup1\n      iszero\n      tag_160\n      jumpi\n      dup1\n      0x1f\n      lt\n      tag_161\n      jumpi\n      0x0100\n      dup1\n      dup4\n      sload\n      div\n      mul\n      dup4\n      mstore\n      swap2\n      0x20\n      add\n      swap2\n      jump(tag_160)\n    tag_161:\n      dup3\n      add\n      swap2\n      swap1\n      0x00\n      mstore\n      keccak256(0x00, 0x20)\n      swap1\n    tag_162:\n      dup2\n      sload\n      dup2\n      mstore\n      swap1\n      0x01\n      add\n      swap1\n      0x20\n      add\n      dup1\n      dup4\n      gt\n      tag_162\n      jumpi\n      dup3\n      swap1\n      sub\n      0x1f\n      and\n      dup3\n      add\n      swap2\n    tag_160:\n      pop\n      pop\n      pop\n      pop\n      pop\n      dup2\n      jump\t// out\n        /* \"Campaigns.sol\":1018:1052  uint256 public minimunContribution */\n    tag_79:\n      sload(0x02)\n      dup2\n      jump\t// out\n        /* \"Campaigns.sol\":1129:1151  string public imageUrl */\n    tag_83:\n      0x05\n      dup1\n      sload\n      tag_163\n      swap1\n      tag_125\n      jump\t// in\n    tag_163:\n      dup1\n      0x1f\n      add\n      0x20\n      dup1\n      swap2\n      div\n      mul\n      0x20\n      add\n      mload(0x40)\n      swap1\n      dup2\n      add\n      0x40\n      mstore\n      dup1\n      swap3\n      swap2\n      swap1\n      dup2\n      dup2\n      mstore\n      0x20\n      add\n      dup3\n      dup1\n      sload\n      tag_164\n      swap1\n      tag_125\n      jump\t// in\n    tag_164:\n      dup1\n      iszero\n      tag_165\n      jumpi\n      dup1\n      0x1f\n      lt\n      tag_166\n      jumpi\n      0x0100\n      dup1\n      dup4\n      sload\n      div\n      mul\n      dup4\n      mstore\n      swap2\n      0x20\n      add\n      swap2\n      jump(tag_165)\n    tag_166:\n      dup3\n      add\n      swap2\n      swap1\n      0x00\n      mstore\n      keccak256(0x00, 0x20)\n      swap1\n    tag_167:\n      dup2\n      sload\n      dup2\n      mstore\n      swap1\n      0x01\n      add\n      swap1\n      0x20\n      add\n      dup1\n      dup4\n      gt\n      tag_167\n      jumpi\n      dup3\n      swap1\n      sub\n      0x1f\n      and\n      dup3\n      add\n      swap2\n    tag_165:\n      pop\n      pop\n      pop\n      pop\n      pop\n      dup2\n      jump\t// out\n        /* \"Campaigns.sol\":1157:1187  uint256 public targetToAchieve */\n    tag_87:\n      sload(0x06)\n      dup2\n      jump\t// out\n        /* \"Campaigns.sol\":2407:2653  function approveRequest(uint256 index) public {... */\n    tag_92:\n        /* \"Campaigns.sol\":2471:2480  approvers */\n      0x08\n        /* \"Campaigns.sol\":2471:2492  approvers[msg.sender] */\n      0x00\n        /* \"Campaigns.sol\":2481:2491  msg.sender */\n      caller\n        /* \"Campaigns.sol\":2471:2492  approvers[msg.sender] */\n      0xffffffffffffffffffffffffffffffffffffffff\n      and\n      0xffffffffffffffffffffffffffffffffffffffff\n      and\n      dup2\n      mstore\n      0x20\n      add\n      swap1\n      dup2\n      mstore\n      0x20\n      add\n      0x00\n      keccak256\n      0x00\n      swap1\n      sload\n      swap1\n      0x0100\n      exp\n      swap1\n      div\n      0xff\n      and\n        /* \"Campaigns.sol\":2463:2493  require(approvers[msg.sender]) */\n      tag_169\n      jumpi\n      0x00\n      dup1\n      revert\n    tag_169:\n        /* \"Campaigns.sol\":2512:2520  requests */\n      0x00\n        /* \"Campaigns.sol\":2521:2526  index */\n      dup2\n        /* \"Campaigns.sol\":2512:2527  requests[index] */\n      dup2\n      sload\n      dup2\n      lt\n      tag_170\n      jumpi\n      tag_171\n      tag_102\n      jump\t// in\n    tag_171:\n    tag_170:\n      swap1\n      0x00\n      mstore\n      keccak256(0x00, 0x20)\n      swap1\n      0x05\n      mul\n      add\n        /* \"Campaigns.sol\":2512:2537  requests[index].approvals */\n      0x04\n      add\n        /* \"Campaigns.sol\":2512:2549  requests[index].approvals[msg.sender] */\n      0x00\n        /* \"Campaigns.sol\":2538:2548  msg.sender */\n      caller\n        /* \"Campaigns.sol\":2512:2549  requests[index].approvals[msg.sender] */\n      0xffffffffffffffffffffffffffffffffffffffff\n      and\n      0xffffffffffffffffffffffffffffffffffffffff\n      and\n      dup2\n      mstore\n      0x20\n      add\n      swap1\n      dup2\n      mstore\n      0x20\n      add\n      0x00\n      keccak256\n      0x00\n      swap1\n      sload\n      swap1\n      0x0100\n      exp\n      swap1\n      div\n      0xff\n      and\n        /* \"Campaigns.sol\":2511:2549  !requests[index].approvals[msg.sender] */\n      iszero\n        /* \"Campaigns.sol\":2503:2550  require(!requests[index].approvals[msg.sender]) */\n      tag_173\n      jumpi\n      0x00\n      dup1\n      revert\n    tag_173:\n        /* \"Campaigns.sol\":2601:2605  true */\n      0x01\n        /* \"Campaigns.sol\":2561:2569  requests */\n      0x00\n        /* \"Campaigns.sol\":2570:2575  index */\n      dup3\n        /* \"Campaigns.sol\":2561:2576  requests[index] */\n      dup2\n      sload\n      dup2\n      lt\n      tag_174\n      jumpi\n      tag_175\n      tag_102\n      jump\t// in\n    tag_175:\n    tag_174:\n      swap1\n      0x00\n      mstore\n      keccak256(0x00, 0x20)\n      swap1\n      0x05\n      mul\n      add\n        /* \"Campaigns.sol\":2561:2586  requests[index].approvals */\n      0x04\n      add\n        /* \"Campaigns.sol\":2561:2598  requests[index].approvals[msg.sender] */\n      0x00\n        /* \"Campaigns.sol\":2587:2597  msg.sender */\n      caller\n        /* \"Campaigns.sol\":2561:2598  requests[index].approvals[msg.sender] */\n      0xffffffffffffffffffffffffffffffffffffffff\n      and\n      0xffffffffffffffffffffffffffffffffffffffff\n      and\n      dup2\n      mstore\n      0x20\n      add\n      swap1\n      dup2\n      mstore\n      0x20\n      add\n      0x00\n      keccak256\n      0x00\n        /* \"Campaigns.sol\":2561:2605  requests[index].approvals[msg.sender] = true */\n      0x0100\n      exp\n      dup2\n      sload\n      dup2\n      0xff\n      mul\n      not\n      and\n      swap1\n      dup4\n      iszero\n      iszero\n      mul\n      or\n      swap1\n      sstore\n      pop\n        /* \"Campaigns.sol\":2615:2623  requests */\n      0x00\n        /* \"Campaigns.sol\":2624:2629  index */\n      dup2\n        /* \"Campaigns.sol\":2615:2630  requests[index] */\n      dup2\n      sload\n      dup2\n      lt\n      tag_177\n      jumpi\n      tag_178\n      tag_102\n      jump\t// in\n    tag_178:\n    tag_177:\n      swap1\n      0x00\n      mstore\n      keccak256(0x00, 0x20)\n      swap1\n      0x05\n      mul\n      add\n        /* \"Campaigns.sol\":2615:2644  requests[index].approvalCount */\n      0x03\n      add\n      0x00\n        /* \"Campaigns.sol\":2615:2646  requests[index].approvalCount++ */\n      dup2\n      sload\n      dup1\n      swap3\n      swap2\n      swap1\n      tag_180\n      swap1\n      tag_181\n      jump\t// in\n    tag_180:\n      swap2\n      swap1\n      pop\n      sstore\n      pop\n        /* \"Campaigns.sol\":2407:2653  function approveRequest(uint256 index) public {... */\n      pop\n      jump\t// out\n        /* \"Campaigns.sol\":1800:1997  function contibute() public payable {... */\n    tag_94:\n        /* \"Campaigns.sol\":1866:1885  minimunContribution */\n      sload(0x02)\n        /* \"Campaigns.sol\":1854:1863  msg.value */\n      callvalue\n        /* \"Campaigns.sol\":1854:1885  msg.value > minimunContribution */\n      gt\n        /* \"Campaigns.sol\":1846:1886  require(msg.value > minimunContribution) */\n      tag_183\n      jumpi\n      0x00\n      dup1\n      revert\n    tag_183:\n        /* \"Campaigns.sol\":1897:1909  contributers */\n      0x07\n        /* \"Campaigns.sol\":1915:1925  msg.sender */\n      caller\n        /* \"Campaigns.sol\":1897:1926  contributers.push(msg.sender) */\n      swap1\n      dup1\n      0x01\n      dup2\n      sload\n      add\n      dup1\n      dup3\n      sstore\n      dup1\n      swap2\n      pop\n      pop\n      0x01\n      swap1\n      sub\n      swap1\n      0x00\n      mstore\n      keccak256(0x00, 0x20)\n      add\n      0x00\n      swap1\n      swap2\n      swap1\n      swap2\n      swap1\n      swap2\n      0x0100\n      exp\n      dup2\n      sload\n      dup2\n      0xffffffffffffffffffffffffffffffffffffffff\n      mul\n      not\n      and\n      swap1\n      dup4\n      0xffffffffffffffffffffffffffffffffffffffff\n      and\n      mul\n      or\n      swap1\n      sstore\n      pop\n        /* \"Campaigns.sol\":1960:1964  true */\n      0x01\n        /* \"Campaigns.sol\":1936:1945  approvers */\n      0x08\n        /* \"Campaigns.sol\":1936:1957  approvers[msg.sender] */\n      0x00\n        /* \"Campaigns.sol\":1946:1956  msg.sender */\n      caller\n        /* \"Campaigns.sol\":1936:1957  approvers[msg.sender] */\n      0xffffffffffffffffffffffffffffffffffffffff\n      and\n      0xffffffffffffffffffffffffffffffffffffffff\n      and\n      dup2\n      mstore\n      0x20\n      add\n      swap1\n      dup2\n      mstore\n      0x20\n      add\n      0x00\n      keccak256\n      0x00\n        /* \"Campaigns.sol\":1936:1964  approvers[msg.sender] = true */\n      0x0100\n      exp\n      dup2\n      sload\n      dup2\n      0xff\n      mul\n      not\n      and\n      swap1\n      dup4\n      iszero\n      iszero\n      mul\n      or\n      swap1\n      sstore\n      pop\n        /* \"Campaigns.sol\":1974:1988  approversCount */\n      0x09\n      0x00\n        /* \"Campaigns.sol\":1974:1990  approversCount++ */\n      dup2\n      sload\n      dup1\n      swap3\n      swap2\n      swap1\n      tag_185\n      swap1\n      tag_181\n      jump\t// in\n    tag_185:\n      swap2\n      swap1\n      pop\n      sstore\n      pop\n        /* \"Campaigns.sol\":1800:1997  function contibute() public payable {... */\n      jump\t// out\n        /* \"#utility.yul\":7:82   */\n    tag_186:\n        /* \"#utility.yul\":40:46   */\n      0x00\n        /* \"#utility.yul\":73:75   */\n      0x40\n        /* \"#utility.yul\":67:76   */\n      mload\n        /* \"#utility.yul\":57:76   */\n      swap1\n      pop\n        /* \"#utility.yul\":7:82   */\n      swap1\n      jump\t// out\n        /* \"#utility.yul\":88:205   */\n    tag_187:\n        /* \"#utility.yul\":197:198   */\n      0x00\n        /* \"#utility.yul\":194:195   */\n      dup1\n        /* \"#utility.yul\":187:199   */\n      revert\n        /* \"#utility.yul\":211:328   */\n    tag_188:\n        /* \"#utility.yul\":320:321   */\n      0x00\n        /* \"#utility.yul\":317:318   */\n      dup1\n        /* \"#utility.yul\":310:322   */\n      revert\n        /* \"#utility.yul\":334:411   */\n    tag_189:\n        /* \"#utility.yul\":371:378   */\n      0x00\n        /* \"#utility.yul\":400:405   */\n      dup2\n        /* \"#utility.yul\":389:405   */\n      swap1\n      pop\n        /* \"#utility.yul\":334:411   */\n      swap2\n      swap1\n      pop\n      jump\t// out\n        /* \"#utility.yul\":417:539   */\n    tag_190:\n        /* \"#utility.yul\":490:514   */\n      tag_241\n        /* \"#utility.yul\":508:513   */\n      dup2\n        /* \"#utility.yul\":490:514   */\n      tag_189\n      jump\t// in\n    tag_241:\n        /* \"#utility.yul\":483:488   */\n      dup2\n        /* \"#utility.yul\":480:515   */\n      eq\n        /* \"#utility.yul\":470:533   */\n      tag_242\n      jumpi\n        /* \"#utility.yul\":529:530   */\n      0x00\n        /* \"#utility.yul\":526:527   */\n      dup1\n        /* \"#utility.yul\":519:531   */\n      revert\n        /* \"#utility.yul\":470:533   */\n    tag_242:\n        /* \"#utility.yul\":417:539   */\n      pop\n      jump\t// out\n        /* \"#utility.yul\":545:684   */\n    tag_191:\n        /* \"#utility.yul\":591:596   */\n      0x00\n        /* \"#utility.yul\":629:635   */\n      dup2\n        /* \"#utility.yul\":616:636   */\n      calldataload\n        /* \"#utility.yul\":607:636   */\n      swap1\n      pop\n        /* \"#utility.yul\":645:678   */\n      tag_244\n        /* \"#utility.yul\":672:677   */\n      dup2\n        /* \"#utility.yul\":645:678   */\n      tag_190\n      jump\t// in\n    tag_244:\n        /* \"#utility.yul\":545:684   */\n      swap3\n      swap2\n      pop\n      pop\n      jump\t// out\n        /* \"#utility.yul\":690:1019   */\n    tag_24:\n        /* \"#utility.yul\":749:755   */\n      0x00\n        /* \"#utility.yul\":798:800   */\n      0x20\n        /* \"#utility.yul\":786:795   */\n      dup3\n        /* \"#utility.yul\":777:784   */\n      dup5\n        /* \"#utility.yul\":773:796   */\n      sub\n        /* \"#utility.yul\":769:801   */\n      slt\n        /* \"#utility.yul\":766:885   */\n      iszero\n      tag_246\n      jumpi\n        /* \"#utility.yul\":804:883   */\n      tag_247\n      tag_187\n      jump\t// in\n    tag_247:\n        /* \"#utility.yul\":766:885   */\n    tag_246:\n        /* \"#utility.yul\":924:925   */\n      0x00\n        /* \"#utility.yul\":949:1002   */\n      tag_248\n        /* \"#utility.yul\":994:1001   */\n      dup5\n        /* \"#utility.yul\":985:991   */\n      dup3\n        /* \"#utility.yul\":974:983   */\n      dup6\n        /* \"#utility.yul\":970:992   */\n      add\n        /* \"#utility.yul\":949:1002   */\n      tag_191\n      jump\t// in\n    tag_248:\n        /* \"#utility.yul\":939:1002   */\n      swap2\n      pop\n        /* \"#utility.yul\":895:1012   */\n      pop\n        /* \"#utility.yul\":690:1019   */\n      swap3\n      swap2\n      pop\n      pop\n      jump\t// out\n        /* \"#utility.yul\":1025:1151   */\n    tag_192:\n        /* \"#utility.yul\":1062:1069   */\n      0x00\n        /* \"#utility.yul\":1102:1144   */\n      0xffffffffffffffffffffffffffffffffffffffff\n        /* \"#utility.yul\":1095:1100   */\n      dup3\n        /* \"#utility.yul\":1091:1145   */\n      and\n        /* \"#utility.yul\":1080:1145   */\n      swap1\n      pop\n        /* \"#utility.yul\":1025:1151   */\n      swap2\n      swap1\n      pop\n      jump\t// out\n        /* \"#utility.yul\":1157:1253   */\n    tag_193:\n        /* \"#utility.yul\":1194:1201   */\n      0x00\n        /* \"#utility.yul\":1223:1247   */\n      tag_251\n        /* \"#utility.yul\":1241:1246   */\n      dup3\n        /* \"#utility.yul\":1223:1247   */\n      tag_192\n      jump\t// in\n    tag_251:\n        /* \"#utility.yul\":1212:1247   */\n      swap1\n      pop\n        /* \"#utility.yul\":1157:1253   */\n      swap2\n      swap1\n      pop\n      jump\t// out\n        /* \"#utility.yul\":1259:1381   */\n    tag_194:\n        /* \"#utility.yul\":1332:1356   */\n      tag_253\n        /* \"#utility.yul\":1350:1355   */\n      dup2\n        /* \"#utility.yul\":1332:1356   */\n      tag_193\n      jump\t// in\n    tag_253:\n        /* \"#utility.yul\":1325:1330   */\n      dup2\n        /* \"#utility.yul\":1322:1357   */\n      eq\n        /* \"#utility.yul\":1312:1375   */\n      tag_254\n      jumpi\n        /* \"#utility.yul\":1371:1372   */\n      0x00\n        /* \"#utility.yul\":1368:1369   */\n      dup1\n        /* \"#utility.yul\":1361:1373   */\n      revert\n        /* \"#utility.yul\":1312:1375   */\n    tag_254:\n        /* \"#utility.yul\":1259:1381   */\n      pop\n      jump\t// out\n        /* \"#utility.yul\":1387:1526   */\n    tag_195:\n        /* \"#utility.yul\":1433:1438   */\n      0x00\n        /* \"#utility.yul\":1471:1477   */\n      dup2\n        /* \"#utility.yul\":1458:1478   */\n      calldataload\n        /* \"#utility.yul\":1449:1478   */\n      swap1\n      pop\n        /* \"#utility.yul\":1487:1520   */\n      tag_256\n        /* \"#utility.yul\":1514:1519   */\n      dup2\n        /* \"#utility.yul\":1487:1520   */\n      tag_194\n      jump\t// in\n    tag_256:\n        /* \"#utility.yul\":1387:1526   */\n      swap3\n      swap2\n      pop\n      pop\n      jump\t// out\n        /* \"#utility.yul\":1532:1861   */\n    tag_29:\n        /* \"#utility.yul\":1591:1597   */\n      0x00\n        /* \"#utility.yul\":1640:1642   */\n      0x20\n        /* \"#utility.yul\":1628:1637   */\n      dup3\n        /* \"#utility.yul\":1619:1626   */\n      dup5\n        /* \"#utility.yul\":1615:1638   */\n      sub\n        /* \"#utility.yul\":1611:1643   */\n      slt\n        /* \"#utility.yul\":1608:1727   */\n      iszero\n      tag_258\n      jumpi\n        /* \"#utility.yul\":1646:1725   */\n      tag_259\n      tag_187\n      jump\t// in\n    tag_259:\n        /* \"#utility.yul\":1608:1727   */\n    tag_258:\n        /* \"#utility.yul\":1766:1767   */\n      0x00\n        /* \"#utility.yul\":1791:1844   */\n      tag_260\n        /* \"#utility.yul\":1836:1843   */\n      dup5\n        /* \"#utility.yul\":1827:1833   */\n      dup3\n        /* \"#utility.yul\":1816:1825   */\n      dup6\n        /* \"#utility.yul\":1812:1834   */\n      add\n        /* \"#utility.yul\":1791:1844   */\n      tag_195\n      jump\t// in\n    tag_260:\n        /* \"#utility.yul\":1781:1844   */\n      swap2\n      pop\n        /* \"#utility.yul\":1737:1854   */\n      pop\n        /* \"#utility.yul\":1532:1861   */\n      swap3\n      swap2\n      pop\n      pop\n      jump\t// out\n        /* \"#utility.yul\":1867:1957   */\n    tag_196:\n        /* \"#utility.yul\":1901:1908   */\n      0x00\n        /* \"#utility.yul\":1944:1949   */\n      dup2\n        /* \"#utility.yul\":1937:1950   */\n      iszero\n        /* \"#utility.yul\":1930:1951   */\n      iszero\n        /* \"#utility.yul\":1919:1951   */\n      swap1\n      pop\n        /* \"#utility.yul\":1867:1957   */\n      swap2\n      swap1\n      pop\n      jump\t// out\n        /* \"#utility.yul\":1963:2072   */\n    tag_197:\n        /* \"#utility.yul\":2044:2065   */\n      tag_263\n        /* \"#utility.yul\":2059:2064   */\n      dup2\n        /* \"#utility.yul\":2044:2065   */\n      tag_196\n      jump\t// in\n    tag_263:\n        /* \"#utility.yul\":2039:2042   */\n      dup3\n        /* \"#utility.yul\":2032:2066   */\n      mstore\n        /* \"#utility.yul\":1963:2072   */\n      pop\n      pop\n      jump\t// out\n        /* \"#utility.yul\":2078:2288   */\n    tag_32:\n        /* \"#utility.yul\":2165:2169   */\n      0x00\n        /* \"#utility.yul\":2203:2205   */\n      0x20\n        /* \"#utility.yul\":2192:2201   */\n      dup3\n        /* \"#utility.yul\":2188:2206   */\n      add\n        /* \"#utility.yul\":2180:2206   */\n      swap1\n      pop\n        /* \"#utility.yul\":2216:2281   */\n      tag_265\n        /* \"#utility.yul\":2278:2279   */\n      0x00\n        /* \"#utility.yul\":2267:2276   */\n      dup4\n        /* \"#utility.yul\":2263:2280   */\n      add\n        /* \"#utility.yul\":2254:2260   */\n      dup5\n        /* \"#utility.yul\":2216:2281   */\n      tag_197\n      jump\t// in\n    tag_265:\n        /* \"#utility.yul\":2078:2288   */\n      swap3\n      swap2\n      pop\n      pop\n      jump\t// out\n        /* \"#utility.yul\":2294:2412   */\n    tag_198:\n        /* \"#utility.yul\":2381:2405   */\n      tag_267\n        /* \"#utility.yul\":2399:2404   */\n      dup2\n        /* \"#utility.yul\":2381:2405   */\n      tag_193\n      jump\t// in\n    tag_267:\n        /* \"#utility.yul\":2376:2379   */\n      dup3\n        /* \"#utility.yul\":2369:2406   */\n      mstore\n        /* \"#utility.yul\":2294:2412   */\n      pop\n      pop\n      jump\t// out\n        /* \"#utility.yul\":2418:2640   */\n    tag_38:\n        /* \"#utility.yul\":2511:2515   */\n      0x00\n        /* \"#utility.yul\":2549:2551   */\n      0x20\n        /* \"#utility.yul\":2538:2547   */\n      dup3\n        /* \"#utility.yul\":2534:2552   */\n      add\n        /* \"#utility.yul\":2526:2552   */\n      swap1\n      pop\n        /* \"#utility.yul\":2562:2633   */\n      tag_269\n        /* \"#utility.yul\":2630:2631   */\n      0x00\n        /* \"#utility.yul\":2619:2628   */\n      dup4\n        /* \"#utility.yul\":2615:2632   */\n      add\n        /* \"#utility.yul\":2606:2612   */\n      dup5\n        /* \"#utility.yul\":2562:2633   */\n      tag_198\n      jump\t// in\n    tag_269:\n        /* \"#utility.yul\":2418:2640   */\n      swap3\n      swap2\n      pop\n      pop\n      jump\t// out\n        /* \"#utility.yul\":2646:2764   */\n    tag_199:\n        /* \"#utility.yul\":2733:2757   */\n      tag_271\n        /* \"#utility.yul\":2751:2756   */\n      dup2\n        /* \"#utility.yul\":2733:2757   */\n      tag_189\n      jump\t// in\n    tag_271:\n        /* \"#utility.yul\":2728:2731   */\n      dup3\n        /* \"#utility.yul\":2721:2758   */\n      mstore\n        /* \"#utility.yul\":2646:2764   */\n      pop\n      pop\n      jump\t// out\n        /* \"#utility.yul\":2770:2992   */\n    tag_43:\n        /* \"#utility.yul\":2863:2867   */\n      0x00\n        /* \"#utility.yul\":2901:2903   */\n      0x20\n        /* \"#utility.yul\":2890:2899   */\n      dup3\n        /* \"#utility.yul\":2886:2904   */\n      add\n        /* \"#utility.yul\":2878:2904   */\n      swap1\n      pop\n        /* \"#utility.yul\":2914:2985   */\n      tag_273\n        /* \"#utility.yul\":2982:2983   */\n      0x00\n        /* \"#utility.yul\":2971:2980   */\n      dup4\n        /* \"#utility.yul\":2967:2984   */\n      add\n        /* \"#utility.yul\":2958:2964   */\n      dup5\n        /* \"#utility.yul\":2914:2985   */\n      tag_199\n      jump\t// in\n    tag_273:\n        /* \"#utility.yul\":2770:2992   */\n      swap3\n      swap2\n      pop\n      pop\n      jump\t// out\n        /* \"#utility.yul\":2998:3097   */\n    tag_200:\n        /* \"#utility.yul\":3050:3056   */\n      0x00\n        /* \"#utility.yul\":3084:3089   */\n      dup2\n        /* \"#utility.yul\":3078:3090   */\n      mload\n        /* \"#utility.yul\":3068:3090   */\n      swap1\n      pop\n        /* \"#utility.yul\":2998:3097   */\n      swap2\n      swap1\n      pop\n      jump\t// out\n        /* \"#utility.yul\":3103:3272   */\n    tag_201:\n        /* \"#utility.yul\":3187:3198   */\n      0x00\n        /* \"#utility.yul\":3221:3227   */\n      dup3\n        /* \"#utility.yul\":3216:3219   */\n      dup3\n        /* \"#utility.yul\":3209:3228   */\n      mstore\n        /* \"#utility.yul\":3261:3265   */\n      0x20\n        /* \"#utility.yul\":3256:3259   */\n      dup3\n        /* \"#utility.yul\":3252:3266   */\n      add\n        /* \"#utility.yul\":3237:3266   */\n      swap1\n      pop\n        /* \"#utility.yul\":3103:3272   */\n      swap3\n      swap2\n      pop\n      pop\n      jump\t// out\n        /* \"#utility.yul\":3278:3524   */\n    tag_202:\n        /* \"#utility.yul\":3359:3360   */\n      0x00\n        /* \"#utility.yul\":3369:3482   */\n    tag_277:\n        /* \"#utility.yul\":3383:3389   */\n      dup4\n        /* \"#utility.yul\":3380:3381   */\n      dup2\n        /* \"#utility.yul\":3377:3390   */\n      lt\n        /* \"#utility.yul\":3369:3482   */\n      iszero\n      tag_279\n      jumpi\n        /* \"#utility.yul\":3468:3469   */\n      dup1\n        /* \"#utility.yul\":3463:3466   */\n      dup3\n        /* \"#utility.yul\":3459:3470   */\n      add\n        /* \"#utility.yul\":3453:3471   */\n      mload\n        /* \"#utility.yul\":3449:3450   */\n      dup2\n        /* \"#utility.yul\":3444:3447   */\n      dup5\n        /* \"#utility.yul\":3440:3451   */\n      add\n        /* \"#utility.yul\":3433:3472   */\n      mstore\n        /* \"#utility.yul\":3405:3407   */\n      0x20\n        /* \"#utility.yul\":3402:3403   */\n      dup2\n        /* \"#utility.yul\":3398:3408   */\n      add\n        /* \"#utility.yul\":3393:3408   */\n      swap1\n      pop\n        /* \"#utility.yul\":3369:3482   */\n      jump(tag_277)\n    tag_279:\n        /* \"#utility.yul\":3516:3517   */\n      0x00\n        /* \"#utility.yul\":3507:3513   */\n      dup5\n        /* \"#utility.yul\":3502:3505   */\n      dup5\n        /* \"#utility.yul\":3498:3514   */\n      add\n        /* \"#utility.yul\":3491:3518   */\n      mstore\n        /* \"#utility.yul\":3340:3524   */\n      pop\n        /* \"#utility.yul\":3278:3524   */\n      pop\n      pop\n      pop\n      jump\t// out\n        /* \"#utility.yul\":3530:3632   */\n    tag_203:\n        /* \"#utility.yul\":3571:3577   */\n      0x00\n        /* \"#utility.yul\":3622:3624   */\n      0x1f\n        /* \"#utility.yul\":3618:3625   */\n      not\n        /* \"#utility.yul\":3613:3615   */\n      0x1f\n        /* \"#utility.yul\":3606:3611   */\n      dup4\n        /* \"#utility.yul\":3602:3616   */\n      add\n        /* \"#utility.yul\":3598:3626   */\n      and\n        /* \"#utility.yul\":3588:3626   */\n      swap1\n      pop\n        /* \"#utility.yul\":3530:3632   */\n      swap2\n      swap1\n      pop\n      jump\t// out\n        /* \"#utility.yul\":3638:4015   */\n    tag_204:\n        /* \"#utility.yul\":3726:3729   */\n      0x00\n        /* \"#utility.yul\":3754:3793   */\n      tag_282\n        /* \"#utility.yul\":3787:3792   */\n      dup3\n        /* \"#utility.yul\":3754:3793   */\n      tag_200\n      jump\t// in\n    tag_282:\n        /* \"#utility.yul\":3809:3880   */\n      tag_283\n        /* \"#utility.yul\":3873:3879   */\n      dup2\n        /* \"#utility.yul\":3868:3871   */\n      dup6\n        /* \"#utility.yul\":3809:3880   */\n      tag_201\n      jump\t// in\n    tag_283:\n        /* \"#utility.yul\":3802:3880   */\n      swap4\n      pop\n        /* \"#utility.yul\":3889:3954   */\n      tag_284\n        /* \"#utility.yul\":3947:3953   */\n      dup2\n        /* \"#utility.yul\":3942:3945   */\n      dup6\n        /* \"#utility.yul\":3935:3939   */\n      0x20\n        /* \"#utility.yul\":3928:3933   */\n      dup7\n        /* \"#utility.yul\":3924:3940   */\n      add\n        /* \"#utility.yul\":3889:3954   */\n      tag_202\n      jump\t// in\n    tag_284:\n        /* \"#utility.yul\":3979:4008   */\n      tag_285\n        /* \"#utility.yul\":4001:4007   */\n      dup2\n        /* \"#utility.yul\":3979:4008   */\n      tag_203\n      jump\t// in\n    tag_285:\n        /* \"#utility.yul\":3974:3977   */\n      dup5\n        /* \"#utility.yul\":3970:4009   */\n      add\n        /* \"#utility.yul\":3963:4009   */\n      swap2\n      pop\n        /* \"#utility.yul\":3730:4015   */\n      pop\n        /* \"#utility.yul\":3638:4015   */\n      swap3\n      swap2\n      pop\n      pop\n      jump\t// out\n        /* \"#utility.yul\":4021:5402   */\n    tag_48:\n        /* \"#utility.yul\":4398:4402   */\n      0x00\n        /* \"#utility.yul\":4436:4439   */\n      0x0120\n        /* \"#utility.yul\":4425:4434   */\n      dup3\n        /* \"#utility.yul\":4421:4440   */\n      add\n        /* \"#utility.yul\":4413:4440   */\n      swap1\n      pop\n        /* \"#utility.yul\":4450:4521   */\n      tag_287\n        /* \"#utility.yul\":4518:4519   */\n      0x00\n        /* \"#utility.yul\":4507:4516   */\n      dup4\n        /* \"#utility.yul\":4503:4520   */\n      add\n        /* \"#utility.yul\":4494:4500   */\n      dup13\n        /* \"#utility.yul\":4450:4521   */\n      tag_199\n      jump\t// in\n    tag_287:\n        /* \"#utility.yul\":4531:4603   */\n      tag_288\n        /* \"#utility.yul\":4599:4601   */\n      0x20\n        /* \"#utility.yul\":4588:4597   */\n      dup4\n        /* \"#utility.yul\":4584:4602   */\n      add\n        /* \"#utility.yul\":4575:4581   */\n      dup12\n        /* \"#utility.yul\":4531:4603   */\n      tag_199\n      jump\t// in\n    tag_288:\n        /* \"#utility.yul\":4613:4685   */\n      tag_289\n        /* \"#utility.yul\":4681:4683   */\n      0x40\n        /* \"#utility.yul\":4670:4679   */\n      dup4\n        /* \"#utility.yul\":4666:4684   */\n      add\n        /* \"#utility.yul\":4657:4663   */\n      dup11\n        /* \"#utility.yul\":4613:4685   */\n      tag_199\n      jump\t// in\n    tag_289:\n        /* \"#utility.yul\":4695:4767   */\n      tag_290\n        /* \"#utility.yul\":4763:4765   */\n      0x60\n        /* \"#utility.yul\":4752:4761   */\n      dup4\n        /* \"#utility.yul\":4748:4766   */\n      add\n        /* \"#utility.yul\":4739:4745   */\n      dup10\n        /* \"#utility.yul\":4695:4767   */\n      tag_199\n      jump\t// in\n    tag_290:\n        /* \"#utility.yul\":4777:4850   */\n      tag_291\n        /* \"#utility.yul\":4845:4848   */\n      0x80\n        /* \"#utility.yul\":4834:4843   */\n      dup4\n        /* \"#utility.yul\":4830:4849   */\n      add\n        /* \"#utility.yul\":4821:4827   */\n      dup9\n        /* \"#utility.yul\":4777:4850   */\n      tag_198\n      jump\t// in\n    tag_291:\n        /* \"#utility.yul\":4898:4907   */\n      dup2\n        /* \"#utility.yul\":4892:4896   */\n      dup2\n        /* \"#utility.yul\":4888:4908   */\n      sub\n        /* \"#utility.yul\":4882:4885   */\n      0xa0\n        /* \"#utility.yul\":4871:4880   */\n      dup4\n        /* \"#utility.yul\":4867:4886   */\n      add\n        /* \"#utility.yul\":4860:4909   */\n      mstore\n        /* \"#utility.yul\":4926:5004   */\n      tag_292\n        /* \"#utility.yul\":4999:5003   */\n      dup2\n        /* \"#utility.yul\":4990:4996   */\n      dup8\n        /* \"#utility.yul\":4926:5004   */\n      tag_204\n      jump\t// in\n    tag_292:\n        /* \"#utility.yul\":4918:5004   */\n      swap1\n      pop\n        /* \"#utility.yul\":5052:5061   */\n      dup2\n        /* \"#utility.yul\":5046:5050   */\n      dup2\n        /* \"#utility.yul\":5042:5062   */\n      sub\n        /* \"#utility.yul\":5036:5039   */\n      0xc0\n        /* \"#utility.yul\":5025:5034   */\n      dup4\n        /* \"#utility.yul\":5021:5040   */\n      add\n        /* \"#utility.yul\":5014:5063   */\n      mstore\n        /* \"#utility.yul\":5080:5158   */\n      tag_293\n        /* \"#utility.yul\":5153:5157   */\n      dup2\n        /* \"#utility.yul\":5144:5150   */\n      dup7\n        /* \"#utility.yul\":5080:5158   */\n      tag_204\n      jump\t// in\n    tag_293:\n        /* \"#utility.yul\":5072:5158   */\n      swap1\n      pop\n        /* \"#utility.yul\":5206:5215   */\n      dup2\n        /* \"#utility.yul\":5200:5204   */\n      dup2\n        /* \"#utility.yul\":5196:5216   */\n      sub\n        /* \"#utility.yul\":5190:5193   */\n      0xe0\n        /* \"#utility.yul\":5179:5188   */\n      dup4\n        /* \"#utility.yul\":5175:5194   */\n      add\n        /* \"#utility.yul\":5168:5217   */\n      mstore\n        /* \"#utility.yul\":5234:5312   */\n      tag_294\n        /* \"#utility.yul\":5307:5311   */\n      dup2\n        /* \"#utility.yul\":5298:5304   */\n      dup6\n        /* \"#utility.yul\":5234:5312   */\n      tag_204\n      jump\t// in\n    tag_294:\n        /* \"#utility.yul\":5226:5312   */\n      swap1\n      pop\n        /* \"#utility.yul\":5322:5395   */\n      tag_295\n        /* \"#utility.yul\":5390:5393   */\n      0x0100\n        /* \"#utility.yul\":5379:5388   */\n      dup4\n        /* \"#utility.yul\":5375:5394   */\n      add\n        /* \"#utility.yul\":5366:5372   */\n      dup5\n        /* \"#utility.yul\":5322:5395   */\n      tag_199\n      jump\t// in\n    tag_295:\n        /* \"#utility.yul\":4021:5402   */\n      swap11\n      swap10\n      pop\n      pop\n      pop\n      pop\n      pop\n      pop\n      pop\n      pop\n      pop\n      pop\n      jump\t// out\n        /* \"#utility.yul\":5408:5721   */\n    tag_57:\n        /* \"#utility.yul\":5521:5525   */\n      0x00\n        /* \"#utility.yul\":5559:5561   */\n      0x20\n        /* \"#utility.yul\":5548:5557   */\n      dup3\n        /* \"#utility.yul\":5544:5562   */\n      add\n        /* \"#utility.yul\":5536:5562   */\n      swap1\n      pop\n        /* \"#utility.yul\":5608:5617   */\n      dup2\n        /* \"#utility.yul\":5602:5606   */\n      dup2\n        /* \"#utility.yul\":5598:5618   */\n      sub\n        /* \"#utility.yul\":5594:5595   */\n      0x00\n        /* \"#utility.yul\":5583:5592   */\n      dup4\n        /* \"#utility.yul\":5579:5596   */\n      add\n        /* \"#utility.yul\":5572:5619   */\n      mstore\n        /* \"#utility.yul\":5636:5714   */\n      tag_297\n        /* \"#utility.yul\":5709:5713   */\n      dup2\n        /* \"#utility.yul\":5700:5706   */\n      dup5\n        /* \"#utility.yul\":5636:5714   */\n      tag_204\n      jump\t// in\n    tag_297:\n        /* \"#utility.yul\":5628:5714   */\n      swap1\n      pop\n        /* \"#utility.yul\":5408:5721   */\n      swap3\n      swap2\n      pop\n      pop\n      jump\t// out\n        /* \"#utility.yul\":5727:6470   */\n    tag_63:\n        /* \"#utility.yul\":5946:5950   */\n      0x00\n        /* \"#utility.yul\":5984:5987   */\n      0xa0\n        /* \"#utility.yul\":5973:5982   */\n      dup3\n        /* \"#utility.yul\":5969:5988   */\n      add\n        /* \"#utility.yul\":5961:5988   */\n      swap1\n      pop\n        /* \"#utility.yul\":6034:6043   */\n      dup2\n        /* \"#utility.yul\":6028:6032   */\n      dup2\n        /* \"#utility.yul\":6024:6044   */\n      sub\n        /* \"#utility.yul\":6020:6021   */\n      0x00\n        /* \"#utility.yul\":6009:6018   */\n      dup4\n        /* \"#utility.yul\":6005:6022   */\n      add\n        /* \"#utility.yul\":5998:6045   */\n      mstore\n        /* \"#utility.yul\":6062:6140   */\n      tag_299\n        /* \"#utility.yul\":6135:6139   */\n      dup2\n        /* \"#utility.yul\":6126:6132   */\n      dup9\n        /* \"#utility.yul\":6062:6140   */\n      tag_204\n      jump\t// in\n    tag_299:\n        /* \"#utility.yul\":6054:6140   */\n      swap1\n      pop\n        /* \"#utility.yul\":6150:6222   */\n      tag_300\n        /* \"#utility.yul\":6218:6220   */\n      0x20\n        /* \"#utility.yul\":6207:6216   */\n      dup4\n        /* \"#utility.yul\":6203:6221   */\n      add\n        /* \"#utility.yul\":6194:6200   */\n      dup8\n        /* \"#utility.yul\":6150:6222   */\n      tag_199\n      jump\t// in\n    tag_300:\n        /* \"#utility.yul\":6232:6304   */\n      tag_301\n        /* \"#utility.yul\":6300:6302   */\n      0x40\n        /* \"#utility.yul\":6289:6298   */\n      dup4\n        /* \"#utility.yul\":6285:6303   */\n      add\n        /* \"#utility.yul\":6276:6282   */\n      dup7\n        /* \"#utility.yul\":6232:6304   */\n      tag_198\n      jump\t// in\n    tag_301:\n        /* \"#utility.yul\":6314:6380   */\n      tag_302\n        /* \"#utility.yul\":6376:6378   */\n      0x60\n        /* \"#utility.yul\":6365:6374   */\n      dup4\n        /* \"#utility.yul\":6361:6379   */\n      add\n        /* \"#utility.yul\":6352:6358   */\n      dup6\n        /* \"#utility.yul\":6314:6380   */\n      tag_197\n      jump\t// in\n    tag_302:\n        /* \"#utility.yul\":6390:6463   */\n      tag_303\n        /* \"#utility.yul\":6458:6461   */\n      0x80\n        /* \"#utility.yul\":6447:6456   */\n      dup4\n        /* \"#utility.yul\":6443:6462   */\n      add\n        /* \"#utility.yul\":6434:6440   */\n      dup5\n        /* \"#utility.yul\":6390:6463   */\n      tag_199\n      jump\t// in\n    tag_303:\n        /* \"#utility.yul\":5727:6470   */\n      swap7\n      swap6\n      pop\n      pop\n      pop\n      pop\n      pop\n      pop\n      jump\t// out\n        /* \"#utility.yul\":6476:6593   */\n    tag_205:\n        /* \"#utility.yul\":6585:6586   */\n      0x00\n        /* \"#utility.yul\":6582:6583   */\n      dup1\n        /* \"#utility.yul\":6575:6587   */\n      revert\n        /* \"#utility.yul\":6599:6716   */\n    tag_206:\n        /* \"#utility.yul\":6708:6709   */\n      0x00\n        /* \"#utility.yul\":6705:6706   */\n      dup1\n        /* \"#utility.yul\":6698:6710   */\n      revert\n        /* \"#utility.yul\":6722:6902   */\n    tag_207:\n        /* \"#utility.yul\":6770:6847   */\n      0x4e487b7100000000000000000000000000000000000000000000000000000000\n        /* \"#utility.yul\":6767:6768   */\n      0x00\n        /* \"#utility.yul\":6760:6848   */\n      mstore\n        /* \"#utility.yul\":6867:6871   */\n      0x41\n        /* \"#utility.yul\":6864:6865   */\n      0x04\n        /* \"#utility.yul\":6857:6872   */\n      mstore\n        /* \"#utility.yul\":6891:6895   */\n      0x24\n        /* \"#utility.yul\":6888:6889   */\n      0x00\n        /* \"#utility.yul\":6881:6896   */\n      revert\n        /* \"#utility.yul\":6908:7189   */\n    tag_208:\n        /* \"#utility.yul\":6991:7018   */\n      tag_308\n        /* \"#utility.yul\":7013:7017   */\n      dup3\n        /* \"#utility.yul\":6991:7018   */\n      tag_203\n      jump\t// in\n    tag_308:\n        /* \"#utility.yul\":6983:6989   */\n      dup2\n        /* \"#utility.yul\":6979:7019   */\n      add\n        /* \"#utility.yul\":7121:7127   */\n      dup2\n        /* \"#utility.yul\":7109:7119   */\n      dup2\n        /* \"#utility.yul\":7106:7128   */\n      lt\n        /* \"#utility.yul\":7085:7103   */\n      0xffffffffffffffff\n        /* \"#utility.yul\":7073:7083   */\n      dup3\n        /* \"#utility.yul\":7070:7104   */\n      gt\n        /* \"#utility.yul\":7067:7129   */\n      or\n        /* \"#utility.yul\":7064:7152   */\n      iszero\n      tag_309\n      jumpi\n        /* \"#utility.yul\":7132:7150   */\n      tag_310\n      tag_207\n      jump\t// in\n    tag_310:\n        /* \"#utility.yul\":7064:7152   */\n    tag_309:\n        /* \"#utility.yul\":7172:7182   */\n      dup1\n        /* \"#utility.yul\":7168:7170   */\n      0x40\n        /* \"#utility.yul\":7161:7183   */\n      mstore\n        /* \"#utility.yul\":6951:7189   */\n      pop\n        /* \"#utility.yul\":6908:7189   */\n      pop\n      pop\n      jump\t// out\n        /* \"#utility.yul\":7195:7324   */\n    tag_209:\n        /* \"#utility.yul\":7229:7235   */\n      0x00\n        /* \"#utility.yul\":7256:7276   */\n      tag_312\n      tag_186\n      jump\t// in\n    tag_312:\n        /* \"#utility.yul\":7246:7276   */\n      swap1\n      pop\n        /* \"#utility.yul\":7285:7318   */\n      tag_313\n        /* \"#utility.yul\":7313:7317   */\n      dup3\n        /* \"#utility.yul\":7305:7311   */\n      dup3\n        /* \"#utility.yul\":7285:7318   */\n      tag_208\n      jump\t// in\n    tag_313:\n        /* \"#utility.yul\":7195:7324   */\n      swap2\n      swap1\n      pop\n      jump\t// out\n        /* \"#utility.yul\":7330:7638   */\n    tag_210:\n        /* \"#utility.yul\":7392:7396   */\n      0x00\n        /* \"#utility.yul\":7482:7500   */\n      0xffffffffffffffff\n        /* \"#utility.yul\":7474:7480   */\n      dup3\n        /* \"#utility.yul\":7471:7501   */\n      gt\n        /* \"#utility.yul\":7468:7524   */\n      iszero\n      tag_315\n      jumpi\n        /* \"#utility.yul\":7504:7522   */\n      tag_316\n      tag_207\n      jump\t// in\n    tag_316:\n        /* \"#utility.yul\":7468:7524   */\n    tag_315:\n        /* \"#utility.yul\":7542:7571   */\n      tag_317\n        /* \"#utility.yul\":7564:7570   */\n      dup3\n        /* \"#utility.yul\":7542:7571   */\n      tag_203\n      jump\t// in\n    tag_317:\n        /* \"#utility.yul\":7534:7571   */\n      swap1\n      pop\n        /* \"#utility.yul\":7626:7630   */\n      0x20\n        /* \"#utility.yul\":7620:7624   */\n      dup2\n        /* \"#utility.yul\":7616:7631   */\n      add\n        /* \"#utility.yul\":7608:7631   */\n      swap1\n      pop\n        /* \"#utility.yul\":7330:7638   */\n      swap2\n      swap1\n      pop\n      jump\t// out\n        /* \"#utility.yul\":7644:7790   */\n    tag_211:\n        /* \"#utility.yul\":7741:7747   */\n      dup3\n        /* \"#utility.yul\":7736:7739   */\n      dup2\n        /* \"#utility.yul\":7731:7734   */\n      dup4\n        /* \"#utility.yul\":7718:7748   */\n      calldatacopy\n        /* \"#utility.yul\":7782:7783   */\n      0x00\n        /* \"#utility.yul\":7773:7779   */\n      dup4\n        /* \"#utility.yul\":7768:7771   */\n      dup4\n        /* \"#utility.yul\":7764:7780   */\n      add\n        /* \"#utility.yul\":7757:7784   */\n      mstore\n        /* \"#utility.yul\":7644:7790   */\n      pop\n      pop\n      pop\n      jump\t// out\n        /* \"#utility.yul\":7796:8221   */\n    tag_212:\n        /* \"#utility.yul\":7874:7879   */\n      0x00\n        /* \"#utility.yul\":7899:7965   */\n      tag_320\n        /* \"#utility.yul\":7915:7964   */\n      tag_321\n        /* \"#utility.yul\":7957:7963   */\n      dup5\n        /* \"#utility.yul\":7915:7964   */\n      tag_210\n      jump\t// in\n    tag_321:\n        /* \"#utility.yul\":7899:7965   */\n      tag_209\n      jump\t// in\n    tag_320:\n        /* \"#utility.yul\":7890:7965   */\n      swap1\n      pop\n        /* \"#utility.yul\":7988:7994   */\n      dup3\n        /* \"#utility.yul\":7981:7986   */\n      dup2\n        /* \"#utility.yul\":7974:7995   */\n      mstore\n        /* \"#utility.yul\":8026:8030   */\n      0x20\n        /* \"#utility.yul\":8019:8024   */\n      dup2\n        /* \"#utility.yul\":8015:8031   */\n      add\n        /* \"#utility.yul\":8064:8067   */\n      dup5\n        /* \"#utility.yul\":8055:8061   */\n      dup5\n        /* \"#utility.yul\":8050:8053   */\n      dup5\n        /* \"#utility.yul\":8046:8062   */\n      add\n        /* \"#utility.yul\":8043:8068   */\n      gt\n        /* \"#utility.yul\":8040:8152   */\n      iszero\n      tag_322\n      jumpi\n        /* \"#utility.yul\":8071:8150   */\n      tag_323\n      tag_206\n      jump\t// in\n    tag_323:\n        /* \"#utility.yul\":8040:8152   */\n    tag_322:\n        /* \"#utility.yul\":8161:8215   */\n      tag_324\n        /* \"#utility.yul\":8208:8214   */\n      dup5\n        /* \"#utility.yul\":8203:8206   */\n      dup3\n        /* \"#utility.yul\":8198:8201   */\n      dup6\n        /* \"#utility.yul\":8161:8215   */\n      tag_211\n      jump\t// in\n    tag_324:\n        /* \"#utility.yul\":7880:8221   */\n      pop\n        /* \"#utility.yul\":7796:8221   */\n      swap4\n      swap3\n      pop\n      pop\n      pop\n      jump\t// out\n        /* \"#utility.yul\":8241:8581   */\n    tag_213:\n        /* \"#utility.yul\":8297:8302   */\n      0x00\n        /* \"#utility.yul\":8346:8349   */\n      dup3\n        /* \"#utility.yul\":8339:8343   */\n      0x1f\n        /* \"#utility.yul\":8331:8337   */\n      dup4\n        /* \"#utility.yul\":8327:8344   */\n      add\n        /* \"#utility.yul\":8323:8350   */\n      slt\n        /* \"#utility.yul\":8313:8435   */\n      tag_326\n      jumpi\n        /* \"#utility.yul\":8354:8433   */\n      tag_327\n      tag_205\n      jump\t// in\n    tag_327:\n        /* \"#utility.yul\":8313:8435   */\n    tag_326:\n        /* \"#utility.yul\":8471:8477   */\n      dup2\n        /* \"#utility.yul\":8458:8478   */\n      calldataload\n        /* \"#utility.yul\":8496:8575   */\n      tag_328\n        /* \"#utility.yul\":8571:8574   */\n      dup5\n        /* \"#utility.yul\":8563:8569   */\n      dup3\n        /* \"#utility.yul\":8556:8560   */\n      0x20\n        /* \"#utility.yul\":8548:8554   */\n      dup7\n        /* \"#utility.yul\":8544:8561   */\n      add\n        /* \"#utility.yul\":8496:8575   */\n      tag_212\n      jump\t// in\n    tag_328:\n        /* \"#utility.yul\":8487:8575   */\n      swap2\n      pop\n        /* \"#utility.yul\":8303:8581   */\n      pop\n        /* \"#utility.yul\":8241:8581   */\n      swap3\n      swap2\n      pop\n      pop\n      jump\t// out\n        /* \"#utility.yul\":8587:8691   */\n    tag_214:\n        /* \"#utility.yul\":8632:8639   */\n      0x00\n        /* \"#utility.yul\":8661:8685   */\n      tag_330\n        /* \"#utility.yul\":8679:8684   */\n      dup3\n        /* \"#utility.yul\":8661:8685   */\n      tag_192\n      jump\t// in\n    tag_330:\n        /* \"#utility.yul\":8650:8685   */\n      swap1\n      pop\n        /* \"#utility.yul\":8587:8691   */\n      swap2\n      swap1\n      pop\n      jump\t// out\n        /* \"#utility.yul\":8697:8835   */\n    tag_215:\n        /* \"#utility.yul\":8778:8810   */\n      tag_332\n        /* \"#utility.yul\":8804:8809   */\n      dup2\n        /* \"#utility.yul\":8778:8810   */\n      tag_214\n      jump\t// in\n    tag_332:\n        /* \"#utility.yul\":8771:8776   */\n      dup2\n        /* \"#utility.yul\":8768:8811   */\n      eq\n        /* \"#utility.yul\":8758:8829   */\n      tag_333\n      jumpi\n        /* \"#utility.yul\":8825:8826   */\n      0x00\n        /* \"#utility.yul\":8822:8823   */\n      dup1\n        /* \"#utility.yul\":8815:8827   */\n      revert\n        /* \"#utility.yul\":8758:8829   */\n    tag_333:\n        /* \"#utility.yul\":8697:8835   */\n      pop\n      jump\t// out\n        /* \"#utility.yul\":8841:8996   */\n    tag_216:\n        /* \"#utility.yul\":8895:8900   */\n      0x00\n        /* \"#utility.yul\":8933:8939   */\n      dup2\n        /* \"#utility.yul\":8920:8940   */\n      calldataload\n        /* \"#utility.yul\":8911:8940   */\n      swap1\n      pop\n        /* \"#utility.yul\":8949:8990   */\n      tag_335\n        /* \"#utility.yul\":8984:8989   */\n      dup2\n        /* \"#utility.yul\":8949:8990   */\n      tag_215\n      jump\t// in\n    tag_335:\n        /* \"#utility.yul\":8841:8996   */\n      swap3\n      swap2\n      pop\n      pop\n      jump\t// out\n        /* \"#utility.yul\":9002:9817   */\n    tag_71:\n        /* \"#utility.yul\":9097:9103   */\n      0x00\n        /* \"#utility.yul\":9105:9111   */\n      dup1\n        /* \"#utility.yul\":9113:9119   */\n      0x00\n        /* \"#utility.yul\":9162:9164   */\n      0x60\n        /* \"#utility.yul\":9150:9159   */\n      dup5\n        /* \"#utility.yul\":9141:9148   */\n      dup7\n        /* \"#utility.yul\":9137:9160   */\n      sub\n        /* \"#utility.yul\":9133:9165   */\n      slt\n        /* \"#utility.yul\":9130:9249   */\n      iszero\n      tag_337\n      jumpi\n        /* \"#utility.yul\":9168:9247   */\n      tag_338\n      tag_187\n      jump\t// in\n    tag_338:\n        /* \"#utility.yul\":9130:9249   */\n    tag_337:\n        /* \"#utility.yul\":9316:9317   */\n      0x00\n        /* \"#utility.yul\":9305:9314   */\n      dup5\n        /* \"#utility.yul\":9301:9318   */\n      add\n        /* \"#utility.yul\":9288:9319   */\n      calldataload\n        /* \"#utility.yul\":9346:9364   */\n      0xffffffffffffffff\n        /* \"#utility.yul\":9338:9344   */\n      dup2\n        /* \"#utility.yul\":9335:9365   */\n      gt\n        /* \"#utility.yul\":9332:9449   */\n      iszero\n      tag_339\n      jumpi\n        /* \"#utility.yul\":9368:9447   */\n      tag_340\n      tag_188\n      jump\t// in\n    tag_340:\n        /* \"#utility.yul\":9332:9449   */\n    tag_339:\n        /* \"#utility.yul\":9473:9536   */\n      tag_341\n        /* \"#utility.yul\":9528:9535   */\n      dup7\n        /* \"#utility.yul\":9519:9525   */\n      dup3\n        /* \"#utility.yul\":9508:9517   */\n      dup8\n        /* \"#utility.yul\":9504:9526   */\n      add\n        /* \"#utility.yul\":9473:9536   */\n      tag_213\n      jump\t// in\n    tag_341:\n        /* \"#utility.yul\":9463:9536   */\n      swap4\n      pop\n        /* \"#utility.yul\":9259:9546   */\n      pop\n        /* \"#utility.yul\":9585:9587   */\n      0x20\n        /* \"#utility.yul\":9611:9664   */\n      tag_342\n        /* \"#utility.yul\":9656:9663   */\n      dup7\n        /* \"#utility.yul\":9647:9653   */\n      dup3\n        /* \"#utility.yul\":9636:9645   */\n      dup8\n        /* \"#utility.yul\":9632:9654   */\n      add\n        /* \"#utility.yul\":9611:9664   */\n      tag_191\n      jump\t// in\n    tag_342:\n        /* \"#utility.yul\":9601:9664   */\n      swap3\n      pop\n        /* \"#utility.yul\":9556:9674   */\n      pop\n        /* \"#utility.yul\":9713:9715   */\n      0x40\n        /* \"#utility.yul\":9739:9800   */\n      tag_343\n        /* \"#utility.yul\":9792:9799   */\n      dup7\n        /* \"#utility.yul\":9783:9789   */\n      dup3\n        /* \"#utility.yul\":9772:9781   */\n      dup8\n        /* \"#utility.yul\":9768:9790   */\n      add\n        /* \"#utility.yul\":9739:9800   */\n      tag_216\n      jump\t// in\n    tag_343:\n        /* \"#utility.yul\":9729:9800   */\n      swap2\n      pop\n        /* \"#utility.yul\":9684:9810   */\n      pop\n        /* \"#utility.yul\":9002:9817   */\n      swap3\n      pop\n      swap3\n      pop\n      swap3\n      jump\t// out\n        /* \"#utility.yul\":9823:10003   */\n    tag_217:\n        /* \"#utility.yul\":9871:9948   */\n      0x4e487b7100000000000000000000000000000000000000000000000000000000\n        /* \"#utility.yul\":9868:9869   */\n      0x00\n        /* \"#utility.yul\":9861:9949   */\n      mstore\n        /* \"#utility.yul\":9968:9972   */\n      0x12\n        /* \"#utility.yul\":9965:9966   */\n      0x04\n        /* \"#utility.yul\":9958:9973   */\n      mstore\n        /* \"#utility.yul\":9992:9996   */\n      0x24\n        /* \"#utility.yul\":9989:9990   */\n      0x00\n        /* \"#utility.yul\":9982:9997   */\n      revert\n        /* \"#utility.yul\":10009:10189   */\n    tag_218:\n        /* \"#utility.yul\":10057:10134   */\n      0x4e487b7100000000000000000000000000000000000000000000000000000000\n        /* \"#utility.yul\":10054:10055   */\n      0x00\n        /* \"#utility.yul\":10047:10135   */\n      mstore\n        /* \"#utility.yul\":10154:10158   */\n      0x11\n        /* \"#utility.yul\":10151:10152   */\n      0x04\n        /* \"#utility.yul\":10144:10159   */\n      mstore\n        /* \"#utility.yul\":10178:10182   */\n      0x24\n        /* \"#utility.yul\":10175:10176   */\n      0x00\n        /* \"#utility.yul\":10168:10183   */\n      revert\n        /* \"#utility.yul\":10195:10380   */\n    tag_99:\n        /* \"#utility.yul\":10235:10236   */\n      0x00\n        /* \"#utility.yul\":10252:10272   */\n      tag_347\n        /* \"#utility.yul\":10270:10271   */\n      dup3\n        /* \"#utility.yul\":10252:10272   */\n      tag_189\n      jump\t// in\n    tag_347:\n        /* \"#utility.yul\":10247:10272   */\n      swap2\n      pop\n        /* \"#utility.yul\":10286:10306   */\n      tag_348\n        /* \"#utility.yul\":10304:10305   */\n      dup4\n        /* \"#utility.yul\":10286:10306   */\n      tag_189\n      jump\t// in\n    tag_348:\n        /* \"#utility.yul\":10281:10306   */\n      swap3\n      pop\n        /* \"#utility.yul\":10325:10326   */\n      dup3\n        /* \"#utility.yul\":10315:10350   */\n      tag_349\n      jumpi\n        /* \"#utility.yul\":10330:10348   */\n      tag_350\n      tag_217\n      jump\t// in\n    tag_350:\n        /* \"#utility.yul\":10315:10350   */\n    tag_349:\n        /* \"#utility.yul\":10372:10373   */\n      dup3\n        /* \"#utility.yul\":10369:10370   */\n      dup3\n        /* \"#utility.yul\":10365:10374   */\n      div\n        /* \"#utility.yul\":10360:10374   */\n      swap1\n      pop\n        /* \"#utility.yul\":10195:10380   */\n      swap3\n      swap2\n      pop\n      pop\n      jump\t// out\n        /* \"#utility.yul\":10386:10566   */\n    tag_102:\n        /* \"#utility.yul\":10434:10511   */\n      0x4e487b7100000000000000000000000000000000000000000000000000000000\n        /* \"#utility.yul\":10431:10432   */\n      0x00\n        /* \"#utility.yul\":10424:10512   */\n      mstore\n        /* \"#utility.yul\":10531:10535   */\n      0x32\n        /* \"#utility.yul\":10528:10529   */\n      0x04\n        /* \"#utility.yul\":10521:10536   */\n      mstore\n        /* \"#utility.yul\":10555:10559   */\n      0x24\n        /* \"#utility.yul\":10552:10553   */\n      0x00\n        /* \"#utility.yul\":10545:10560   */\n      revert\n        /* \"#utility.yul\":10572:10752   */\n    tag_219:\n        /* \"#utility.yul\":10620:10697   */\n      0x4e487b7100000000000000000000000000000000000000000000000000000000\n        /* \"#utility.yul\":10617:10618   */\n      0x00\n        /* \"#utility.yul\":10610:10698   */\n      mstore\n        /* \"#utility.yul\":10717:10721   */\n      0x22\n        /* \"#utility.yul\":10714:10715   */\n      0x04\n        /* \"#utility.yul\":10707:10722   */\n      mstore\n        /* \"#utility.yul\":10741:10745   */\n      0x24\n        /* \"#utility.yul\":10738:10739   */\n      0x00\n        /* \"#utility.yul\":10731:10746   */\n      revert\n        /* \"#utility.yul\":10758:11078   */\n    tag_125:\n        /* \"#utility.yul\":10802:10808   */\n      0x00\n        /* \"#utility.yul\":10839:10840   */\n      0x02\n        /* \"#utility.yul\":10833:10837   */\n      dup3\n        /* \"#utility.yul\":10829:10841   */\n      div\n        /* \"#utility.yul\":10819:10841   */\n      swap1\n      pop\n        /* \"#utility.yul\":10886:10887   */\n      0x01\n        /* \"#utility.yul\":10880:10884   */\n      dup3\n        /* \"#utility.yul\":10876:10888   */\n      and\n        /* \"#utility.yul\":10907:10925   */\n      dup1\n        /* \"#utility.yul\":10897:10978   */\n      tag_354\n      jumpi\n        /* \"#utility.yul\":10963:10967   */\n      0x7f\n        /* \"#utility.yul\":10955:10961   */\n      dup3\n        /* \"#utility.yul\":10951:10968   */\n      and\n        /* \"#utility.yul\":10941:10968   */\n      swap2\n      pop\n        /* \"#utility.yul\":10897:10978   */\n    tag_354:\n        /* \"#utility.yul\":11025:11027   */\n      0x20\n        /* \"#utility.yul\":11017:11023   */\n      dup3\n        /* \"#utility.yul\":11014:11028   */\n      lt\n        /* \"#utility.yul\":10994:11012   */\n      dup2\n        /* \"#utility.yul\":10991:11029   */\n      sub\n        /* \"#utility.yul\":10988:11072   */\n      tag_355\n      jumpi\n        /* \"#utility.yul\":11044:11062   */\n      tag_356\n      tag_219\n      jump\t// in\n    tag_356:\n        /* \"#utility.yul\":10988:11072   */\n    tag_355:\n        /* \"#utility.yul\":10809:11078   */\n      pop\n        /* \"#utility.yul\":10758:11078   */\n      swap2\n      swap1\n      pop\n      jump\t// out\n        /* \"#utility.yul\":11084:11225   */\n    tag_220:\n        /* \"#utility.yul\":11133:11137   */\n      0x00\n        /* \"#utility.yul\":11156:11159   */\n      dup2\n        /* \"#utility.yul\":11148:11159   */\n      swap1\n      pop\n        /* \"#utility.yul\":11179:11182   */\n      dup2\n        /* \"#utility.yul\":11176:11177   */\n      0x00\n        /* \"#utility.yul\":11169:11183   */\n      mstore\n        /* \"#utility.yul\":11213:11217   */\n      0x20\n        /* \"#utility.yul\":11210:11211   */\n      0x00\n        /* \"#utility.yul\":11200:11218   */\n      keccak256\n        /* \"#utility.yul\":11192:11218   */\n      swap1\n      pop\n        /* \"#utility.yul\":11084:11225   */\n      swap2\n      swap1\n      pop\n      jump\t// out\n        /* \"#utility.yul\":11231:11324   */\n    tag_221:\n        /* \"#utility.yul\":11268:11274   */\n      0x00\n        /* \"#utility.yul\":11315:11317   */\n      0x20\n        /* \"#utility.yul\":11310:11312   */\n      0x1f\n        /* \"#utility.yul\":11303:11308   */\n      dup4\n        /* \"#utility.yul\":11299:11313   */\n      add\n        /* \"#utility.yul\":11295:11318   */\n      div\n        /* \"#utility.yul\":11285:11318   */\n      swap1\n      pop\n        /* \"#utility.yul\":11231:11324   */\n      swap2\n      swap1\n      pop\n      jump\t// out\n        /* \"#utility.yul\":11330:11437   */\n    tag_222:\n        /* \"#utility.yul\":11374:11382   */\n      0x00\n        /* \"#utility.yul\":11424:11429   */\n      dup3\n        /* \"#utility.yul\":11418:11422   */\n      dup3\n        /* \"#utility.yul\":11414:11430   */\n      shl\n        /* \"#utility.yul\":11393:11430   */\n      swap1\n      pop\n        /* \"#utility.yul\":11330:11437   */\n      swap3\n      swap2\n      pop\n      pop\n      jump\t// out\n        /* \"#utility.yul\":11443:11836   */\n    tag_223:\n        /* \"#utility.yul\":11512:11518   */\n      0x00\n        /* \"#utility.yul\":11562:11563   */\n      0x08\n        /* \"#utility.yul\":11550:11560   */\n      dup4\n        /* \"#utility.yul\":11546:11564   */\n      mul\n        /* \"#utility.yul\":11585:11682   */\n      tag_361\n        /* \"#utility.yul\":11615:11681   */\n      0xffffffffffffffffffffffffffffffffffffffffffffffffffffffffffffffff\n        /* \"#utility.yul\":11604:11613   */\n      dup3\n        /* \"#utility.yul\":11585:11682   */\n      tag_222\n      jump\t// in\n    tag_361:\n        /* \"#utility.yul\":11703:11742   */\n      tag_362\n        /* \"#utility.yul\":11733:11741   */\n      dup7\n        /* \"#utility.yul\":11722:11731   */\n      dup4\n        /* \"#utility.yul\":11703:11742   */\n      tag_222\n      jump\t// in\n    tag_362:\n        /* \"#utility.yul\":11691:11742   */\n      swap6\n      pop\n        /* \"#utility.yul\":11775:11779   */\n      dup1\n        /* \"#utility.yul\":11771:11780   */\n      not\n        /* \"#utility.yul\":11764:11769   */\n      dup5\n        /* \"#utility.yul\":11760:11781   */\n      and\n        /* \"#utility.yul\":11751:11781   */\n      swap4\n      pop\n        /* \"#utility.yul\":11824:11828   */\n      dup1\n        /* \"#utility.yul\":11814:11822   */\n      dup7\n        /* \"#utility.yul\":11810:11829   */\n      and\n        /* \"#utility.yul\":11803:11808   */\n      dup5\n        /* \"#utility.yul\":11800:11830   */\n      or\n        /* \"#utility.yul\":11790:11830   */\n      swap3\n      pop\n        /* \"#utility.yul\":11519:11836   */\n      pop\n      pop\n        /* \"#utility.yul\":11443:11836   */\n      swap4\n      swap3\n      pop\n      pop\n      pop\n      jump\t// out\n        /* \"#utility.yul\":11842:11902   */\n    tag_224:\n        /* \"#utility.yul\":11870:11873   */\n      0x00\n        /* \"#utility.yul\":11891:11896   */\n      dup2\n        /* \"#utility.yul\":11884:11896   */\n      swap1\n      pop\n        /* \"#utility.yul\":11842:11902   */\n      swap2\n      swap1\n      pop\n      jump\t// out\n        /* \"#utility.yul\":11908:12050   */\n    tag_225:\n        /* \"#utility.yul\":11958:11967   */\n      0x00\n        /* \"#utility.yul\":11991:12044   */\n      tag_365\n        /* \"#utility.yul\":12009:12043   */\n      tag_366\n        /* \"#utility.yul\":12018:12042   */\n      tag_367\n        /* \"#utility.yul\":12036:12041   */\n      dup5\n        /* \"#utility.yul\":12018:12042   */\n      tag_189\n      jump\t// in\n    tag_367:\n        /* \"#utility.yul\":12009:12043   */\n      tag_224\n      jump\t// in\n    tag_366:\n        /* \"#utility.yul\":11991:12044   */\n      tag_189\n      jump\t// in\n    tag_365:\n        /* \"#utility.yul\":11978:12044   */\n      swap1\n      pop\n        /* \"#utility.yul\":11908:12050   */\n      swap2\n      swap1\n      pop\n      jump\t// out\n        /* \"#utility.yul\":12056:12131   */\n    tag_226:\n        /* \"#utility.yul\":12099:12102   */\n      0x00\n        /* \"#utility.yul\":12120:12125   */\n      dup2\n        /* \"#utility.yul\":12113:12125   */\n      swap1\n      pop\n        /* \"#utility.yul\":12056:12131   */\n      swap2\n      swap1\n      pop\n      jump\t// out\n        /* \"#utility.yul\":12137:12406   */\n    tag_227:\n        /* \"#utility.yul\":12247:12286   */\n      tag_370\n        /* \"#utility.yul\":12278:12285   */\n      dup4\n        /* \"#utility.yul\":12247:12286   */\n      tag_225\n      jump\t// in\n    tag_370:\n        /* \"#utility.yul\":12308:12399   */\n      tag_371\n        /* \"#utility.yul\":12357:12398   */\n      tag_372\n        /* \"#utility.yul\":12381:12397   */\n      dup3\n        /* \"#utility.yul\":12357:12398   */\n      tag_226\n      jump\t// in\n    tag_372:\n        /* \"#utility.yul\":12349:12355   */\n      dup5\n        /* \"#utility.yul\":12342:12346   */\n      dup5\n        /* \"#utility.yul\":12336:12347   */\n      sload\n        /* \"#utility.yul\":12308:12399   */\n      tag_223\n      jump\t// in\n    tag_371:\n        /* \"#utility.yul\":12302:12306   */\n      dup3\n        /* \"#utility.yul\":12295:12400   */\n      sstore\n        /* \"#utility.yul\":12213:12406   */\n      pop\n        /* \"#utility.yul\":12137:12406   */\n      pop\n      pop\n      pop\n      jump\t// out\n        /* \"#utility.yul\":12412:12485   */\n    tag_228:\n        /* \"#utility.yul\":12457:12460   */\n      0x00\n        /* \"#utility.yul\":12412:12485   */\n      swap1\n      jump\t// out\n        /* \"#utility.yul\":12491:12680   */\n    tag_229:\n        /* \"#utility.yul\":12568:12600   */\n      tag_375\n      tag_228\n      jump\t// in\n    tag_375:\n        /* \"#utility.yul\":12609:12674   */\n      tag_376\n        /* \"#utility.yul\":12667:12673   */\n      dup2\n        /* \"#utility.yul\":12659:12665   */\n      dup5\n        /* \"#utility.yul\":12653:12657   */\n      dup5\n        /* \"#utility.yul\":12609:12674   */\n      tag_227\n      jump\t// in\n    tag_376:\n        /* \"#utility.yul\":12544:12680   */\n      pop\n        /* \"#utility.yul\":12491:12680   */\n      pop\n      pop\n      jump\t// out\n        /* \"#utility.yul\":12686:12872   */\n    tag_230:\n        /* \"#utility.yul\":12746:12866   */\n    tag_378:\n        /* \"#utility.yul\":12763:12766   */\n      dup2\n        /* \"#utility.yul\":12756:12761   */\n      dup2\n        /* \"#utility.yul\":12753:12767   */\n      lt\n        /* \"#utility.yul\":12746:12866   */\n      iszero\n      tag_380\n      jumpi\n        /* \"#utility.yul\":12817:12856   */\n      tag_381\n        /* \"#utility.yul\":12854:12855   */\n      0x00\n        /* \"#utility.yul\":12847:12852   */\n      dup3\n        /* \"#utility.yul\":12817:12856   */\n      tag_229\n      jump\t// in\n    tag_381:\n        /* \"#utility.yul\":12790:12791   */\n      0x01\n        /* \"#utility.yul\":12783:12788   */\n      dup2\n        /* \"#utility.yul\":12779:12792   */\n      add\n        /* \"#utility.yul\":12770:12792   */\n      swap1\n      pop\n        /* \"#utility.yul\":12746:12866   */\n      jump(tag_378)\n    tag_380:\n        /* \"#utility.yul\":12686:12872   */\n      pop\n      pop\n      jump\t// out\n        /* \"#utility.yul\":12878:13421   */\n    tag_231:\n        /* \"#utility.yul\":12979:12981   */\n      0x1f\n        /* \"#utility.yul\":12974:12977   */\n      dup3\n        /* \"#utility.yul\":12971:12982   */\n      gt\n        /* \"#utility.yul\":12968:13414   */\n      iszero\n      tag_383\n      jumpi\n        /* \"#utility.yul\":13013:13051   */\n      tag_384\n        /* \"#utility.yul\":13045:13050   */\n      dup2\n        /* \"#utility.yul\":13013:13051   */\n      tag_220\n      jump\t// in\n    tag_384:\n        /* \"#utility.yul\":13097:13126   */\n      tag_385\n        /* \"#utility.yul\":13115:13125   */\n      dup5\n        /* \"#utility.yul\":13097:13126   */\n      tag_221\n      jump\t// in\n    tag_385:\n        /* \"#utility.yul\":13087:13095   */\n      dup2\n        /* \"#utility.yul\":13083:13127   */\n      add\n        /* \"#utility.yul\":13280:13282   */\n      0x20\n        /* \"#utility.yul\":13268:13278   */\n      dup6\n        /* \"#utility.yul\":13265:13283   */\n      lt\n        /* \"#utility.yul\":13262:13311   */\n      iszero\n      tag_386\n      jumpi\n        /* \"#utility.yul\":13301:13309   */\n      dup2\n        /* \"#utility.yul\":13286:13309   */\n      swap1\n      pop\n        /* \"#utility.yul\":13262:13311   */\n    tag_386:\n        /* \"#utility.yul\":13324:13404   */\n      tag_387\n        /* \"#utility.yul\":13380:13402   */\n      tag_388\n        /* \"#utility.yul\":13398:13401   */\n      dup6\n        /* \"#utility.yul\":13380:13402   */\n      tag_221\n      jump\t// in\n    tag_388:\n        /* \"#utility.yul\":13370:13378   */\n      dup4\n        /* \"#utility.yul\":13366:13403   */\n      add\n        /* \"#utility.yul\":13353:13364   */\n      dup3\n        /* \"#utility.yul\":13324:13404   */\n      tag_230\n      jump\t// in\n    tag_387:\n        /* \"#utility.yul\":12983:13414   */\n      pop\n      pop\n        /* \"#utility.yul\":12968:13414   */\n    tag_383:\n        /* \"#utility.yul\":12878:13421   */\n      pop\n      pop\n      pop\n      jump\t// out\n        /* \"#utility.yul\":13427:13544   */\n    tag_232:\n        /* \"#utility.yul\":13481:13489   */\n      0x00\n        /* \"#utility.yul\":13531:13536   */\n      dup3\n        /* \"#utility.yul\":13525:13529   */\n      dup3\n        /* \"#utility.yul\":13521:13537   */\n      shr\n        /* \"#utility.yul\":13500:13537   */\n      swap1\n      pop\n        /* \"#utility.yul\":13427:13544   */\n      swap3\n      swap2\n      pop\n      pop\n      jump\t// out\n        /* \"#utility.yul\":13550:13719   */\n    tag_233:\n        /* \"#utility.yul\":13594:13600   */\n      0x00\n        /* \"#utility.yul\":13627:13678   */\n      tag_391\n        /* \"#utility.yul\":13675:13676   */\n      0x00\n        /* \"#utility.yul\":13671:13677   */\n      not\n        /* \"#utility.yul\":13663:13668   */\n      dup5\n        /* \"#utility.yul\":13660:13661   */\n      0x08\n        /* \"#utility.yul\":13656:13669   */\n      mul\n        /* \"#utility.yul\":13627:13678   */\n      tag_232\n      jump\t// in\n    tag_391:\n        /* \"#utility.yul\":13623:13679   */\n      not\n        /* \"#utility.yul\":13708:13712   */\n      dup1\n        /* \"#utility.yul\":13702:13706   */\n      dup4\n        /* \"#utility.yul\":13698:13713   */\n      and\n        /* \"#utility.yul\":13688:13713   */\n      swap2\n      pop\n        /* \"#utility.yul\":13601:13719   */\n      pop\n        /* \"#utility.yul\":13550:13719   */\n      swap3\n      swap2\n      pop\n      pop\n      jump\t// out\n        /* \"#utility.yul\":13724:14019   */\n    tag_234:\n        /* \"#utility.yul\":13800:13804   */\n      0x00\n        /* \"#utility.yul\":13946:13975   */\n      tag_393\n        /* \"#utility.yul\":13971:13974   */\n      dup4\n        /* \"#utility.yul\":13965:13969   */\n      dup4\n        /* \"#utility.yul\":13946:13975   */\n      tag_233\n      jump\t// in\n    tag_393:\n        /* \"#utility.yul\":13938:13975   */\n      swap2\n      pop\n        /* \"#utility.yul\":14008:14011   */\n      dup3\n        /* \"#utility.yul\":14005:14006   */\n      0x02\n        /* \"#utility.yul\":14001:14012   */\n      mul\n        /* \"#utility.yul\":13995:13999   */\n      dup3\n        /* \"#utility.yul\":13992:14013   */\n      or\n        /* \"#utility.yul\":13984:14013   */\n      swap1\n      pop\n        /* \"#utility.yul\":13724:14019   */\n      swap3\n      swap2\n      pop\n      pop\n      jump\t// out\n        /* \"#utility.yul\":14024:15419   */\n    tag_157:\n        /* \"#utility.yul\":14141:14178   */\n      tag_395\n        /* \"#utility.yul\":14174:14177   */\n      dup3\n        /* \"#utility.yul\":14141:14178   */\n      tag_200\n      jump\t// in\n    tag_395:\n        /* \"#utility.yul\":14243:14261   */\n      0xffffffffffffffff\n        /* \"#utility.yul\":14235:14241   */\n      dup2\n        /* \"#utility.yul\":14232:14262   */\n      gt\n        /* \"#utility.yul\":14229:14285   */\n      iszero\n      tag_396\n      jumpi\n        /* \"#utility.yul\":14265:14283   */\n      tag_397\n      tag_207\n      jump\t// in\n    tag_397:\n        /* \"#utility.yul\":14229:14285   */\n    tag_396:\n        /* \"#utility.yul\":14309:14347   */\n      tag_398\n        /* \"#utility.yul\":14341:14345   */\n      dup3\n        /* \"#utility.yul\":14335:14346   */\n      sload\n        /* \"#utility.yul\":14309:14347   */\n      tag_125\n      jump\t// in\n    tag_398:\n        /* \"#utility.yul\":14394:14461   */\n      tag_399\n        /* \"#utility.yul\":14454:14460   */\n      dup3\n        /* \"#utility.yul\":14446:14452   */\n      dup3\n        /* \"#utility.yul\":14440:14444   */\n      dup6\n        /* \"#utility.yul\":14394:14461   */\n      tag_231\n      jump\t// in\n    tag_399:\n        /* \"#utility.yul\":14488:14489   */\n      0x00\n        /* \"#utility.yul\":14512:14516   */\n      0x20\n        /* \"#utility.yul\":14499:14516   */\n      swap1\n      pop\n        /* \"#utility.yul\":14544:14546   */\n      0x1f\n        /* \"#utility.yul\":14536:14542   */\n      dup4\n        /* \"#utility.yul\":14533:14547   */\n      gt\n        /* \"#utility.yul\":14561:14562   */\n      0x01\n        /* \"#utility.yul\":14556:15174   */\n      dup2\n      eq\n      tag_401\n      jumpi\n        /* \"#utility.yul\":15218:15219   */\n      0x00\n        /* \"#utility.yul\":15235:15241   */\n      dup5\n        /* \"#utility.yul\":15232:15309   */\n      iszero\n      tag_402\n      jumpi\n        /* \"#utility.yul\":15284:15293   */\n      dup3\n        /* \"#utility.yul\":15279:15282   */\n      dup8\n        /* \"#utility.yul\":15275:15294   */\n      add\n        /* \"#utility.yul\":15269:15295   */\n      mload\n        /* \"#utility.yul\":15260:15295   */\n      swap1\n      pop\n        /* \"#utility.yul\":15232:15309   */\n    tag_402:\n        /* \"#utility.yul\":15335:15402   */\n      tag_403\n        /* \"#utility.yul\":15395:15401   */\n      dup6\n        /* \"#utility.yul\":15388:15393   */\n      dup3\n        /* \"#utility.yul\":15335:15402   */\n      tag_234\n      jump\t// in\n    tag_403:\n        /* \"#utility.yul\":15329:15333   */\n      dup7\n        /* \"#utility.yul\":15322:15403   */\n      sstore\n        /* \"#utility.yul\":15191:15413   */\n      pop\n        /* \"#utility.yul\":14526:15413   */\n      jump(tag_400)\n        /* \"#utility.yul\":14556:15174   */\n    tag_401:\n        /* \"#utility.yul\":14608:14612   */\n      0x1f\n        /* \"#utility.yul\":14604:14613   */\n      not\n        /* \"#utility.yul\":14596:14602   */\n      dup5\n        /* \"#utility.yul\":14592:14614   */\n      and\n        /* \"#utility.yul\":14642:14679   */\n      tag_404\n        /* \"#utility.yul\":14674:14678   */\n      dup7\n        /* \"#utility.yul\":14642:14679   */\n      tag_220\n      jump\t// in\n    tag_404:\n        /* \"#utility.yul\":14701:14702   */\n      0x00\n        /* \"#utility.yul\":14715:14923   */\n    tag_405:\n        /* \"#utility.yul\":14729:14736   */\n      dup3\n        /* \"#utility.yul\":14726:14727   */\n      dup2\n        /* \"#utility.yul\":14723:14737   */\n      lt\n        /* \"#utility.yul\":14715:14923   */\n      iszero\n      tag_407\n      jumpi\n        /* \"#utility.yul\":14808:14817   */\n      dup5\n        /* \"#utility.yul\":14803:14806   */\n      dup10\n        /* \"#utility.yul\":14799:14818   */\n      add\n        /* \"#utility.yul\":14793:14819   */\n      mload\n        /* \"#utility.yul\":14785:14791   */\n      dup3\n        /* \"#utility.yul\":14778:14820   */\n      sstore\n        /* \"#utility.yul\":14859:14860   */\n      0x01\n        /* \"#utility.yul\":14851:14857   */\n      dup3\n        /* \"#utility.yul\":14847:14861   */\n      add\n        /* \"#utility.yul\":14837:14861   */\n      swap2\n      pop\n        /* \"#utility.yul\":14906:14908   */\n      0x20\n        /* \"#utility.yul\":14895:14904   */\n      dup6\n        /* \"#utility.yul\":14891:14909   */\n      add\n        /* \"#utility.yul\":14878:14909   */\n      swap5\n      pop\n        /* \"#utility.yul\":14752:14756   */\n      0x20\n        /* \"#utility.yul\":14749:14750   */\n      dup2\n        /* \"#utility.yul\":14745:14757   */\n      add\n        /* \"#utility.yul\":14740:14757   */\n      swap1\n      pop\n        /* \"#utility.yul\":14715:14923   */\n      jump(tag_405)\n    tag_407:\n        /* \"#utility.yul\":14951:14957   */\n      dup7\n        /* \"#utility.yul\":14942:14949   */\n      dup4\n        /* \"#utility.yul\":14939:14958   */\n      lt\n        /* \"#utility.yul\":14936:15115   */\n      iszero\n      tag_408\n      jumpi\n        /* \"#utility.yul\":15009:15018   */\n      dup5\n        /* \"#utility.yul\":15004:15007   */\n      dup10\n        /* \"#utility.yul\":15000:15019   */\n      add\n        /* \"#utility.yul\":14994:15020   */\n      mload\n        /* \"#utility.yul\":15052:15100   */\n      tag_409\n        /* \"#utility.yul\":15094:15098   */\n      0x1f\n        /* \"#utility.yul\":15086:15092   */\n      dup10\n        /* \"#utility.yul\":15082:15099   */\n      and\n        /* \"#utility.yul\":15071:15080   */\n      dup3\n        /* \"#utility.yul\":15052:15100   */\n      tag_233\n      jump\t// in\n    tag_409:\n        /* \"#utility.yul\":15044:15050   */\n      dup4\n        /* \"#utility.yul\":15037:15101   */\n      sstore\n        /* \"#utility.yul\":14959:15115   */\n      pop\n        /* \"#utility.yul\":14936:15115   */\n    tag_408:\n        /* \"#utility.yul\":15161:15162   */\n      0x01\n        /* \"#utility.yul\":15157:15158   */\n      0x02\n        /* \"#utility.yul\":15149:15155   */\n      dup9\n        /* \"#utility.yul\":15145:15159   */\n      mul\n        /* \"#utility.yul\":15141:15163   */\n      add\n        /* \"#utility.yul\":15135:15139   */\n      dup9\n        /* \"#utility.yul\":15128:15164   */\n      sstore\n        /* \"#utility.yul\":14563:15174   */\n      pop\n      pop\n      pop\n        /* \"#utility.yul\":14526:15413   */\n    tag_400:\n      pop\n        /* \"#utility.yul\":14116:15419   */\n      pop\n      pop\n      pop\n        /* \"#utility.yul\":14024:15419   */\n      pop\n      pop\n      jump\t// out\n        /* \"#utility.yul\":15425:15658   */\n    tag_181:\n        /* \"#utility.yul\":15464:15467   */\n      0x00\n        /* \"#utility.yul\":15487:15511   */\n      tag_411\n        /* \"#utility.yul\":15505:15510   */\n      dup3\n        /* \"#utility.yul\":15487:15511   */\n      tag_189\n      jump\t// in\n    tag_411:\n        /* \"#utility.yul\":15478:15511   */\n      swap2\n      pop\n        /* \"#utility.yul\":15533:15599   */\n      0xffffffffffffffffffffffffffffffffffffffffffffffffffffffffffffffff\n        /* \"#utility.yul\":15526:15531   */\n      dup3\n        /* \"#utility.yul\":15523:15600   */\n      sub\n        /* \"#utility.yul\":15520:15623   */\n      tag_412\n      jumpi\n        /* \"#utility.yul\":15603:15621   */\n      tag_413\n      tag_218\n      jump\t// in\n    tag_413:\n        /* \"#utility.yul\":15520:15623   */\n    tag_412:\n        /* \"#utility.yul\":15650:15651   */\n      0x01\n        /* \"#utility.yul\":15643:15648   */\n      dup3\n        /* \"#utility.yul\":15639:15652   */\n      add\n        /* \"#utility.yul\":15632:15652   */\n      swap1\n      pop\n        /* \"#utility.yul\":15425:15658   */\n      swap2\n      swap1\n      pop\n      jump\t// out\n\n    auxdata: 0xa264697066735822122029dd4f49d61925cc234fe44479cc1f866cfbfd38491deb07363842c872cd94ed64736f6c63430008120033\n}\n","bytecode":{"linkReferences":{},"object":"60806040523480156200001157600080fd5b5060405162001eb238038062001eb28339818101604052810190620000379190620002fb565b84600160006101000a81548173ffffffffffffffffffffffffffffffffffffffff021916908373ffffffffffffffffffffffffffffffffffffffff16021790555085600281905550836003908162000090919062000635565b508260049081620000a2919062000635565b508160059081620000b4919062000635565b50806006819055505050505050506200071c565b6000604051905090565b600080fd5b600080fd5b6000819050919050565b620000f181620000dc565b8114620000fd57600080fd5b50565b6000815190506200011181620000e6565b92915050565b600073ffffffffffffffffffffffffffffffffffffffff82169050919050565b6000620001448262000117565b9050919050565b620001568162000137565b81146200016257600080fd5b50565b60008151905062000176816200014b565b92915050565b600080fd5b600080fd5b6000601f19601f8301169050919050565b7f4e487b7100000000000000000000000000000000000000000000000000000000600052604160045260246000fd5b620001d18262000186565b810181811067ffffffffffffffff82111715620001f357620001f262000197565b5b80604052505050565b600062000208620000c8565b9050620002168282620001c6565b919050565b600067ffffffffffffffff82111562000239576200023862000197565b5b620002448262000186565b9050602081019050919050565b60005b838110156200027157808201518184015260208101905062000254565b60008484015250505050565b6000620002946200028e846200021b565b620001fc565b905082815260208101848484011115620002b357620002b262000181565b5b620002c084828562000251565b509392505050565b600082601f830112620002e057620002df6200017c565b5b8151620002f28482602086016200027d565b91505092915050565b60008060008060008060c087890312156200031b576200031a620000d2565b5b60006200032b89828a0162000100565b96505060206200033e89828a0162000165565b955050604087015167ffffffffffffffff811115620003625762000361620000d7565b5b6200037089828a01620002c8565b945050606087015167ffffffffffffffff811115620003945762000393620000d7565b5b620003a289828a01620002c8565b935050608087015167ffffffffffffffff811115620003c657620003c5620000d7565b5b620003d489828a01620002c8565b92505060a0620003e789828a0162000100565b9150509295509295509295565b600081519050919050565b7f4e487b7100000000000000000000000000000000000000000000000000000000600052602260045260246000fd5b600060028204905060018216806200044757607f821691505b6020821081036200045d576200045c620003ff565b5b50919050565b60008190508160005260206000209050919050565b60006020601f8301049050919050565b600082821b905092915050565b600060088302620004c77fffffffffffffffffffffffffffffffffffffffffffffffffffffffffffffffff8262000488565b620004d3868362000488565b95508019841693508086168417925050509392505050565b6000819050919050565b600062000516620005106200050a84620000dc565b620004eb565b620000dc565b9050919050565b6000819050919050565b6200053283620004f5565b6200054a62000541826200051d565b84845462000495565b825550505050565b600090565b6200056162000552565b6200056e81848462000527565b505050565b5b8181101562000596576200058a60008262000557565b60018101905062000574565b5050565b601f821115620005e557620005af8162000463565b620005ba8462000478565b81016020851015620005ca578190505b620005e2620005d98562000478565b83018262000573565b50505b505050565b600082821c905092915050565b60006200060a60001984600802620005ea565b1980831691505092915050565b6000620006258383620005f7565b9150826002028217905092915050565b6200064082620003f4565b67ffffffffffffffff8111156200065c576200065b62000197565b5b6200066882546200042e565b620006758282856200059a565b600060209050601f831160018114620006ad576000841562000698578287015190505b620006a4858262000617565b86555062000714565b601f198416620006bd8662000463565b60005b82811015620006e757848901518255600182019150602085019450602081019050620006c0565b8683101562000707578489015162000703601f891682620005f7565b8355505b6001600288020188555050505b505050505050565b611786806200072c6000396000f3fe6080604052600436106100f35760003560e01c806382fde0931161008a578063aba8315011610059578063aba831501461033a578063b2a87fc314610365578063d7d1bbdb14610390578063ea25213f146103b9576100f3565b806382fde093146102905780638a9cfd55146102bb57806397654a8c146102e4578063a7f337151461030f576100f3565b80634051ddac116100c65780634051ddac146101c6578063481c6a75146101f95780637e7cd1b31461022457806381d12c581461024f576100f3565b806303441006146100f85780630a144391146101215780631fbed5791461015e5780633410452a1461019b575b600080fd5b34801561010457600080fd5b5061011f600480360381019061011a9190610e9a565b6103c3565b005b34801561012d57600080fd5b5061014860048036038101906101439190610f25565b61058b565b6040516101559190610f6d565b60405180910390f35b34801561016a57600080fd5b5061018560048036038101906101809190610e9a565b6105ab565b6040516101929190610f97565b60405180910390f35b3480156101a757600080fd5b506101b06105ea565b6040516101bd9190610fc1565b60405180910390f35b3480156101d257600080fd5b506101db6105f6565b6040516101f09998979695949392919061106c565b60405180910390f35b34801561020557600080fd5b5061020e6107ff565b60405161021b9190610f97565b60405180910390f35b34801561023057600080fd5b50610239610825565b604051610246919061110e565b60405180910390f35b34801561025b57600080fd5b5061027660048036038101906102719190610e9a565b6108b3565b604051610287959493929190611130565b60405180910390f35b34801561029c57600080fd5b506102a56109ae565b6040516102b29190610fc1565b60405180910390f35b3480156102c757600080fd5b506102e260048036038101906102dd91906112fd565b6109b4565b005b3480156102f057600080fd5b506102f9610abc565b604051610306919061110e565b60405180910390f35b34801561031b57600080fd5b50610324610b4a565b6040516103319190610fc1565b60405180910390f35b34801561034657600080fd5b5061034f610b50565b60405161035c919061110e565b60405180910390f35b34801561037157600080fd5b5061037a610bde565b6040516103879190610fc1565b60405180910390f35b34801561039c57600080fd5b506103b760048036038101906103b29190610e9a565b610be4565b005b6103c1610d6d565b005b600160009054906101000a900473ffffffffffffffffffffffffffffffffffffffff1673ffffffffffffffffffffffffffffffffffffffff163373ffffffffffffffffffffffffffffffffffffffff161461041d57600080fd5b600260095461042c91906113ca565b600082815481106104405761043f6113fb565b5b9060005260206000209060050201600301541161045c57600080fd5b600081815481106104705761046f6113fb565b5b906000526020600020906005020160020160149054906101000a900460ff161561049957600080fd5b600081815481106104ad576104ac6113fb565b5b906000526020600020906005020160020160009054906101000a900473ffffffffffffffffffffffffffffffffffffffff1673ffffffffffffffffffffffffffffffffffffffff166108fc6000838154811061050c5761050b6113fb565b5b9060005260206000209060050201600101549081150290604051600060405180830381858888f19350505050158015610549573d6000803e3d6000fd5b506001600082815481106105605761055f6113fb565b5b906000526020600020906005020160020160146101000a81548160ff02191690831515021790555050565b60086020528060005260406000206000915054906101000a900460ff1681565b600781815481106105bb57600080fd5b906000526020600020016000915054906101000a900473ffffffffffffffffffffffffffffffffffffffff1681565b60008080549050905090565b60008060008060006060806060600060025447600080549050600954600160009054906101000a900473ffffffffffffffffffffffffffffffffffffffff1660036004600560065483805461064a90611459565b80601f016020809104026020016040519081016040528092919081815260200182805461067690611459565b80156106c35780601f10610698576101008083540402835291602001916106c3565b820191906000526020600020905b8154815290600101906020018083116106a657829003601f168201915b505050505093508280546106d690611459565b80601f016020809104026020016040519081016040528092919081815260200182805461070290611459565b801561074f5780601f106107245761010080835404028352916020019161074f565b820191906000526020600020905b81548152906001019060200180831161073257829003601f168201915b5050505050925081805461076290611459565b80601f016020809104026020016040519081016040528092919081815260200182805461078e90611459565b80156107db5780601f106107b0576101008083540402835291602001916107db565b820191906000526020600020905b8154815290600101906020018083116107be57829003601f168201915b50505050509150985098509850985098509850985098509850909192939495969798565b600160009054906101000a900473ffffffffffffffffffffffffffffffffffffffff1681565b6003805461083290611459565b80601f016020809104026020016040519081016040528092919081815260200182805461085e90611459565b80156108ab5780601f10610880576101008083540402835291602001916108ab565b820191906000526020600020905b81548152906001019060200180831161088e57829003601f168201915b505050505081565b600081815481106108c357600080fd5b90600052602060002090600502016000915090508060000180546108e690611459565b80601f016020809104026020016040519081016040528092919081815260200182805461091290611459565b801561095f5780601f106109345761010080835404028352916020019161095f565b820191906000526020600020905b81548152906001019060200180831161094257829003601f168201915b5050505050908060010154908060020160009054906101000a900473ffffffffffffffffffffffffffffffffffffffff16908060020160149054906101000a900460ff16908060030154905085565b60095481565b600160009054906101000a900473ffffffffffffffffffffffffffffffffffffffff1673ffffffffffffffffffffffffffffffffffffffff163373ffffffffffffffffffffffffffffffffffffffff1614610a0e57600080fd5b600080600181600181540180825580915050039060005260206000209060050201905083816000019081610a429190611636565b50828160010181905550818160020160006101000a81548173ffffffffffffffffffffffffffffffffffffffff021916908373ffffffffffffffffffffffffffffffffffffffff16021790555060008160020160146101000a81548160ff0219169083151502179055506000816003018190555050505050565b60048054610ac990611459565b80601f0160208091040260200160405190810160405280929190818152602001828054610af590611459565b8015610b425780601f10610b1757610100808354040283529160200191610b42565b820191906000526020600020905b815481529060010190602001808311610b2557829003601f168201915b505050505081565b60025481565b60058054610b5d90611459565b80601f0160208091040260200160405190810160405280929190818152602001828054610b8990611459565b8015610bd65780601f10610bab57610100808354040283529160200191610bd6565b820191906000526020600020905b815481529060010190602001808311610bb957829003601f168201915b505050505081565b60065481565b600860003373ffffffffffffffffffffffffffffffffffffffff1673ffffffffffffffffffffffffffffffffffffffff16815260200190815260200160002060009054906101000a900460ff16610c3a57600080fd5b60008181548110610c4e57610c4d6113fb565b5b906000526020600020906005020160040160003373ffffffffffffffffffffffffffffffffffffffff1673ffffffffffffffffffffffffffffffffffffffff16815260200190815260200160002060009054906101000a900460ff1615610cb457600080fd5b600160008281548110610cca57610cc96113fb565b5b906000526020600020906005020160040160003373ffffffffffffffffffffffffffffffffffffffff1673ffffffffffffffffffffffffffffffffffffffff16815260200190815260200160002060006101000a81548160ff02191690831515021790555060008181548110610d4357610d426113fb565b5b90600052602060002090600502016003016000815480929190610d6590611708565b919050555050565b6002543411610d7b57600080fd5b6007339080600181540180825580915050600190039060005260206000200160009091909190916101000a81548173ffffffffffffffffffffffffffffffffffffffff021916908373ffffffffffffffffffffffffffffffffffffffff1602179055506001600860003373ffffffffffffffffffffffffffffffffffffffff1673ffffffffffffffffffffffffffffffffffffffff16815260200190815260200160002060006101000a81548160ff02191690831515021790555060096000815480929190610e4990611708565b9190505550565b6000604051905090565b600080fd5b600080fd5b6000819050919050565b610e7781610e64565b8114610e8257600080fd5b50565b600081359050610e9481610e6e565b92915050565b600060208284031215610eb057610eaf610e5a565b5b6000610ebe84828501610e85565b91505092915050565b600073ffffffffffffffffffffffffffffffffffffffff82169050919050565b6000610ef282610ec7565b9050919050565b610f0281610ee7565b8114610f0d57600080fd5b50565b600081359050610f1f81610ef9565b92915050565b600060208284031215610f3b57610f3a610e5a565b5b6000610f4984828501610f10565b91505092915050565b60008115159050919050565b610f6781610f52565b82525050565b6000602082019050610f826000830184610f5e565b92915050565b610f9181610ee7565b82525050565b6000602082019050610fac6000830184610f88565b92915050565b610fbb81610e64565b82525050565b6000602082019050610fd66000830184610fb2565b92915050565b600081519050919050565b600082825260208201905092915050565b60005b83811015611016578082015181840152602081019050610ffb565b60008484015250505050565b6000601f19601f8301169050919050565b600061103e82610fdc565b6110488185610fe7565b9350611058818560208601610ff8565b61106181611022565b840191505092915050565b600061012082019050611082600083018c610fb2565b61108f602083018b610fb2565b61109c604083018a610fb2565b6110a96060830189610fb2565b6110b66080830188610f88565b81810360a08301526110c88187611033565b905081810360c08301526110dc8186611033565b905081810360e08301526110f08185611033565b9050611100610100830184610fb2565b9a9950505050505050505050565b600060208201905081810360008301526111288184611033565b905092915050565b600060a082019050818103600083015261114a8188611033565b90506111596020830187610fb2565b6111666040830186610f88565b6111736060830185610f5e565b6111806080830184610fb2565b9695505050505050565b600080fd5b600080fd5b7f4e487b7100000000000000000000000000000000000000000000000000000000600052604160045260246000fd5b6111cc82611022565b810181811067ffffffffffffffff821117156111eb576111ea611194565b5b80604052505050565b60006111fe610e50565b905061120a82826111c3565b919050565b600067ffffffffffffffff82111561122a57611229611194565b5b61123382611022565b9050602081019050919050565b82818337600083830152505050565b600061126261125d8461120f565b6111f4565b90508281526020810184848401111561127e5761127d61118f565b5b611289848285611240565b509392505050565b600082601f8301126112a6576112a561118a565b5b81356112b684826020860161124f565b91505092915050565b60006112ca82610ec7565b9050919050565b6112da816112bf565b81146112e557600080fd5b50565b6000813590506112f7816112d1565b92915050565b60008060006060848603121561131657611315610e5a565b5b600084013567ffffffffffffffff81111561133457611333610e5f565b5b61134086828701611291565b935050602061135186828701610e85565b9250506040611362868287016112e8565b9150509250925092565b7f4e487b7100000000000000000000000000000000000000000000000000000000600052601260045260246000fd5b7f4e487b7100000000000000000000000000000000000000000000000000000000600052601160045260246000fd5b60006113d582610e64565b91506113e083610e64565b9250826113f0576113ef61136c565b5b828204905092915050565b7f4e487b7100000000000000000000000000000000000000000000000000000000600052603260045260246000fd5b7f4e487b7100000000000000000000000000000000000000000000000000000000600052602260045260246000fd5b6000600282049050600182168061147157607f821691505b6020821081036114845761148361142a565b5b50919050565b60008190508160005260206000209050919050565b60006020601f8301049050919050565b600082821b905092915050565b6000600883026114ec7fffffffffffffffffffffffffffffffffffffffffffffffffffffffffffffffff826114af565b6114f686836114af565b95508019841693508086168417925050509392505050565b6000819050919050565b600061153361152e61152984610e64565b61150e565b610e64565b9050919050565b6000819050919050565b61154d83611518565b6115616115598261153a565b8484546114bc565b825550505050565b600090565b611576611569565b611581818484611544565b505050565b5b818110156115a55761159a60008261156e565b600181019050611587565b5050565b601f8211156115ea576115bb8161148a565b6115c48461149f565b810160208510156115d3578190505b6115e76115df8561149f565b830182611586565b50505b505050565b600082821c905092915050565b600061160d600019846008026115ef565b1980831691505092915050565b600061162683836115fc565b9150826002028217905092915050565b61163f82610fdc565b67ffffffffffffffff81111561165857611657611194565b5b6116628254611459565b61166d8282856115a9565b600060209050601f8311600181146116a0576000841561168e578287015190505b611698858261161a565b865550611700565b601f1984166116ae8661148a565b60005b828110156116d6578489015182556001820191506020850194506020810190506116b1565b868310156116f357848901516116ef601f8916826115fc565b8355505b6001600288020188555050505b505050505050565b600061171382610e64565b91507fffffffffffffffffffffffffffffffffffffffffffffffffffffffffffffffff82036117455761174461139b565b5b60018201905091905056fea264697066735822122029dd4f49d61925cc234fe44479cc1f866cfbfd38491deb07363842c872cd94ed64736f6c63430008120033","opcodes":"PUSH1 0x80 PUSH1 0x40 MSTORE CALLVALUE DUP1 ISZERO PUSH3 0x11 JUMPI PUSH1 0x0 DUP1 REVERT JUMPDEST POP PUSH1 0x40 MLOAD PUSH3 0x1EB2 CODESIZE SUB DUP1 PUSH3 0x1EB2 DUP4 CODECOPY DUP2 DUP2 ADD PUSH1 0x40 MSTORE DUP2 ADD SWAP1 PUSH3 0x37 SWAP2 SWAP1 PUSH3 0x2FB JUMP JUMPDEST DUP5 PUSH1 0x1 PUSH1 0x0 PUSH2 0x100 EXP DUP2 SLOAD DUP2 PUSH20 0xFFFFFFFFFFFFFFFFFFFFFFFFFFFFFFFFFFFFFFFF MUL NOT AND SWAP1 DUP4 PUSH20 0xFFFFFFFFFFFFFFFFFFFFFFFFFFFFFFFFFFFFFFFF AND MUL OR SWAP1 SSTORE POP DUP6 PUSH1 0x2 DUP2 SWAP1 SSTORE POP DUP4 PUSH1 0x3 SWAP1 DUP2 PUSH3 0x90 SWAP2 SWAP1 PUSH3 0x635 JUMP JUMPDEST POP DUP3 PUSH1 0x4 SWAP1 DUP2 PUSH3 0xA2 SWAP2 SWAP1 PUSH3 0x635 JUMP JUMPDEST POP DUP2 PUSH1 0x5 SWAP1 DUP2 PUSH3 0xB4 SWAP2 SWAP1 PUSH3 0x635 JUMP JUMPDEST POP DUP1 PUSH1 0x6 DUP2 SWAP1 SSTORE POP POP POP POP POP POP POP PUSH3 0x71C JUMP JUMPDEST PUSH1 0x0 PUSH1 0x40 MLOAD SWAP1 POP SWAP1 JUMP JUMPDEST PUSH1 0x0 DUP1 REVERT JUMPDEST PUSH1 0x0 DUP1 REVERT JUMPDEST PUSH1 0x0 DUP2 SWAP1 POP SWAP2 SWAP1 POP JUMP JUMPDEST PUSH3 0xF1 DUP2 PUSH3 0xDC JUMP JUMPDEST DUP2 EQ PUSH3 0xFD JUMPI PUSH1 0x0 DUP1 REVERT JUMPDEST POP JUMP JUMPDEST PUSH1 0x0 DUP2 MLOAD SWAP1 POP PUSH3 0x111 DUP2 PUSH3 0xE6 JUMP JUMPDEST SWAP3 SWAP2 POP POP JUMP JUMPDEST PUSH1 0x0 PUSH20 0xFFFFFFFFFFFFFFFFFFFFFFFFFFFFFFFFFFFFFFFF DUP3 AND SWAP1 POP SWAP2 SWAP1 POP JUMP JUMPDEST PUSH1 0x0 PUSH3 0x144 DUP3 PUSH3 0x117 JUMP JUMPDEST SWAP1 POP SWAP2 SWAP1 POP JUMP JUMPDEST PUSH3 0x156 DUP2 PUSH3 0x137 JUMP JUMPDEST DUP2 EQ PUSH3 0x162 JUMPI PUSH1 0x0 DUP1 REVERT JUMPDEST POP JUMP JUMPDEST PUSH1 0x0 DUP2 MLOAD SWAP1 POP PUSH3 0x176 DUP2 PUSH3 0x14B JUMP JUMPDEST SWAP3 SWAP2 POP POP JUMP JUMPDEST PUSH1 0x0 DUP1 REVERT JUMPDEST PUSH1 0x0 DUP1 REVERT JUMPDEST PUSH1 0x0 PUSH1 0x1F NOT PUSH1 0x1F DUP4 ADD AND SWAP1 POP SWAP2 SWAP1 POP JUMP JUMPDEST PUSH32 0x4E487B7100000000000000000000000000000000000000000000000000000000 PUSH1 0x0 MSTORE PUSH1 0x41 PUSH1 0x4 MSTORE PUSH1 0x24 PUSH1 0x0 REVERT JUMPDEST PUSH3 0x1D1 DUP3 PUSH3 0x186 JUMP JUMPDEST DUP2 ADD DUP2 DUP2 LT PUSH8 0xFFFFFFFFFFFFFFFF DUP3 GT OR ISZERO PUSH3 0x1F3 JUMPI PUSH3 0x1F2 PUSH3 0x197 JUMP JUMPDEST JUMPDEST DUP1 PUSH1 0x40 MSTORE POP POP POP JUMP JUMPDEST PUSH1 0x0 PUSH3 0x208 PUSH3 0xC8 JUMP JUMPDEST SWAP1 POP PUSH3 0x216 DUP3 DUP3 PUSH3 0x1C6 JUMP JUMPDEST SWAP2 SWAP1 POP JUMP JUMPDEST PUSH1 0x0 PUSH8 0xFFFFFFFFFFFFFFFF DUP3 GT ISZERO PUSH3 0x239 JUMPI PUSH3 0x238 PUSH3 0x197 JUMP JUMPDEST JUMPDEST PUSH3 0x244 DUP3 PUSH3 0x186 JUMP JUMPDEST SWAP1 POP PUSH1 0x20 DUP2 ADD SWAP1 POP SWAP2 SWAP1 POP JUMP JUMPDEST PUSH1 0x0 JUMPDEST DUP4 DUP2 LT ISZERO PUSH3 0x271 JUMPI DUP1 DUP3 ADD MLOAD DUP2 DUP5 ADD MSTORE PUSH1 0x20 DUP2 ADD SWAP1 POP PUSH3 0x254 JUMP JUMPDEST PUSH1 0x0 DUP5 DUP5 ADD MSTORE POP POP POP POP JUMP JUMPDEST PUSH1 0x0 PUSH3 0x294 PUSH3 0x28E DUP5 PUSH3 0x21B JUMP JUMPDEST PUSH3 0x1FC JUMP JUMPDEST SWAP1 POP DUP3 DUP2 MSTORE PUSH1 0x20 DUP2 ADD DUP5 DUP5 DUP5 ADD GT ISZERO PUSH3 0x2B3 JUMPI PUSH3 0x2B2 PUSH3 0x181 JUMP JUMPDEST JUMPDEST PUSH3 0x2C0 DUP5 DUP3 DUP6 PUSH3 0x251 JUMP JUMPDEST POP SWAP4 SWAP3 POP POP POP JUMP JUMPDEST PUSH1 0x0 DUP3 PUSH1 0x1F DUP4 ADD SLT PUSH3 0x2E0 JUMPI PUSH3 0x2DF PUSH3 0x17C JUMP JUMPDEST JUMPDEST DUP2 MLOAD PUSH3 0x2F2 DUP5 DUP3 PUSH1 0x20 DUP7 ADD PUSH3 0x27D JUMP JUMPDEST SWAP2 POP POP SWAP3 SWAP2 POP POP JUMP JUMPDEST PUSH1 0x0 DUP1 PUSH1 0x0 DUP1 PUSH1 0x0 DUP1 PUSH1 0xC0 DUP8 DUP10 SUB SLT ISZERO PUSH3 0x31B JUMPI PUSH3 0x31A PUSH3 0xD2 JUMP JUMPDEST JUMPDEST PUSH1 0x0 PUSH3 0x32B DUP10 DUP3 DUP11 ADD PUSH3 0x100 JUMP JUMPDEST SWAP7 POP POP PUSH1 0x20 PUSH3 0x33E DUP10 DUP3 DUP11 ADD PUSH3 0x165 JUMP JUMPDEST SWAP6 POP POP PUSH1 0x40 DUP8 ADD MLOAD PUSH8 0xFFFFFFFFFFFFFFFF DUP2 GT ISZERO PUSH3 0x362 JUMPI PUSH3 0x361 PUSH3 0xD7 JUMP JUMPDEST JUMPDEST PUSH3 0x370 DUP10 DUP3 DUP11 ADD PUSH3 0x2C8 JUMP JUMPDEST SWAP5 POP POP PUSH1 0x60 DUP8 ADD MLOAD PUSH8 0xFFFFFFFFFFFFFFFF DUP2 GT ISZERO PUSH3 0x394 JUMPI PUSH3 0x393 PUSH3 0xD7 JUMP JUMPDEST JUMPDEST PUSH3 0x3A2 DUP10 DUP3 DUP11 ADD PUSH3 0x2C8 JUMP JUMPDEST SWAP4 POP POP PUSH1 0x80 DUP8 ADD MLOAD PUSH8 0xFFFFFFFFFFFFFFFF DUP2 GT ISZERO PUSH3 0x3C6 JUMPI PUSH3 0x3C5 PUSH3 0xD7 JUMP JUMPDEST JUMPDEST PUSH3 0x3D4 DUP10 DUP3 DUP11 ADD PUSH3 0x2C8 JUMP JUMPDEST SWAP3 POP POP PUSH1 0xA0 PUSH3 0x3E7 DUP10 DUP3 DUP11 ADD PUSH3 0x100 JUMP JUMPDEST SWAP2 POP POP SWAP3 SWAP6 POP SWAP3 SWAP6 POP SWAP3 SWAP6 JUMP JUMPDEST PUSH1 0x0 DUP2 MLOAD SWAP1 POP SWAP2 SWAP1 POP JUMP JUMPDEST PUSH32 0x4E487B7100000000000000000000000000000000000000000000000000000000 PUSH1 0x0 MSTORE PUSH1 0x22 PUSH1 0x4 MSTORE PUSH1 0x24 PUSH1 0x0 REVERT JUMPDEST PUSH1 0x0 PUSH1 0x2 DUP3 DIV SWAP1 POP PUSH1 0x1 DUP3 AND DUP1 PUSH3 0x447 JUMPI PUSH1 0x7F DUP3 AND SWAP2 POP JUMPDEST PUSH1 0x20 DUP3 LT DUP2 SUB PUSH3 0x45D JUMPI PUSH3 0x45C PUSH3 0x3FF JUMP JUMPDEST JUMPDEST POP SWAP2 SWAP1 POP JUMP JUMPDEST PUSH1 0x0 DUP2 SWAP1 POP DUP2 PUSH1 0x0 MSTORE PUSH1 0x20 PUSH1 0x0 KECCAK256 SWAP1 POP SWAP2 SWAP1 POP JUMP JUMPDEST PUSH1 0x0 PUSH1 0x20 PUSH1 0x1F DUP4 ADD DIV SWAP1 POP SWAP2 SWAP1 POP JUMP JUMPDEST PUSH1 0x0 DUP3 DUP3 SHL SWAP1 POP SWAP3 SWAP2 POP POP JUMP JUMPDEST PUSH1 0x0 PUSH1 0x8 DUP4 MUL PUSH3 0x4C7 PUSH32 0xFFFFFFFFFFFFFFFFFFFFFFFFFFFFFFFFFFFFFFFFFFFFFFFFFFFFFFFFFFFFFFFF DUP3 PUSH3 0x488 JUMP JUMPDEST PUSH3 0x4D3 DUP7 DUP4 PUSH3 0x488 JUMP JUMPDEST SWAP6 POP DUP1 NOT DUP5 AND SWAP4 POP DUP1 DUP7 AND DUP5 OR SWAP3 POP POP POP SWAP4 SWAP3 POP POP POP JUMP JUMPDEST PUSH1 0x0 DUP2 SWAP1 POP SWAP2 SWAP1 POP JUMP JUMPDEST PUSH1 0x0 PUSH3 0x516 PUSH3 0x510 PUSH3 0x50A DUP5 PUSH3 0xDC JUMP JUMPDEST PUSH3 0x4EB JUMP JUMPDEST PUSH3 0xDC JUMP JUMPDEST SWAP1 POP SWAP2 SWAP1 POP JUMP JUMPDEST PUSH1 0x0 DUP2 SWAP1 POP SWAP2 SWAP1 POP JUMP JUMPDEST PUSH3 0x532 DUP4 PUSH3 0x4F5 JUMP JUMPDEST PUSH3 0x54A PUSH3 0x541 DUP3 PUSH3 0x51D JUMP JUMPDEST DUP5 DUP5 SLOAD PUSH3 0x495 JUMP JUMPDEST DUP3 SSTORE POP POP POP POP JUMP JUMPDEST PUSH1 0x0 SWAP1 JUMP JUMPDEST PUSH3 0x561 PUSH3 0x552 JUMP JUMPDEST PUSH3 0x56E DUP2 DUP5 DUP5 PUSH3 0x527 JUMP JUMPDEST POP POP POP JUMP JUMPDEST JUMPDEST DUP2 DUP2 LT ISZERO PUSH3 0x596 JUMPI PUSH3 0x58A PUSH1 0x0 DUP3 PUSH3 0x557 JUMP JUMPDEST PUSH1 0x1 DUP2 ADD SWAP1 POP PUSH3 0x574 JUMP JUMPDEST POP POP JUMP JUMPDEST PUSH1 0x1F DUP3 GT ISZERO PUSH3 0x5E5 JUMPI PUSH3 0x5AF DUP2 PUSH3 0x463 JUMP JUMPDEST PUSH3 0x5BA DUP5 PUSH3 0x478 JUMP JUMPDEST DUP2 ADD PUSH1 0x20 DUP6 LT ISZERO PUSH3 0x5CA JUMPI DUP2 SWAP1 POP JUMPDEST PUSH3 0x5E2 PUSH3 0x5D9 DUP6 PUSH3 0x478 JUMP JUMPDEST DUP4 ADD DUP3 PUSH3 0x573 JUMP JUMPDEST POP POP JUMPDEST POP POP POP JUMP JUMPDEST PUSH1 0x0 DUP3 DUP3 SHR SWAP1 POP SWAP3 SWAP2 POP POP JUMP JUMPDEST PUSH1 0x0 PUSH3 0x60A PUSH1 0x0 NOT DUP5 PUSH1 0x8 MUL PUSH3 0x5EA JUMP JUMPDEST NOT DUP1 DUP4 AND SWAP2 POP POP SWAP3 SWAP2 POP POP JUMP JUMPDEST PUSH1 0x0 PUSH3 0x625 DUP4 DUP4 PUSH3 0x5F7 JUMP JUMPDEST SWAP2 POP DUP3 PUSH1 0x2 MUL DUP3 OR SWAP1 POP SWAP3 SWAP2 POP POP JUMP JUMPDEST PUSH3 0x640 DUP3 PUSH3 0x3F4 JUMP JUMPDEST PUSH8 0xFFFFFFFFFFFFFFFF DUP2 GT ISZERO PUSH3 0x65C JUMPI PUSH3 0x65B PUSH3 0x197 JUMP JUMPDEST JUMPDEST PUSH3 0x668 DUP3 SLOAD PUSH3 0x42E JUMP JUMPDEST PUSH3 0x675 DUP3 DUP3 DUP6 PUSH3 0x59A JUMP JUMPDEST PUSH1 0x0 PUSH1 0x20 SWAP1 POP PUSH1 0x1F DUP4 GT PUSH1 0x1 DUP2 EQ PUSH3 0x6AD JUMPI PUSH1 0x0 DUP5 ISZERO PUSH3 0x698 JUMPI DUP3 DUP8 ADD MLOAD SWAP1 POP JUMPDEST PUSH3 0x6A4 DUP6 DUP3 PUSH3 0x617 JUMP JUMPDEST DUP7 SSTORE POP PUSH3 0x714 JUMP JUMPDEST PUSH1 0x1F NOT DUP5 AND PUSH3 0x6BD DUP7 PUSH3 0x463 JUMP JUMPDEST PUSH1 0x0 JUMPDEST DUP3 DUP2 LT ISZERO PUSH3 0x6E7 JUMPI DUP5 DUP10 ADD MLOAD DUP3 SSTORE PUSH1 0x1 DUP3 ADD SWAP2 POP PUSH1 0x20 DUP6 ADD SWAP5 POP PUSH1 0x20 DUP2 ADD SWAP1 POP PUSH3 0x6C0 JUMP JUMPDEST DUP7 DUP4 LT ISZERO PUSH3 0x707 JUMPI DUP5 DUP10 ADD MLOAD PUSH3 0x703 PUSH1 0x1F DUP10 AND DUP3 PUSH3 0x5F7 JUMP JUMPDEST DUP4 SSTORE POP JUMPDEST PUSH1 0x1 PUSH1 0x2 DUP9 MUL ADD DUP9 SSTORE POP POP POP JUMPDEST POP POP POP POP POP POP JUMP JUMPDEST PUSH2 0x1786 DUP1 PUSH3 0x72C PUSH1 0x0 CODECOPY PUSH1 0x0 RETURN INVALID PUSH1 0x80 PUSH1 0x40 MSTORE PUSH1 0x4 CALLDATASIZE LT PUSH2 0xF3 JUMPI PUSH1 0x0 CALLDATALOAD PUSH1 0xE0 SHR DUP1 PUSH4 0x82FDE093 GT PUSH2 0x8A JUMPI DUP1 PUSH4 0xABA83150 GT PUSH2 0x59 JUMPI DUP1 PUSH4 0xABA83150 EQ PUSH2 0x33A JUMPI DUP1 PUSH4 0xB2A87FC3 EQ PUSH2 0x365 JUMPI DUP1 PUSH4 0xD7D1BBDB EQ PUSH2 0x390 JUMPI DUP1 PUSH4 0xEA25213F EQ PUSH2 0x3B9 JUMPI PUSH2 0xF3 JUMP JUMPDEST DUP1 PUSH4 0x82FDE093 EQ PUSH2 0x290 JUMPI DUP1 PUSH4 0x8A9CFD55 EQ PUSH2 0x2BB JUMPI DUP1 PUSH4 0x97654A8C EQ PUSH2 0x2E4 JUMPI DUP1 PUSH4 0xA7F33715 EQ PUSH2 0x30F JUMPI PUSH2 0xF3 JUMP JUMPDEST DUP1 PUSH4 0x4051DDAC GT PUSH2 0xC6 JUMPI DUP1 PUSH4 0x4051DDAC EQ PUSH2 0x1C6 JUMPI DUP1 PUSH4 0x481C6A75 EQ PUSH2 0x1F9 JUMPI DUP1 PUSH4 0x7E7CD1B3 EQ PUSH2 0x224 JUMPI DUP1 PUSH4 0x81D12C58 EQ PUSH2 0x24F JUMPI PUSH2 0xF3 JUMP JUMPDEST DUP1 PUSH4 0x3441006 EQ PUSH2 0xF8 JUMPI DUP1 PUSH4 0xA144391 EQ PUSH2 0x121 JUMPI DUP1 PUSH4 0x1FBED579 EQ PUSH2 0x15E JUMPI DUP1 PUSH4 0x3410452A EQ PUSH2 0x19B JUMPI JUMPDEST PUSH1 0x0 DUP1 REVERT JUMPDEST CALLVALUE DUP1 ISZERO PUSH2 0x104 JUMPI PUSH1 0x0 DUP1 REVERT JUMPDEST POP PUSH2 0x11F PUSH1 0x4 DUP1 CALLDATASIZE SUB DUP2 ADD SWAP1 PUSH2 0x11A SWAP2 SWAP1 PUSH2 0xE9A JUMP JUMPDEST PUSH2 0x3C3 JUMP JUMPDEST STOP JUMPDEST CALLVALUE DUP1 ISZERO PUSH2 0x12D JUMPI PUSH1 0x0 DUP1 REVERT JUMPDEST POP PUSH2 0x148 PUSH1 0x4 DUP1 CALLDATASIZE SUB DUP2 ADD SWAP1 PUSH2 0x143 SWAP2 SWAP1 PUSH2 0xF25 JUMP JUMPDEST PUSH2 0x58B JUMP JUMPDEST PUSH1 0x40 MLOAD PUSH2 0x155 SWAP2 SWAP1 PUSH2 0xF6D JUMP JUMPDEST PUSH1 0x40 MLOAD DUP1 SWAP2 SUB SWAP1 RETURN JUMPDEST CALLVALUE DUP1 ISZERO PUSH2 0x16A JUMPI PUSH1 0x0 DUP1 REVERT JUMPDEST POP PUSH2 0x185 PUSH1 0x4 DUP1 CALLDATASIZE SUB DUP2 ADD SWAP1 PUSH2 0x180 SWAP2 SWAP1 PUSH2 0xE9A JUMP JUMPDEST PUSH2 0x5AB JUMP JUMPDEST PUSH1 0x40 MLOAD PUSH2 0x192 SWAP2 SWAP1 PUSH2 0xF97 JUMP JUMPDEST PUSH1 0x40 MLOAD DUP1 SWAP2 SUB SWAP1 RETURN JUMPDEST CALLVALUE DUP1 ISZERO PUSH2 0x1A7 JUMPI PUSH1 0x0 DUP1 REVERT JUMPDEST POP PUSH2 0x1B0 PUSH2 0x5EA JUMP JUMPDEST PUSH1 0x40 MLOAD PUSH2 0x1BD SWAP2 SWAP1 PUSH2 0xFC1 JUMP JUMPDEST PUSH1 0x40 MLOAD DUP1 SWAP2 SUB SWAP1 RETURN JUMPDEST CALLVALUE DUP1 ISZERO PUSH2 0x1D2 JUMPI PUSH1 0x0 DUP1 REVERT JUMPDEST POP PUSH2 0x1DB PUSH2 0x5F6 JUMP JUMPDEST PUSH1 0x40 MLOAD PUSH2 0x1F0 SWAP10 SWAP9 SWAP8 SWAP7 SWAP6 SWAP5 SWAP4 SWAP3 SWAP2 SWAP1 PUSH2 0x106C JUMP JUMPDEST PUSH1 0x40 MLOAD DUP1 SWAP2 SUB SWAP1 RETURN JUMPDEST CALLVALUE DUP1 ISZERO PUSH2 0x205 JUMPI PUSH1 0x0 DUP1 REVERT JUMPDEST POP PUSH2 0x20E PUSH2 0x7FF JUMP JUMPDEST PUSH1 0x40 MLOAD PUSH2 0x21B SWAP2 SWAP1 PUSH2 0xF97 JUMP JUMPDEST PUSH1 0x40 MLOAD DUP1 SWAP2 SUB SWAP1 RETURN JUMPDEST CALLVALUE DUP1 ISZERO PUSH2 0x230 JUMPI PUSH1 0x0 DUP1 REVERT JUMPDEST POP PUSH2 0x239 PUSH2 0x825 JUMP JUMPDEST PUSH1 0x40 MLOAD PUSH2 0x246 SWAP2 SWAP1 PUSH2 0x110E JUMP JUMPDEST PUSH1 0x40 MLOAD DUP1 SWAP2 SUB SWAP1 RETURN JUMPDEST CALLVALUE DUP1 ISZERO PUSH2 0x25B JUMPI PUSH1 0x0 DUP1 REVERT JUMPDEST POP PUSH2 0x276 PUSH1 0x4 DUP1 CALLDATASIZE SUB DUP2 ADD SWAP1 PUSH2 0x271 SWAP2 SWAP1 PUSH2 0xE9A JUMP JUMPDEST PUSH2 0x8B3 JUMP JUMPDEST PUSH1 0x40 MLOAD PUSH2 0x287 SWAP6 SWAP5 SWAP4 SWAP3 SWAP2 SWAP1 PUSH2 0x1130 JUMP JUMPDEST PUSH1 0x40 MLOAD DUP1 SWAP2 SUB SWAP1 RETURN JUMPDEST CALLVALUE DUP1 ISZERO PUSH2 0x29C JUMPI PUSH1 0x0 DUP1 REVERT JUMPDEST POP PUSH2 0x2A5 PUSH2 0x9AE JUMP JUMPDEST PUSH1 0x40 MLOAD PUSH2 0x2B2 SWAP2 SWAP1 PUSH2 0xFC1 JUMP JUMPDEST PUSH1 0x40 MLOAD DUP1 SWAP2 SUB SWAP1 RETURN JUMPDEST CALLVALUE DUP1 ISZERO PUSH2 0x2C7 JUMPI PUSH1 0x0 DUP1 REVERT JUMPDEST POP PUSH2 0x2E2 PUSH1 0x4 DUP1 CALLDATASIZE SUB DUP2 ADD SWAP1 PUSH2 0x2DD SWAP2 SWAP1 PUSH2 0x12FD JUMP JUMPDEST PUSH2 0x9B4 JUMP JUMPDEST STOP JUMPDEST CALLVALUE DUP1 ISZERO PUSH2 0x2F0 JUMPI PUSH1 0x0 DUP1 REVERT JUMPDEST POP PUSH2 0x2F9 PUSH2 0xABC JUMP JUMPDEST PUSH1 0x40 MLOAD PUSH2 0x306 SWAP2 SWAP1 PUSH2 0x110E JUMP JUMPDEST PUSH1 0x40 MLOAD DUP1 SWAP2 SUB SWAP1 RETURN JUMPDEST CALLVALUE DUP1 ISZERO PUSH2 0x31B JUMPI PUSH1 0x0 DUP1 REVERT JUMPDEST POP PUSH2 0x324 PUSH2 0xB4A JUMP JUMPDEST PUSH1 0x40 MLOAD PUSH2 0x331 SWAP2 SWAP1 PUSH2 0xFC1 JUMP JUMPDEST PUSH1 0x40 MLOAD DUP1 SWAP2 SUB SWAP1 RETURN JUMPDEST CALLVALUE DUP1 ISZERO PUSH2 0x346 JUMPI PUSH1 0x0 DUP1 REVERT JUMPDEST POP PUSH2 0x34F PUSH2 0xB50 JUMP JUMPDEST PUSH1 0x40 MLOAD PUSH2 0x35C SWAP2 SWAP1 PUSH2 0x110E JUMP JUMPDEST PUSH1 0x40 MLOAD DUP1 SWAP2 SUB SWAP1 RETURN JUMPDEST CALLVALUE DUP1 ISZERO PUSH2 0x371 JUMPI PUSH1 0x0 DUP1 REVERT JUMPDEST POP PUSH2 0x37A PUSH2 0xBDE JUMP JUMPDEST PUSH1 0x40 MLOAD PUSH2 0x387 SWAP2 SWAP1 PUSH2 0xFC1 JUMP JUMPDEST PUSH1 0x40 MLOAD DUP1 SWAP2 SUB SWAP1 RETURN JUMPDEST CALLVALUE DUP1 ISZERO PUSH2 0x39C JUMPI PUSH1 0x0 DUP1 REVERT JUMPDEST POP PUSH2 0x3B7 PUSH1 0x4 DUP1 CALLDATASIZE SUB DUP2 ADD SWAP1 PUSH2 0x3B2 SWAP2 SWAP1 PUSH2 0xE9A JUMP JUMPDEST PUSH2 0xBE4 JUMP JUMPDEST STOP JUMPDEST PUSH2 0x3C1 PUSH2 0xD6D JUMP JUMPDEST STOP JUMPDEST PUSH1 0x1 PUSH1 0x0 SWAP1 SLOAD SWAP1 PUSH2 0x100 EXP SWAP1 DIV PUSH20 0xFFFFFFFFFFFFFFFFFFFFFFFFFFFFFFFFFFFFFFFF AND PUSH20 0xFFFFFFFFFFFFFFFFFFFFFFFFFFFFFFFFFFFFFFFF AND CALLER PUSH20 0xFFFFFFFFFFFFFFFFFFFFFFFFFFFFFFFFFFFFFFFF AND EQ PUSH2 0x41D JUMPI PUSH1 0x0 DUP1 REVERT JUMPDEST PUSH1 0x2 PUSH1 0x9 SLOAD PUSH2 0x42C SWAP2 SWAP1 PUSH2 0x13CA JUMP JUMPDEST PUSH1 0x0 DUP3 DUP2 SLOAD DUP2 LT PUSH2 0x440 JUMPI PUSH2 0x43F PUSH2 0x13FB JUMP JUMPDEST JUMPDEST SWAP1 PUSH1 0x0 MSTORE PUSH1 0x20 PUSH1 0x0 KECCAK256 SWAP1 PUSH1 0x5 MUL ADD PUSH1 0x3 ADD SLOAD GT PUSH2 0x45C JUMPI PUSH1 0x0 DUP1 REVERT JUMPDEST PUSH1 0x0 DUP2 DUP2 SLOAD DUP2 LT PUSH2 0x470 JUMPI PUSH2 0x46F PUSH2 0x13FB JUMP JUMPDEST JUMPDEST SWAP1 PUSH1 0x0 MSTORE PUSH1 0x20 PUSH1 0x0 KECCAK256 SWAP1 PUSH1 0x5 MUL ADD PUSH1 0x2 ADD PUSH1 0x14 SWAP1 SLOAD SWAP1 PUSH2 0x100 EXP SWAP1 DIV PUSH1 0xFF AND ISZERO PUSH2 0x499 JUMPI PUSH1 0x0 DUP1 REVERT JUMPDEST PUSH1 0x0 DUP2 DUP2 SLOAD DUP2 LT PUSH2 0x4AD JUMPI PUSH2 0x4AC PUSH2 0x13FB JUMP JUMPDEST JUMPDEST SWAP1 PUSH1 0x0 MSTORE PUSH1 0x20 PUSH1 0x0 KECCAK256 SWAP1 PUSH1 0x5 MUL ADD PUSH1 0x2 ADD PUSH1 0x0 SWAP1 SLOAD SWAP1 PUSH2 0x100 EXP SWAP1 DIV PUSH20 0xFFFFFFFFFFFFFFFFFFFFFFFFFFFFFFFFFFFFFFFF AND PUSH20 0xFFFFFFFFFFFFFFFFFFFFFFFFFFFFFFFFFFFFFFFF AND PUSH2 0x8FC PUSH1 0x0 DUP4 DUP2 SLOAD DUP2 LT PUSH2 0x50C JUMPI PUSH2 0x50B PUSH2 0x13FB JUMP JUMPDEST JUMPDEST SWAP1 PUSH1 0x0 MSTORE PUSH1 0x20 PUSH1 0x0 KECCAK256 SWAP1 PUSH1 0x5 MUL ADD PUSH1 0x1 ADD SLOAD SWAP1 DUP2 ISZERO MUL SWAP1 PUSH1 0x40 MLOAD PUSH1 0x0 PUSH1 0x40 MLOAD DUP1 DUP4 SUB DUP2 DUP6 DUP9 DUP9 CALL SWAP4 POP POP POP POP ISZERO DUP1 ISZERO PUSH2 0x549 JUMPI RETURNDATASIZE PUSH1 0x0 DUP1 RETURNDATACOPY RETURNDATASIZE PUSH1 0x0 REVERT JUMPDEST POP PUSH1 0x1 PUSH1 0x0 DUP3 DUP2 SLOAD DUP2 LT PUSH2 0x560 JUMPI PUSH2 0x55F PUSH2 0x13FB JUMP JUMPDEST JUMPDEST SWAP1 PUSH1 0x0 MSTORE PUSH1 0x20 PUSH1 0x0 KECCAK256 SWAP1 PUSH1 0x5 MUL ADD PUSH1 0x2 ADD PUSH1 0x14 PUSH2 0x100 EXP DUP2 SLOAD DUP2 PUSH1 0xFF MUL NOT AND SWAP1 DUP4 ISZERO ISZERO MUL OR SWAP1 SSTORE POP POP JUMP JUMPDEST PUSH1 0x8 PUSH1 0x20 MSTORE DUP1 PUSH1 0x0 MSTORE PUSH1 0x40 PUSH1 0x0 KECCAK256 PUSH1 0x0 SWAP2 POP SLOAD SWAP1 PUSH2 0x100 EXP SWAP1 DIV PUSH1 0xFF AND DUP2 JUMP JUMPDEST PUSH1 0x7 DUP2 DUP2 SLOAD DUP2 LT PUSH2 0x5BB JUMPI PUSH1 0x0 DUP1 REVERT JUMPDEST SWAP1 PUSH1 0x0 MSTORE PUSH1 0x20 PUSH1 0x0 KECCAK256 ADD PUSH1 0x0 SWAP2 POP SLOAD SWAP1 PUSH2 0x100 EXP SWAP1 DIV PUSH20 0xFFFFFFFFFFFFFFFFFFFFFFFFFFFFFFFFFFFFFFFF AND DUP2 JUMP JUMPDEST PUSH1 0x0 DUP1 DUP1 SLOAD SWAP1 POP SWAP1 POP SWAP1 JUMP JUMPDEST PUSH1 0x0 DUP1 PUSH1 0x0 DUP1 PUSH1 0x0 PUSH1 0x60 DUP1 PUSH1 0x60 PUSH1 0x0 PUSH1 0x2 SLOAD SELFBALANCE PUSH1 0x0 DUP1 SLOAD SWAP1 POP PUSH1 0x9 SLOAD PUSH1 0x1 PUSH1 0x0 SWAP1 SLOAD SWAP1 PUSH2 0x100 EXP SWAP1 DIV PUSH20 0xFFFFFFFFFFFFFFFFFFFFFFFFFFFFFFFFFFFFFFFF AND PUSH1 0x3 PUSH1 0x4 PUSH1 0x5 PUSH1 0x6 SLOAD DUP4 DUP1 SLOAD PUSH2 0x64A SWAP1 PUSH2 0x1459 JUMP JUMPDEST DUP1 PUSH1 0x1F ADD PUSH1 0x20 DUP1 SWAP2 DIV MUL PUSH1 0x20 ADD PUSH1 0x40 MLOAD SWAP1 DUP2 ADD PUSH1 0x40 MSTORE DUP1 SWAP3 SWAP2 SWAP1 DUP2 DUP2 MSTORE PUSH1 0x20 ADD DUP3 DUP1 SLOAD PUSH2 0x676 SWAP1 PUSH2 0x1459 JUMP JUMPDEST DUP1 ISZERO PUSH2 0x6C3 JUMPI DUP1 PUSH1 0x1F LT PUSH2 0x698 JUMPI PUSH2 0x100 DUP1 DUP4 SLOAD DIV MUL DUP4 MSTORE SWAP2 PUSH1 0x20 ADD SWAP2 PUSH2 0x6C3 JUMP JUMPDEST DUP3 ADD SWAP2 SWAP1 PUSH1 0x0 MSTORE PUSH1 0x20 PUSH1 0x0 KECCAK256 SWAP1 JUMPDEST DUP2 SLOAD DUP2 MSTORE SWAP1 PUSH1 0x1 ADD SWAP1 PUSH1 0x20 ADD DUP1 DUP4 GT PUSH2 0x6A6 JUMPI DUP3 SWAP1 SUB PUSH1 0x1F AND DUP3 ADD SWAP2 JUMPDEST POP POP POP POP POP SWAP4 POP DUP3 DUP1 SLOAD PUSH2 0x6D6 SWAP1 PUSH2 0x1459 JUMP JUMPDEST DUP1 PUSH1 0x1F ADD PUSH1 0x20 DUP1 SWAP2 DIV MUL PUSH1 0x20 ADD PUSH1 0x40 MLOAD SWAP1 DUP2 ADD PUSH1 0x40 MSTORE DUP1 SWAP3 SWAP2 SWAP1 DUP2 DUP2 MSTORE PUSH1 0x20 ADD DUP3 DUP1 SLOAD PUSH2 0x702 SWAP1 PUSH2 0x1459 JUMP JUMPDEST DUP1 ISZERO PUSH2 0x74F JUMPI DUP1 PUSH1 0x1F LT PUSH2 0x724 JUMPI PUSH2 0x100 DUP1 DUP4 SLOAD DIV MUL DUP4 MSTORE SWAP2 PUSH1 0x20 ADD SWAP2 PUSH2 0x74F JUMP JUMPDEST DUP3 ADD SWAP2 SWAP1 PUSH1 0x0 MSTORE PUSH1 0x20 PUSH1 0x0 KECCAK256 SWAP1 JUMPDEST DUP2 SLOAD DUP2 MSTORE SWAP1 PUSH1 0x1 ADD SWAP1 PUSH1 0x20 ADD DUP1 DUP4 GT PUSH2 0x732 JUMPI DUP3 SWAP1 SUB PUSH1 0x1F AND DUP3 ADD SWAP2 JUMPDEST POP POP POP POP POP SWAP3 POP DUP2 DUP1 SLOAD PUSH2 0x762 SWAP1 PUSH2 0x1459 JUMP JUMPDEST DUP1 PUSH1 0x1F ADD PUSH1 0x20 DUP1 SWAP2 DIV MUL PUSH1 0x20 ADD PUSH1 0x40 MLOAD SWAP1 DUP2 ADD PUSH1 0x40 MSTORE DUP1 SWAP3 SWAP2 SWAP1 DUP2 DUP2 MSTORE PUSH1 0x20 ADD DUP3 DUP1 SLOAD PUSH2 0x78E SWAP1 PUSH2 0x1459 JUMP JUMPDEST DUP1 ISZERO PUSH2 0x7DB JUMPI DUP1 PUSH1 0x1F LT PUSH2 0x7B0 JUMPI PUSH2 0x100 DUP1 DUP4 SLOAD DIV MUL DUP4 MSTORE SWAP2 PUSH1 0x20 ADD SWAP2 PUSH2 0x7DB JUMP JUMPDEST DUP3 ADD SWAP2 SWAP1 PUSH1 0x0 MSTORE PUSH1 0x20 PUSH1 0x0 KECCAK256 SWAP1 JUMPDEST DUP2 SLOAD DUP2 MSTORE SWAP1 PUSH1 0x1 ADD SWAP1 PUSH1 0x20 ADD DUP1 DUP4 GT PUSH2 0x7BE JUMPI DUP3 SWAP1 SUB PUSH1 0x1F AND DUP3 ADD SWAP2 JUMPDEST POP POP POP POP POP SWAP2 POP SWAP9 POP SWAP9 POP SWAP9 POP SWAP9 POP SWAP9 POP SWAP9 POP SWAP9 POP SWAP9 POP SWAP9 POP SWAP1 SWAP2 SWAP3 SWAP4 SWAP5 SWAP6 SWAP7 SWAP8 SWAP9 JUMP JUMPDEST PUSH1 0x1 PUSH1 0x0 SWAP1 SLOAD SWAP1 PUSH2 0x100 EXP SWAP1 DIV PUSH20 0xFFFFFFFFFFFFFFFFFFFFFFFFFFFFFFFFFFFFFFFF AND DUP2 JUMP JUMPDEST PUSH1 0x3 DUP1 SLOAD PUSH2 0x832 SWAP1 PUSH2 0x1459 JUMP JUMPDEST DUP1 PUSH1 0x1F ADD PUSH1 0x20 DUP1 SWAP2 DIV MUL PUSH1 0x20 ADD PUSH1 0x40 MLOAD SWAP1 DUP2 ADD PUSH1 0x40 MSTORE DUP1 SWAP3 SWAP2 SWAP1 DUP2 DUP2 MSTORE PUSH1 0x20 ADD DUP3 DUP1 SLOAD PUSH2 0x85E SWAP1 PUSH2 0x1459 JUMP JUMPDEST DUP1 ISZERO PUSH2 0x8AB JUMPI DUP1 PUSH1 0x1F LT PUSH2 0x880 JUMPI PUSH2 0x100 DUP1 DUP4 SLOAD DIV MUL DUP4 MSTORE SWAP2 PUSH1 0x20 ADD SWAP2 PUSH2 0x8AB JUMP JUMPDEST DUP3 ADD SWAP2 SWAP1 PUSH1 0x0 MSTORE PUSH1 0x20 PUSH1 0x0 KECCAK256 SWAP1 JUMPDEST DUP2 SLOAD DUP2 MSTORE SWAP1 PUSH1 0x1 ADD SWAP1 PUSH1 0x20 ADD DUP1 DUP4 GT PUSH2 0x88E JUMPI DUP3 SWAP1 SUB PUSH1 0x1F AND DUP3 ADD SWAP2 JUMPDEST POP POP POP POP POP DUP2 JUMP JUMPDEST PUSH1 0x0 DUP2 DUP2 SLOAD DUP2 LT PUSH2 0x8C3 JUMPI PUSH1 0x0 DUP1 REVERT JUMPDEST SWAP1 PUSH1 0x0 MSTORE PUSH1 0x20 PUSH1 0x0 KECCAK256 SWAP1 PUSH1 0x5 MUL ADD PUSH1 0x0 SWAP2 POP SWAP1 POP DUP1 PUSH1 0x0 ADD DUP1 SLOAD PUSH2 0x8E6 SWAP1 PUSH2 0x1459 JUMP JUMPDEST DUP1 PUSH1 0x1F ADD PUSH1 0x20 DUP1 SWAP2 DIV MUL PUSH1 0x20 ADD PUSH1 0x40 MLOAD SWAP1 DUP2 ADD PUSH1 0x40 MSTORE DUP1 SWAP3 SWAP2 SWAP1 DUP2 DUP2 MSTORE PUSH1 0x20 ADD DUP3 DUP1 SLOAD PUSH2 0x912 SWAP1 PUSH2 0x1459 JUMP JUMPDEST DUP1 ISZERO PUSH2 0x95F JUMPI DUP1 PUSH1 0x1F LT PUSH2 0x934 JUMPI PUSH2 0x100 DUP1 DUP4 SLOAD DIV MUL DUP4 MSTORE SWAP2 PUSH1 0x20 ADD SWAP2 PUSH2 0x95F JUMP JUMPDEST DUP3 ADD SWAP2 SWAP1 PUSH1 0x0 MSTORE PUSH1 0x20 PUSH1 0x0 KECCAK256 SWAP1 JUMPDEST DUP2 SLOAD DUP2 MSTORE SWAP1 PUSH1 0x1 ADD SWAP1 PUSH1 0x20 ADD DUP1 DUP4 GT PUSH2 0x942 JUMPI DUP3 SWAP1 SUB PUSH1 0x1F AND DUP3 ADD SWAP2 JUMPDEST POP POP POP POP POP SWAP1 DUP1 PUSH1 0x1 ADD SLOAD SWAP1 DUP1 PUSH1 0x2 ADD PUSH1 0x0 SWAP1 SLOAD SWAP1 PUSH2 0x100 EXP SWAP1 DIV PUSH20 0xFFFFFFFFFFFFFFFFFFFFFFFFFFFFFFFFFFFFFFFF AND SWAP1 DUP1 PUSH1 0x2 ADD PUSH1 0x14 SWAP1 SLOAD SWAP1 PUSH2 0x100 EXP SWAP1 DIV PUSH1 0xFF AND SWAP1 DUP1 PUSH1 0x3 ADD SLOAD SWAP1 POP DUP6 JUMP JUMPDEST PUSH1 0x9 SLOAD DUP2 JUMP JUMPDEST PUSH1 0x1 PUSH1 0x0 SWAP1 SLOAD SWAP1 PUSH2 0x100 EXP SWAP1 DIV PUSH20 0xFFFFFFFFFFFFFFFFFFFFFFFFFFFFFFFFFFFFFFFF AND PUSH20 0xFFFFFFFFFFFFFFFFFFFFFFFFFFFFFFFFFFFFFFFF AND CALLER PUSH20 0xFFFFFFFFFFFFFFFFFFFFFFFFFFFFFFFFFFFFFFFF AND EQ PUSH2 0xA0E JUMPI PUSH1 0x0 DUP1 REVERT JUMPDEST PUSH1 0x0 DUP1 PUSH1 0x1 DUP2 PUSH1 0x1 DUP2 SLOAD ADD DUP1 DUP3 SSTORE DUP1 SWAP2 POP POP SUB SWAP1 PUSH1 0x0 MSTORE PUSH1 0x20 PUSH1 0x0 KECCAK256 SWAP1 PUSH1 0x5 MUL ADD SWAP1 POP DUP4 DUP2 PUSH1 0x0 ADD SWAP1 DUP2 PUSH2 0xA42 SWAP2 SWAP1 PUSH2 0x1636 JUMP JUMPDEST POP DUP3 DUP2 PUSH1 0x1 ADD DUP2 SWAP1 SSTORE POP DUP2 DUP2 PUSH1 0x2 ADD PUSH1 0x0 PUSH2 0x100 EXP DUP2 SLOAD DUP2 PUSH20 0xFFFFFFFFFFFFFFFFFFFFFFFFFFFFFFFFFFFFFFFF MUL NOT AND SWAP1 DUP4 PUSH20 0xFFFFFFFFFFFFFFFFFFFFFFFFFFFFFFFFFFFFFFFF AND MUL OR SWAP1 SSTORE POP PUSH1 0x0 DUP2 PUSH1 0x2 ADD PUSH1 0x14 PUSH2 0x100 EXP DUP2 SLOAD DUP2 PUSH1 0xFF MUL NOT AND SWAP1 DUP4 ISZERO ISZERO MUL OR SWAP1 SSTORE POP PUSH1 0x0 DUP2 PUSH1 0x3 ADD DUP2 SWAP1 SSTORE POP POP POP POP POP JUMP JUMPDEST PUSH1 0x4 DUP1 SLOAD PUSH2 0xAC9 SWAP1 PUSH2 0x1459 JUMP JUMPDEST DUP1 PUSH1 0x1F ADD PUSH1 0x20 DUP1 SWAP2 DIV MUL PUSH1 0x20 ADD PUSH1 0x40 MLOAD SWAP1 DUP2 ADD PUSH1 0x40 MSTORE DUP1 SWAP3 SWAP2 SWAP1 DUP2 DUP2 MSTORE PUSH1 0x20 ADD DUP3 DUP1 SLOAD PUSH2 0xAF5 SWAP1 PUSH2 0x1459 JUMP JUMPDEST DUP1 ISZERO PUSH2 0xB42 JUMPI DUP1 PUSH1 0x1F LT PUSH2 0xB17 JUMPI PUSH2 0x100 DUP1 DUP4 SLOAD DIV MUL DUP4 MSTORE SWAP2 PUSH1 0x20 ADD SWAP2 PUSH2 0xB42 JUMP JUMPDEST DUP3 ADD SWAP2 SWAP1 PUSH1 0x0 MSTORE PUSH1 0x20 PUSH1 0x0 KECCAK256 SWAP1 JUMPDEST DUP2 SLOAD DUP2 MSTORE SWAP1 PUSH1 0x1 ADD SWAP1 PUSH1 0x20 ADD DUP1 DUP4 GT PUSH2 0xB25 JUMPI DUP3 SWAP1 SUB PUSH1 0x1F AND DUP3 ADD SWAP2 JUMPDEST POP POP POP POP POP DUP2 JUMP JUMPDEST PUSH1 0x2 SLOAD DUP2 JUMP JUMPDEST PUSH1 0x5 DUP1 SLOAD PUSH2 0xB5D SWAP1 PUSH2 0x1459 JUMP JUMPDEST DUP1 PUSH1 0x1F ADD PUSH1 0x20 DUP1 SWAP2 DIV MUL PUSH1 0x20 ADD PUSH1 0x40 MLOAD SWAP1 DUP2 ADD PUSH1 0x40 MSTORE DUP1 SWAP3 SWAP2 SWAP1 DUP2 DUP2 MSTORE PUSH1 0x20 ADD DUP3 DUP1 SLOAD PUSH2 0xB89 SWAP1 PUSH2 0x1459 JUMP JUMPDEST DUP1 ISZERO PUSH2 0xBD6 JUMPI DUP1 PUSH1 0x1F LT PUSH2 0xBAB JUMPI PUSH2 0x100 DUP1 DUP4 SLOAD DIV MUL DUP4 MSTORE SWAP2 PUSH1 0x20 ADD SWAP2 PUSH2 0xBD6 JUMP JUMPDEST DUP3 ADD SWAP2 SWAP1 PUSH1 0x0 MSTORE PUSH1 0x20 PUSH1 0x0 KECCAK256 SWAP1 JUMPDEST DUP2 SLOAD DUP2 MSTORE SWAP1 PUSH1 0x1 ADD SWAP1 PUSH1 0x20 ADD DUP1 DUP4 GT PUSH2 0xBB9 JUMPI DUP3 SWAP1 SUB PUSH1 0x1F AND DUP3 ADD SWAP2 JUMPDEST POP POP POP POP POP DUP2 JUMP JUMPDEST PUSH1 0x6 SLOAD DUP2 JUMP JUMPDEST PUSH1 0x8 PUSH1 0x0 CALLER PUSH20 0xFFFFFFFFFFFFFFFFFFFFFFFFFFFFFFFFFFFFFFFF AND PUSH20 0xFFFFFFFFFFFFFFFFFFFFFFFFFFFFFFFFFFFFFFFF AND DUP2 MSTORE PUSH1 0x20 ADD SWAP1 DUP2 MSTORE PUSH1 0x20 ADD PUSH1 0x0 KECCAK256 PUSH1 0x0 SWAP1 SLOAD SWAP1 PUSH2 0x100 EXP SWAP1 DIV PUSH1 0xFF AND PUSH2 0xC3A JUMPI PUSH1 0x0 DUP1 REVERT JUMPDEST PUSH1 0x0 DUP2 DUP2 SLOAD DUP2 LT PUSH2 0xC4E JUMPI PUSH2 0xC4D PUSH2 0x13FB JUMP JUMPDEST JUMPDEST SWAP1 PUSH1 0x0 MSTORE PUSH1 0x20 PUSH1 0x0 KECCAK256 SWAP1 PUSH1 0x5 MUL ADD PUSH1 0x4 ADD PUSH1 0x0 CALLER PUSH20 0xFFFFFFFFFFFFFFFFFFFFFFFFFFFFFFFFFFFFFFFF AND PUSH20 0xFFFFFFFFFFFFFFFFFFFFFFFFFFFFFFFFFFFFFFFF AND DUP2 MSTORE PUSH1 0x20 ADD SWAP1 DUP2 MSTORE PUSH1 0x20 ADD PUSH1 0x0 KECCAK256 PUSH1 0x0 SWAP1 SLOAD SWAP1 PUSH2 0x100 EXP SWAP1 DIV PUSH1 0xFF AND ISZERO PUSH2 0xCB4 JUMPI PUSH1 0x0 DUP1 REVERT JUMPDEST PUSH1 0x1 PUSH1 0x0 DUP3 DUP2 SLOAD DUP2 LT PUSH2 0xCCA JUMPI PUSH2 0xCC9 PUSH2 0x13FB JUMP JUMPDEST JUMPDEST SWAP1 PUSH1 0x0 MSTORE PUSH1 0x20 PUSH1 0x0 KECCAK256 SWAP1 PUSH1 0x5 MUL ADD PUSH1 0x4 ADD PUSH1 0x0 CALLER PUSH20 0xFFFFFFFFFFFFFFFFFFFFFFFFFFFFFFFFFFFFFFFF AND PUSH20 0xFFFFFFFFFFFFFFFFFFFFFFFFFFFFFFFFFFFFFFFF AND DUP2 MSTORE PUSH1 0x20 ADD SWAP1 DUP2 MSTORE PUSH1 0x20 ADD PUSH1 0x0 KECCAK256 PUSH1 0x0 PUSH2 0x100 EXP DUP2 SLOAD DUP2 PUSH1 0xFF MUL NOT AND SWAP1 DUP4 ISZERO ISZERO MUL OR SWAP1 SSTORE POP PUSH1 0x0 DUP2 DUP2 SLOAD DUP2 LT PUSH2 0xD43 JUMPI PUSH2 0xD42 PUSH2 0x13FB JUMP JUMPDEST JUMPDEST SWAP1 PUSH1 0x0 MSTORE PUSH1 0x20 PUSH1 0x0 KECCAK256 SWAP1 PUSH1 0x5 MUL ADD PUSH1 0x3 ADD PUSH1 0x0 DUP2 SLOAD DUP1 SWAP3 SWAP2 SWAP1 PUSH2 0xD65 SWAP1 PUSH2 0x1708 JUMP JUMPDEST SWAP2 SWAP1 POP SSTORE POP POP JUMP JUMPDEST PUSH1 0x2 SLOAD CALLVALUE GT PUSH2 0xD7B JUMPI PUSH1 0x0 DUP1 REVERT JUMPDEST PUSH1 0x7 CALLER SWAP1 DUP1 PUSH1 0x1 DUP2 SLOAD ADD DUP1 DUP3 SSTORE DUP1 SWAP2 POP POP PUSH1 0x1 SWAP1 SUB SWAP1 PUSH1 0x0 MSTORE PUSH1 0x20 PUSH1 0x0 KECCAK256 ADD PUSH1 0x0 SWAP1 SWAP2 SWAP1 SWAP2 SWAP1 SWAP2 PUSH2 0x100 EXP DUP2 SLOAD DUP2 PUSH20 0xFFFFFFFFFFFFFFFFFFFFFFFFFFFFFFFFFFFFFFFF MUL NOT AND SWAP1 DUP4 PUSH20 0xFFFFFFFFFFFFFFFFFFFFFFFFFFFFFFFFFFFFFFFF AND MUL OR SWAP1 SSTORE POP PUSH1 0x1 PUSH1 0x8 PUSH1 0x0 CALLER PUSH20 0xFFFFFFFFFFFFFFFFFFFFFFFFFFFFFFFFFFFFFFFF AND PUSH20 0xFFFFFFFFFFFFFFFFFFFFFFFFFFFFFFFFFFFFFFFF AND DUP2 MSTORE PUSH1 0x20 ADD SWAP1 DUP2 MSTORE PUSH1 0x20 ADD PUSH1 0x0 KECCAK256 PUSH1 0x0 PUSH2 0x100 EXP DUP2 SLOAD DUP2 PUSH1 0xFF MUL NOT AND SWAP1 DUP4 ISZERO ISZERO MUL OR SWAP1 SSTORE POP PUSH1 0x9 PUSH1 0x0 DUP2 SLOAD DUP1 SWAP3 SWAP2 SWAP1 PUSH2 0xE49 SWAP1 PUSH2 0x1708 JUMP JUMPDEST SWAP2 SWAP1 POP SSTORE POP JUMP JUMPDEST PUSH1 0x0 PUSH1 0x40 MLOAD SWAP1 POP SWAP1 JUMP JUMPDEST PUSH1 0x0 DUP1 REVERT JUMPDEST PUSH1 0x0 DUP1 REVERT JUMPDEST PUSH1 0x0 DUP2 SWAP1 POP SWAP2 SWAP1 POP JUMP JUMPDEST PUSH2 0xE77 DUP2 PUSH2 0xE64 JUMP JUMPDEST DUP2 EQ PUSH2 0xE82 JUMPI PUSH1 0x0 DUP1 REVERT JUMPDEST POP JUMP JUMPDEST PUSH1 0x0 DUP2 CALLDATALOAD SWAP1 POP PUSH2 0xE94 DUP2 PUSH2 0xE6E JUMP JUMPDEST SWAP3 SWAP2 POP POP JUMP JUMPDEST PUSH1 0x0 PUSH1 0x20 DUP3 DUP5 SUB SLT ISZERO PUSH2 0xEB0 JUMPI PUSH2 0xEAF PUSH2 0xE5A JUMP JUMPDEST JUMPDEST PUSH1 0x0 PUSH2 0xEBE DUP5 DUP3 DUP6 ADD PUSH2 0xE85 JUMP JUMPDEST SWAP2 POP POP SWAP3 SWAP2 POP POP JUMP JUMPDEST PUSH1 0x0 PUSH20 0xFFFFFFFFFFFFFFFFFFFFFFFFFFFFFFFFFFFFFFFF DUP3 AND SWAP1 POP SWAP2 SWAP1 POP JUMP JUMPDEST PUSH1 0x0 PUSH2 0xEF2 DUP3 PUSH2 0xEC7 JUMP JUMPDEST SWAP1 POP SWAP2 SWAP1 POP JUMP JUMPDEST PUSH2 0xF02 DUP2 PUSH2 0xEE7 JUMP JUMPDEST DUP2 EQ PUSH2 0xF0D JUMPI PUSH1 0x0 DUP1 REVERT JUMPDEST POP JUMP JUMPDEST PUSH1 0x0 DUP2 CALLDATALOAD SWAP1 POP PUSH2 0xF1F DUP2 PUSH2 0xEF9 JUMP JUMPDEST SWAP3 SWAP2 POP POP JUMP JUMPDEST PUSH1 0x0 PUSH1 0x20 DUP3 DUP5 SUB SLT ISZERO PUSH2 0xF3B JUMPI PUSH2 0xF3A PUSH2 0xE5A JUMP JUMPDEST JUMPDEST PUSH1 0x0 PUSH2 0xF49 DUP5 DUP3 DUP6 ADD PUSH2 0xF10 JUMP JUMPDEST SWAP2 POP POP SWAP3 SWAP2 POP POP JUMP JUMPDEST PUSH1 0x0 DUP2 ISZERO ISZERO SWAP1 POP SWAP2 SWAP1 POP JUMP JUMPDEST PUSH2 0xF67 DUP2 PUSH2 0xF52 JUMP JUMPDEST DUP3 MSTORE POP POP JUMP JUMPDEST PUSH1 0x0 PUSH1 0x20 DUP3 ADD SWAP1 POP PUSH2 0xF82 PUSH1 0x0 DUP4 ADD DUP5 PUSH2 0xF5E JUMP JUMPDEST SWAP3 SWAP2 POP POP JUMP JUMPDEST PUSH2 0xF91 DUP2 PUSH2 0xEE7 JUMP JUMPDEST DUP3 MSTORE POP POP JUMP JUMPDEST PUSH1 0x0 PUSH1 0x20 DUP3 ADD SWAP1 POP PUSH2 0xFAC PUSH1 0x0 DUP4 ADD DUP5 PUSH2 0xF88 JUMP JUMPDEST SWAP3 SWAP2 POP POP JUMP JUMPDEST PUSH2 0xFBB DUP2 PUSH2 0xE64 JUMP JUMPDEST DUP3 MSTORE POP POP JUMP JUMPDEST PUSH1 0x0 PUSH1 0x20 DUP3 ADD SWAP1 POP PUSH2 0xFD6 PUSH1 0x0 DUP4 ADD DUP5 PUSH2 0xFB2 JUMP JUMPDEST SWAP3 SWAP2 POP POP JUMP JUMPDEST PUSH1 0x0 DUP2 MLOAD SWAP1 POP SWAP2 SWAP1 POP JUMP JUMPDEST PUSH1 0x0 DUP3 DUP3 MSTORE PUSH1 0x20 DUP3 ADD SWAP1 POP SWAP3 SWAP2 POP POP JUMP JUMPDEST PUSH1 0x0 JUMPDEST DUP4 DUP2 LT ISZERO PUSH2 0x1016 JUMPI DUP1 DUP3 ADD MLOAD DUP2 DUP5 ADD MSTORE PUSH1 0x20 DUP2 ADD SWAP1 POP PUSH2 0xFFB JUMP JUMPDEST PUSH1 0x0 DUP5 DUP5 ADD MSTORE POP POP POP POP JUMP JUMPDEST PUSH1 0x0 PUSH1 0x1F NOT PUSH1 0x1F DUP4 ADD AND SWAP1 POP SWAP2 SWAP1 POP JUMP JUMPDEST PUSH1 0x0 PUSH2 0x103E DUP3 PUSH2 0xFDC JUMP JUMPDEST PUSH2 0x1048 DUP2 DUP6 PUSH2 0xFE7 JUMP JUMPDEST SWAP4 POP PUSH2 0x1058 DUP2 DUP6 PUSH1 0x20 DUP7 ADD PUSH2 0xFF8 JUMP JUMPDEST PUSH2 0x1061 DUP2 PUSH2 0x1022 JUMP JUMPDEST DUP5 ADD SWAP2 POP POP SWAP3 SWAP2 POP POP JUMP JUMPDEST PUSH1 0x0 PUSH2 0x120 DUP3 ADD SWAP1 POP PUSH2 0x1082 PUSH1 0x0 DUP4 ADD DUP13 PUSH2 0xFB2 JUMP JUMPDEST PUSH2 0x108F PUSH1 0x20 DUP4 ADD DUP12 PUSH2 0xFB2 JUMP JUMPDEST PUSH2 0x109C PUSH1 0x40 DUP4 ADD DUP11 PUSH2 0xFB2 JUMP JUMPDEST PUSH2 0x10A9 PUSH1 0x60 DUP4 ADD DUP10 PUSH2 0xFB2 JUMP JUMPDEST PUSH2 0x10B6 PUSH1 0x80 DUP4 ADD DUP9 PUSH2 0xF88 JUMP JUMPDEST DUP2 DUP2 SUB PUSH1 0xA0 DUP4 ADD MSTORE PUSH2 0x10C8 DUP2 DUP8 PUSH2 0x1033 JUMP JUMPDEST SWAP1 POP DUP2 DUP2 SUB PUSH1 0xC0 DUP4 ADD MSTORE PUSH2 0x10DC DUP2 DUP7 PUSH2 0x1033 JUMP JUMPDEST SWAP1 POP DUP2 DUP2 SUB PUSH1 0xE0 DUP4 ADD MSTORE PUSH2 0x10F0 DUP2 DUP6 PUSH2 0x1033 JUMP JUMPDEST SWAP1 POP PUSH2 0x1100 PUSH2 0x100 DUP4 ADD DUP5 PUSH2 0xFB2 JUMP JUMPDEST SWAP11 SWAP10 POP POP POP POP POP POP POP POP POP POP JUMP JUMPDEST PUSH1 0x0 PUSH1 0x20 DUP3 ADD SWAP1 POP DUP2 DUP2 SUB PUSH1 0x0 DUP4 ADD MSTORE PUSH2 0x1128 DUP2 DUP5 PUSH2 0x1033 JUMP JUMPDEST SWAP1 POP SWAP3 SWAP2 POP POP JUMP JUMPDEST PUSH1 0x0 PUSH1 0xA0 DUP3 ADD SWAP1 POP DUP2 DUP2 SUB PUSH1 0x0 DUP4 ADD MSTORE PUSH2 0x114A DUP2 DUP9 PUSH2 0x1033 JUMP JUMPDEST SWAP1 POP PUSH2 0x1159 PUSH1 0x20 DUP4 ADD DUP8 PUSH2 0xFB2 JUMP JUMPDEST PUSH2 0x1166 PUSH1 0x40 DUP4 ADD DUP7 PUSH2 0xF88 JUMP JUMPDEST PUSH2 0x1173 PUSH1 0x60 DUP4 ADD DUP6 PUSH2 0xF5E JUMP JUMPDEST PUSH2 0x1180 PUSH1 0x80 DUP4 ADD DUP5 PUSH2 0xFB2 JUMP JUMPDEST SWAP7 SWAP6 POP POP POP POP POP POP JUMP JUMPDEST PUSH1 0x0 DUP1 REVERT JUMPDEST PUSH1 0x0 DUP1 REVERT JUMPDEST PUSH32 0x4E487B7100000000000000000000000000000000000000000000000000000000 PUSH1 0x0 MSTORE PUSH1 0x41 PUSH1 0x4 MSTORE PUSH1 0x24 PUSH1 0x0 REVERT JUMPDEST PUSH2 0x11CC DUP3 PUSH2 0x1022 JUMP JUMPDEST DUP2 ADD DUP2 DUP2 LT PUSH8 0xFFFFFFFFFFFFFFFF DUP3 GT OR ISZERO PUSH2 0x11EB JUMPI PUSH2 0x11EA PUSH2 0x1194 JUMP JUMPDEST JUMPDEST DUP1 PUSH1 0x40 MSTORE POP POP POP JUMP JUMPDEST PUSH1 0x0 PUSH2 0x11FE PUSH2 0xE50 JUMP JUMPDEST SWAP1 POP PUSH2 0x120A DUP3 DUP3 PUSH2 0x11C3 JUMP JUMPDEST SWAP2 SWAP1 POP JUMP JUMPDEST PUSH1 0x0 PUSH8 0xFFFFFFFFFFFFFFFF DUP3 GT ISZERO PUSH2 0x122A JUMPI PUSH2 0x1229 PUSH2 0x1194 JUMP JUMPDEST JUMPDEST PUSH2 0x1233 DUP3 PUSH2 0x1022 JUMP JUMPDEST SWAP1 POP PUSH1 0x20 DUP2 ADD SWAP1 POP SWAP2 SWAP1 POP JUMP JUMPDEST DUP3 DUP2 DUP4 CALLDATACOPY PUSH1 0x0 DUP4 DUP4 ADD MSTORE POP POP POP JUMP JUMPDEST PUSH1 0x0 PUSH2 0x1262 PUSH2 0x125D DUP5 PUSH2 0x120F JUMP JUMPDEST PUSH2 0x11F4 JUMP JUMPDEST SWAP1 POP DUP3 DUP2 MSTORE PUSH1 0x20 DUP2 ADD DUP5 DUP5 DUP5 ADD GT ISZERO PUSH2 0x127E JUMPI PUSH2 0x127D PUSH2 0x118F JUMP JUMPDEST JUMPDEST PUSH2 0x1289 DUP5 DUP3 DUP6 PUSH2 0x1240 JUMP JUMPDEST POP SWAP4 SWAP3 POP POP POP JUMP JUMPDEST PUSH1 0x0 DUP3 PUSH1 0x1F DUP4 ADD SLT PUSH2 0x12A6 JUMPI PUSH2 0x12A5 PUSH2 0x118A JUMP JUMPDEST JUMPDEST DUP2 CALLDATALOAD PUSH2 0x12B6 DUP5 DUP3 PUSH1 0x20 DUP7 ADD PUSH2 0x124F JUMP JUMPDEST SWAP2 POP POP SWAP3 SWAP2 POP POP JUMP JUMPDEST PUSH1 0x0 PUSH2 0x12CA DUP3 PUSH2 0xEC7 JUMP JUMPDEST SWAP1 POP SWAP2 SWAP1 POP JUMP JUMPDEST PUSH2 0x12DA DUP2 PUSH2 0x12BF JUMP JUMPDEST DUP2 EQ PUSH2 0x12E5 JUMPI PUSH1 0x0 DUP1 REVERT JUMPDEST POP JUMP JUMPDEST PUSH1 0x0 DUP2 CALLDATALOAD SWAP1 POP PUSH2 0x12F7 DUP2 PUSH2 0x12D1 JUMP JUMPDEST SWAP3 SWAP2 POP POP JUMP JUMPDEST PUSH1 0x0 DUP1 PUSH1 0x0 PUSH1 0x60 DUP5 DUP7 SUB SLT ISZERO PUSH2 0x1316 JUMPI PUSH2 0x1315 PUSH2 0xE5A JUMP JUMPDEST JUMPDEST PUSH1 0x0 DUP5 ADD CALLDATALOAD PUSH8 0xFFFFFFFFFFFFFFFF DUP2 GT ISZERO PUSH2 0x1334 JUMPI PUSH2 0x1333 PUSH2 0xE5F JUMP JUMPDEST JUMPDEST PUSH2 0x1340 DUP7 DUP3 DUP8 ADD PUSH2 0x1291 JUMP JUMPDEST SWAP4 POP POP PUSH1 0x20 PUSH2 0x1351 DUP7 DUP3 DUP8 ADD PUSH2 0xE85 JUMP JUMPDEST SWAP3 POP POP PUSH1 0x40 PUSH2 0x1362 DUP7 DUP3 DUP8 ADD PUSH2 0x12E8 JUMP JUMPDEST SWAP2 POP POP SWAP3 POP SWAP3 POP SWAP3 JUMP JUMPDEST PUSH32 0x4E487B7100000000000000000000000000000000000000000000000000000000 PUSH1 0x0 MSTORE PUSH1 0x12 PUSH1 0x4 MSTORE PUSH1 0x24 PUSH1 0x0 REVERT JUMPDEST PUSH32 0x4E487B7100000000000000000000000000000000000000000000000000000000 PUSH1 0x0 MSTORE PUSH1 0x11 PUSH1 0x4 MSTORE PUSH1 0x24 PUSH1 0x0 REVERT JUMPDEST PUSH1 0x0 PUSH2 0x13D5 DUP3 PUSH2 0xE64 JUMP JUMPDEST SWAP2 POP PUSH2 0x13E0 DUP4 PUSH2 0xE64 JUMP JUMPDEST SWAP3 POP DUP3 PUSH2 0x13F0 JUMPI PUSH2 0x13EF PUSH2 0x136C JUMP JUMPDEST JUMPDEST DUP3 DUP3 DIV SWAP1 POP SWAP3 SWAP2 POP POP JUMP JUMPDEST PUSH32 0x4E487B7100000000000000000000000000000000000000000000000000000000 PUSH1 0x0 MSTORE PUSH1 0x32 PUSH1 0x4 MSTORE PUSH1 0x24 PUSH1 0x0 REVERT JUMPDEST PUSH32 0x4E487B7100000000000000000000000000000000000000000000000000000000 PUSH1 0x0 MSTORE PUSH1 0x22 PUSH1 0x4 MSTORE PUSH1 0x24 PUSH1 0x0 REVERT JUMPDEST PUSH1 0x0 PUSH1 0x2 DUP3 DIV SWAP1 POP PUSH1 0x1 DUP3 AND DUP1 PUSH2 0x1471 JUMPI PUSH1 0x7F DUP3 AND SWAP2 POP JUMPDEST PUSH1 0x20 DUP3 LT DUP2 SUB PUSH2 0x1484 JUMPI PUSH2 0x1483 PUSH2 0x142A JUMP JUMPDEST JUMPDEST POP SWAP2 SWAP1 POP JUMP JUMPDEST PUSH1 0x0 DUP2 SWAP1 POP DUP2 PUSH1 0x0 MSTORE PUSH1 0x20 PUSH1 0x0 KECCAK256 SWAP1 POP SWAP2 SWAP1 POP JUMP JUMPDEST PUSH1 0x0 PUSH1 0x20 PUSH1 0x1F DUP4 ADD DIV SWAP1 POP SWAP2 SWAP1 POP JUMP JUMPDEST PUSH1 0x0 DUP3 DUP3 SHL SWAP1 POP SWAP3 SWAP2 POP POP JUMP JUMPDEST PUSH1 0x0 PUSH1 0x8 DUP4 MUL PUSH2 0x14EC PUSH32 0xFFFFFFFFFFFFFFFFFFFFFFFFFFFFFFFFFFFFFFFFFFFFFFFFFFFFFFFFFFFFFFFF DUP3 PUSH2 0x14AF JUMP JUMPDEST PUSH2 0x14F6 DUP7 DUP4 PUSH2 0x14AF JUMP JUMPDEST SWAP6 POP DUP1 NOT DUP5 AND SWAP4 POP DUP1 DUP7 AND DUP5 OR SWAP3 POP POP POP SWAP4 SWAP3 POP POP POP JUMP JUMPDEST PUSH1 0x0 DUP2 SWAP1 POP SWAP2 SWAP1 POP JUMP JUMPDEST PUSH1 0x0 PUSH2 0x1533 PUSH2 0x152E PUSH2 0x1529 DUP5 PUSH2 0xE64 JUMP JUMPDEST PUSH2 0x150E JUMP JUMPDEST PUSH2 0xE64 JUMP JUMPDEST SWAP1 POP SWAP2 SWAP1 POP JUMP JUMPDEST PUSH1 0x0 DUP2 SWAP1 POP SWAP2 SWAP1 POP JUMP JUMPDEST PUSH2 0x154D DUP4 PUSH2 0x1518 JUMP JUMPDEST PUSH2 0x1561 PUSH2 0x1559 DUP3 PUSH2 0x153A JUMP JUMPDEST DUP5 DUP5 SLOAD PUSH2 0x14BC JUMP JUMPDEST DUP3 SSTORE POP POP POP POP JUMP JUMPDEST PUSH1 0x0 SWAP1 JUMP JUMPDEST PUSH2 0x1576 PUSH2 0x1569 JUMP JUMPDEST PUSH2 0x1581 DUP2 DUP5 DUP5 PUSH2 0x1544 JUMP JUMPDEST POP POP POP JUMP JUMPDEST JUMPDEST DUP2 DUP2 LT ISZERO PUSH2 0x15A5 JUMPI PUSH2 0x159A PUSH1 0x0 DUP3 PUSH2 0x156E JUMP JUMPDEST PUSH1 0x1 DUP2 ADD SWAP1 POP PUSH2 0x1587 JUMP JUMPDEST POP POP JUMP JUMPDEST PUSH1 0x1F DUP3 GT ISZERO PUSH2 0x15EA JUMPI PUSH2 0x15BB DUP2 PUSH2 0x148A JUMP JUMPDEST PUSH2 0x15C4 DUP5 PUSH2 0x149F JUMP JUMPDEST DUP2 ADD PUSH1 0x20 DUP6 LT ISZERO PUSH2 0x15D3 JUMPI DUP2 SWAP1 POP JUMPDEST PUSH2 0x15E7 PUSH2 0x15DF DUP6 PUSH2 0x149F JUMP JUMPDEST DUP4 ADD DUP3 PUSH2 0x1586 JUMP JUMPDEST POP POP JUMPDEST POP POP POP JUMP JUMPDEST PUSH1 0x0 DUP3 DUP3 SHR SWAP1 POP SWAP3 SWAP2 POP POP JUMP JUMPDEST PUSH1 0x0 PUSH2 0x160D PUSH1 0x0 NOT DUP5 PUSH1 0x8 MUL PUSH2 0x15EF JUMP JUMPDEST NOT DUP1 DUP4 AND SWAP2 POP POP SWAP3 SWAP2 POP POP JUMP JUMPDEST PUSH1 0x0 PUSH2 0x1626 DUP4 DUP4 PUSH2 0x15FC JUMP JUMPDEST SWAP2 POP DUP3 PUSH1 0x2 MUL DUP3 OR SWAP1 POP SWAP3 SWAP2 POP POP JUMP JUMPDEST PUSH2 0x163F DUP3 PUSH2 0xFDC JUMP JUMPDEST PUSH8 0xFFFFFFFFFFFFFFFF DUP2 GT ISZERO PUSH2 0x1658 JUMPI PUSH2 0x1657 PUSH2 0x1194 JUMP JUMPDEST JUMPDEST PUSH2 0x1662 DUP3 SLOAD PUSH2 0x1459 JUMP JUMPDEST PUSH2 0x166D DUP3 DUP3 DUP6 PUSH2 0x15A9 JUMP JUMPDEST PUSH1 0x0 PUSH1 0x20 SWAP1 POP PUSH1 0x1F DUP4 GT PUSH1 0x1 DUP2 EQ PUSH2 0x16A0 JUMPI PUSH1 0x0 DUP5 ISZERO PUSH2 0x168E JUMPI DUP3 DUP8 ADD MLOAD SWAP1 POP JUMPDEST PUSH2 0x1698 DUP6 DUP3 PUSH2 0x161A JUMP JUMPDEST DUP7 SSTORE POP PUSH2 0x1700 JUMP JUMPDEST PUSH1 0x1F NOT DUP5 AND PUSH2 0x16AE DUP7 PUSH2 0x148A JUMP JUMPDEST PUSH1 0x0 JUMPDEST DUP3 DUP2 LT ISZERO PUSH2 0x16D6 JUMPI DUP5 DUP10 ADD MLOAD DUP3 SSTORE PUSH1 0x1 DUP3 ADD SWAP2 POP PUSH1 0x20 DUP6 ADD SWAP5 POP PUSH1 0x20 DUP2 ADD SWAP1 POP PUSH2 0x16B1 JUMP JUMPDEST DUP7 DUP4 LT ISZERO PUSH2 0x16F3 JUMPI DUP5 DUP10 ADD MLOAD PUSH2 0x16EF PUSH1 0x1F DUP10 AND DUP3 PUSH2 0x15FC JUMP JUMPDEST DUP4 SSTORE POP JUMPDEST PUSH1 0x1 PUSH1 0x2 DUP9 MUL ADD DUP9 SSTORE POP POP POP JUMPDEST POP POP POP POP POP POP JUMP JUMPDEST PUSH1 0x0 PUSH2 0x1713 DUP3 PUSH2 0xE64 JUMP JUMPDEST SWAP2 POP PUSH32 0xFFFFFFFFFFFFFFFFFFFFFFFFFFFFFFFFFFFFFFFFFFFFFFFFFFFFFFFFFFFFFFFF DUP3 SUB PUSH2 0x1745 JUMPI PUSH2 0x1744 PUSH2 0x139B JUMP JUMPDEST JUMPDEST PUSH1 0x1 DUP3 ADD SWAP1 POP SWAP2 SWAP1 POP JUMP INVALID LOG2 PUSH5 0x6970667358 0x22 SLT KECCAK256 0x29 0xDD 0x4F 0x49 0xD6 NOT 0x25 0xCC 0x23 0x4F 0xE4 PREVRANDAO PUSH26 0xCC1F866CFBFD38491DEB07363842C872CD94ED64736F6C634300 ADDMOD SLT STOP CALLER "},"gasEstimates":{"creation":{"codeDepositCost":"1204400","executionCost":"infinite","totalCost":"infinite"},"external":{"CampaignDescription()":"infinite","CampaignName()":"infinite","approveRequest(uint256)":"infinite","approvers(address)":"2891","approversCount()":"2452","contibute()":"99621","contributers(uint256)":"5024","createRequest(string,uint256,address)":"infinite","finalizeRequest(uint256)":"infinite","getRequestsCount()":"2535","getSummary()":"infinite","imageUrl()":"infinite","manager()":"2559","minimunContribution()":"2518","requests(uint256)":"infinite","targetToAchieve()":"2473"}},"methodIdentifiers":{"CampaignDescription()":"97654a8c","CampaignName()":"7e7cd1b3","approveRequest(uint256)":"d7d1bbdb","approvers(address)":"0a144391","approversCount()":"82fde093","contibute()":"ea25213f","contributers(uint256)":"1fbed579","createRequest(string,uint256,address)":"8a9cfd55","finalizeRequest(uint256)":"03441006","getRequestsCount()":"3410452a","getSummary()":"4051ddac","imageUrl()":"aba83150","manager()":"481c6a75","minimunContribution()":"a7f33715","requests(uint256)":"81d12c58","targetToAchieve()":"b2a87fc3"}},"storageLayout":{"storage":[{"astId":73,"contract":"Campaigns.sol:Campaign","label":"requests","offset":0,"slot":"0","type":"t_array(t_struct(Request)69_storage)dyn_storage"},{"astId":75,"contract":"Campaigns.sol:Campaign","label":"manager","offset":0,"slot":"1","type":"t_address"},{"astId":77,"contract":"Campaigns.sol:Campaign","label":"minimunContribution","offset":0,"slot":"2","type":"t_uint256"},{"astId":79,"contract":"Campaigns.sol:Campaign","label":"CampaignName","offset":0,"slot":"3","type":"t_string_storage"},{"astId":81,"contract":"Campaigns.sol:Campaign","label":"CampaignDescription","offset":0,"slot":"4","type":"t_string_storage"},{"astId":83,"contract":"Campaigns.sol:Campaign","label":"imageUrl","offset":0,"slot":"5","type":"t_string_storage"},{"astId":85,"contract":"Campaigns.sol:Campaign","label":"targetToAchieve","offset":0,"slot":"6","type":"t_uint256"},{"astId":88,"contract":"Campaigns.sol:Campaign","label":"contributers","offset":0,"slot":"7","type":"t_array(t_address)dyn_storage"},{"astId":92,"contract":"Campaigns.sol:Campaign","label":"approvers","offset":0,"slot":"8","type":"t_mapping(t_address,t_bool)"},{"astId":94,"contract":"Campaigns.sol:Campaign","label":"approversCount","offset":0,"slot":"9","type":"t_uint256"}],"types":{"t_address":{"encoding":"inplace","label":"address","numberOfBytes":"20"},"t_array(t_address)dyn_storage":{"base":"t_address","encoding":"dynamic_array","label":"address[]","numberOfBytes":"32"},"t_array(t_struct(Request)69_storage)dyn_storage":{"base":"t_struct(Request)69_storage","encoding":"dynamic_array","label":"struct Campaign.Request[]","numberOfBytes":"32"},"t_bool":{"encoding":"inplace","label":"bool","numberOfBytes":"1"},"t_mapping(t_address,t_bool)":{"encoding":"mapping","key":"t_address","label":"mapping(address => bool)","numberOfBytes":"32","value":"t_bool"},"t_string_storage":{"encoding":"bytes","label":"string","numberOfBytes":"32"},"t_struct(Request)69_storage":{"encoding":"inplace","label":"struct Campaign.Request","members":[{"astId":56,"contract":"Campaigns.sol:Campaign","label":"description","offset":0,"slot":"0","type":"t_string_storage"},{"astId":58,"contract":"Campaigns.sol:Campaign","label":"value","offset":0,"slot":"1","type":"t_uint256"},{"astId":60,"contract":"Campaigns.sol:Campaign","label":"recipient","offset":0,"slot":"2","type":"t_address"},{"astId":62,"contract":"Campaigns.sol:Campaign","label":"complete","offset":20,"slot":"2","type":"t_bool"},{"astId":64,"contract":"Campaigns.sol:Campaign","label":"approvalCount","offset":0,"slot":"3","type":"t_uint256"},{"astId":68,"contract":"Campaigns.sol:Campaign","label":"approvals","offset":0,"slot":"4","type":"t_mapping(t_address,t_bool)"}],"numberOfBytes":"160"},"t_uint256":{"encoding":"inplace","label":"uint256","numberOfBytes":"32"}}},"userdoc":{"kind":"user","methods":{},"version":1}}